{
  "abi": [
    {
      "inputs": [
        {
          "internalType": "address",
          "name": "_bondingCurve",
          "type": "address"
        }
      ],
      "stateMutability": "nonpayable",
      "type": "constructor"
    },
    {
      "anonymous": false,
      "inputs": [
        {
          "indexed": false,
          "internalType": "address",
          "name": "exchangeAddress",
          "type": "address"
        },
        {
          "indexed": false,
          "internalType": "address",
          "name": "cryptomediaAddress",
          "type": "address"
        },
        {
          "indexed": false,
          "internalType": "string",
          "name": "name",
          "type": "string"
        },
        {
          "indexed": false,
          "internalType": "string",
          "name": "symbol",
          "type": "string"
        },
        {
          "indexed": false,
          "internalType": "address",
          "name": "creator",
          "type": "address"
        }
      ],
      "name": "PairCreated",
      "type": "event"
    },
    {
      "inputs": [],
      "name": "bondingCurve",
      "outputs": [
        {
          "internalType": "address",
          "name": "",
          "type": "address"
        }
      ],
      "stateMutability": "view",
      "type": "function"
    },
    {
      "inputs": [
        {
          "internalType": "string",
          "name": "_name",
          "type": "string"
        },
        {
          "internalType": "string",
          "name": "_symbol",
          "type": "string"
        },
        {
          "internalType": "uint256",
          "name": "_reserveRatio",
          "type": "uint256"
        },
        {
          "internalType": "uint256",
          "name": "_slopeInit",
          "type": "uint256"
        },
        {
          "internalType": "uint256",
          "name": "_transactionShare",
          "type": "uint256"
        },
        {
          "internalType": "string",
          "name": "_baseURI",
          "type": "string"
        }
      ],
      "name": "create",
      "outputs": [
        {
          "internalType": "address",
          "name": "exchange",
          "type": "address"
        },
        {
          "internalType": "address",
          "name": "cryptomedia",
          "type": "address"
        }
      ],
      "stateMutability": "nonpayable",
      "type": "function"
    },
    {
      "inputs": [],
      "name": "cryptomediaLogic",
      "outputs": [
        {
          "internalType": "address",
          "name": "",
          "type": "address"
        }
      ],
      "stateMutability": "view",
      "type": "function"
    },
    {
      "inputs": [],
      "name": "exchangeLogic",
      "outputs": [
        {
          "internalType": "address",
          "name": "",
          "type": "address"
        }
      ],
      "stateMutability": "view",
      "type": "function"
    }
  ],
  "bytecode": {
    "object": "0x60e060405234801561001057600080fd5b5060405161392638038061392683398101604081905261002f916101c5565b6001600160a01b03811660c0526040516000903090839061004f906101ab565b6001600160a01b03928316815291166020820152604001604051809103906000f080158015610082573d6000803e3d6000fd5b509050600030604051610094906101b8565b6001600160a01b039091168152602001604051809103906000f0801580156100c0573d6000803e3d6000fd5b506001600160a01b0380841660a08190529082166080819052604051631745ff0560e31b8152929350909163ba2ff82891610111916203b2f891660292ad53ffa0a1916000919030906004016101f5565b600060405180830381600087803b15801561012b57600080fd5b505af115801561013f573d6000803e3d6000fd5b505060a051604051635c6d8da160e01b81526001600160a01b0385169350635c6d8da192506101719190600401610272565b600060405180830381600087803b15801561018b57600080fd5b505af115801561019f573d6000803e3d6000fd5b505050505050506102f8565b611c478061096f83390190565b611370806125b683390190565b6000602082840312156101d757600080fd5b81516001600160a01b03811681146101ee57600080fd5b9392505050565b60e08152600061021a60e083016005815264566572736560d81b602082015260400190565b828103602084015261023e816005815264564552534560d81b602082015260400190565b60408401989098525050606081019490945260808401929092526001600160a01b0390811660a08401521660c09091015290565b608081526000610297608083016005815264566572736560d81b602082015260400190565b82810360208401526102bb816005815264564552534560d81b602082015260400190565b83810360408086019190915260098252683b32b939b2973c3cbd60b91b60208301526001600160a01b039590951660609094019390935250500190565b60805160a05160c05161063d610332600039600060f401526000818160cd01526101b5015260008181605601526101e0015261063d6000f3fe608060405234801561001057600080fd5b506004361061004c5760003560e01c80631376917e1461005157806333785e6614610095578063ceda8d19146100c8578063eff1d50e146100ef575b600080fd5b6100787f000000000000000000000000000000000000000000000000000000000000000081565b6040516001600160a01b0390911681526020015b60405180910390f35b6100a86100a3366004610416565b610116565b604080516001600160a01b0393841681529290911660208301520161008c565b6100787f000000000000000000000000000000000000000000000000000000000000000081565b6100787f000000000000000000000000000000000000000000000000000000000000000081565b6000806127108511156101655760405162461bcd60e51b8152602060048201526012602482015271494e56414c49445f50455243454e5441474560701b60448201526064015b60405180910390fd5b620f42408711156101b05760405162461bcd60e51b8152602060048201526015602482015274494e56414c49445f524553455256455f524154494f60581b604482015260640161015c565b6101d97f0000000000000000000000000000000000000000000000000000000000000000610330565b91506102047f0000000000000000000000000000000000000000000000000000000000000000610330565b604051631745ff0560e31b81529091506001600160a01b0383169063ba2ff82890610243908e908e908e908e908e908e908e908b9033906004016104f8565b600060405180830381600087803b15801561025d57600080fd5b505af1158015610271573d6000803e3d6000fd5b5050604051635c6d8da160e01b81526001600160a01b0384169250635c6d8da191506102ad908e908e908e908e908b908b908b90600401610558565b600060405180830381600087803b1580156102c757600080fd5b505af11580156102db573d6000803e3d6000fd5b505050507f9fa1bc5d68987c46217fddf4d66e89bfbaa5b4547adab672d47567ceceac41fa82828d8d8d8d3360405161031a97969594939291906105b1565b60405180910390a1995099975050505050505050565b6000604051733d602d80600a3d3981f3363d3d373d3d3d363d7360601b81528260601b60148201526e5af43d82803e903d91602b57fd5bf360881b60288201526037816000f09150506001600160a01b0381166103c85760405162461bcd60e51b8152602060048201526016602482015275115490cc4c4d8dce8818dc99585d194819985a5b195960521b604482015260640161015c565b919050565b60008083601f8401126103df57600080fd5b50813567ffffffffffffffff8111156103f757600080fd5b60208301915083602082850101111561040f57600080fd5b9250929050565b600080600080600080600080600060c08a8c03121561043457600080fd5b893567ffffffffffffffff8082111561044c57600080fd5b6104588d838e016103cd565b909b50995060208c013591508082111561047157600080fd5b61047d8d838e016103cd565b909950975060408c0135965060608c0135955060808c0135945060a08c01359150808211156104ab57600080fd5b506104b88c828d016103cd565b915080935050809150509295985092959850929598565b81835281816020850137506000828201602090810191909152601f909101601f19169091010190565b60e08152600061050c60e083018b8d6104cf565b828103602084015261051f818a8c6104cf565b60408401989098525050606081019490945260808401929092526001600160a01b0390811660a08401521660c090910152949350505050565b60808152600061056c60808301898b6104cf565b828103602084015261057f81888a6104cf565b905082810360408401526105948186886104cf565b91505060018060a01b038316606083015298975050505050505050565b600060018060a01b03808a168352808916602084015260a060408401526105dc60a08401888a6104cf565b83810360608501526105ef8187896104cf565b9250508084166080840152509897505050505050505056fea26469706673582212200555d48794139e3139d6156d5d5b61192a3a8e7e15b51d9fb6efe99c6300a9a664736f6c634300080b003361012060405260016006553480156200001757600080fd5b5060405162001c4738038062001c478339810160408190526200003a916200023a565b60405180604001604052806005815260200164566572736560d81b81525060405180604001604052806005815260200164564552534560d81b815250601282600090805190602001906200009092919062000177565b508151620000a690600190602085019062000177565b5060ff81166080524660a052620000bc620000db565b60c0525050506001600160a01b0391821660e052166101005262000353565b60007f8b73c3c69bb8fe3d512ecc4cf759cc79239f7b179b0ffacaa9a75d522b39400f60006040516200010f9190620002af565b6040805191829003822060208301939093528101919091527fc89efdaa54c0f20c7adf612882df0950f5a951637e0307cdcb4c672f298b8bc660608201524660808201523060a082015260c00160405160208183030381529060405280519060200120905090565b828054620001859062000272565b90600052602060002090601f016020900481019282620001a95760008555620001f4565b82601f10620001c457805160ff1916838001178555620001f4565b82800160010185558215620001f4579182015b82811115620001f4578251825591602001919060010190620001d7565b506200020292915062000206565b5090565b5b8082111562000202576000815560010162000207565b80516001600160a01b03811681146200023557600080fd5b919050565b600080604083850312156200024e57600080fd5b62000259836200021d565b915062000269602084016200021d565b90509250929050565b600181811c908216806200028757607f821691505b60208210811415620002a957634e487b7160e01b600052602260045260246000fd5b50919050565b600080835481600182811c915080831680620002cc57607f831692505b6020808410821415620002ed57634e487b7160e01b86526022600452602486fd5b818015620003045760018114620003165762000345565b60ff1986168952848901965062000345565b60008a81526020902060005b868110156200033d5781548b82015290850190830162000322565b505084890196505b509498975050505050505050565b60805160a05160c05160e05161010051611893620003b46000396000818161046101528181610cca01528181610f6201526110610152600081816103a20152610762015260006106c20152600061068d0152600061024b01526118936000f3fe60806040526004361061014b5760003560e01c8063a9059cbb116100b6578063d79875eb1161006f578063d79875eb146103e4578063d96a094a14610404578063dd62ed3e14610417578063eff1d50e1461044f578063f4021e3d14610483578063f60e8c2b1461049957600080fd5b8063a9059cbb14610319578063ad8c867314610339578063ba2ff82814610359578063be040fb01461037b578063c45a015514610390578063d505accf146103c457600080fd5b8063313ce56711610108578063313ce567146102395780633644e5151461027f57806370a08231146102945780637ecebe00146102c157806395d89b41146102ee57806396365d441461030357600080fd5b806302d05d3f1461015057806306fdde031461018d578063095ea7b3146101af5780630c7d5cd8146101df57806318160ddd1461020357806323b872dd14610219575b600080fd5b34801561015c57600080fd5b50600754610170906001600160a01b031681565b6040516001600160a01b0390911681526020015b60405180910390f35b34801561019957600080fd5b506101a26104af565b60405161018491906113f8565b3480156101bb57600080fd5b506101cf6101ca366004611469565b61053d565b6040519015158152602001610184565b3480156101eb57600080fd5b506101f560095481565b604051908152602001610184565b34801561020f57600080fd5b506101f560025481565b34801561022557600080fd5b506101cf610234366004611493565b6105a9565b34801561024557600080fd5b5061026d7f000000000000000000000000000000000000000000000000000000000000000081565b60405160ff9091168152602001610184565b34801561028b57600080fd5b506101f5610689565b3480156102a057600080fd5b506101f56102af3660046114cf565b60036020526000908152604090205481565b3480156102cd57600080fd5b506101f56102dc3660046114cf565b60056020526000908152604090205481565b3480156102fa57600080fd5b506101a26106e4565b34801561030f57600080fd5b506101f5600b5481565b34801561032557600080fd5b506101cf610334366004611469565b6106f1565b34801561034557600080fd5b50600854610170906001600160a01b031681565b34801561036557600080fd5b5061037961037436600461153a565b610757565b005b34801561038757600080fd5b5061037961081e565b34801561039c57600080fd5b506101707f000000000000000000000000000000000000000000000000000000000000000081565b3480156103d057600080fd5b506103796103df3660046115e6565b610925565b3480156103f057600080fd5b506103796103ff366004611659565b610b76565b61037961041236600461167b565b610e4a565b34801561042357600080fd5b506101f5610432366004611694565b600460209081526000928352604080842090915290825290205481565b34801561045b57600080fd5b506101707f000000000000000000000000000000000000000000000000000000000000000081565b34801561048f57600080fd5b506101f5600c5481565b3480156104a557600080fd5b506101f5600a5481565b600080546104bc906116c7565b80601f01602080910402602001604051908101604052809291908181526020018280546104e8906116c7565b80156105355780601f1061050a57610100808354040283529160200191610535565b820191906000526020600020905b81548152906001019060200180831161051857829003601f168201915b505050505081565b3360008181526004602090815260408083206001600160a01b038716808552925280832085905551919290917f8c5be1e5ebec7d5bd14f71427d1e84f3dd0314c0f7b2291e5b200ac8c7c3b925906105989086815260200190565b60405180910390a350600192915050565b6001600160a01b03831660009081526004602090815260408083203384529091528120546000198114610605576105e08382611718565b6001600160a01b03861660009081526004602090815260408083203384529091529020555b6001600160a01b0385166000908152600360205260408120805485929061062d908490611718565b90915550506001600160a01b038085166000818152600360205260409081902080548701905551909187169060008051602061183e833981519152906106769087815260200190565b60405180910390a3506001949350505050565b60007f000000000000000000000000000000000000000000000000000000000000000046146106bf576106ba611190565b905090565b507f000000000000000000000000000000000000000000000000000000000000000090565b600180546104bc906116c7565b33600090815260036020526040812080548391908390610712908490611718565b90915550506001600160a01b0383166000818152600360205260409081902080548501905551339060008051602061183e833981519152906105989086815260200190565b336001600160a01b037f000000000000000000000000000000000000000000000000000000000000000016146107c35760405162461bcd60e51b815260206004820152600c60248201526b15539055551213d49256915160a21b60448201526064015b60405180910390fd5b6107cf60008a8a61135f565b506107dc6001888861135f565b50600994909455600a92909255600c55600880546001600160a01b039283166001600160a01b0319918216179091556007805492909316911617905550505050565b33600090815260036020526040902054670de0b6b3a7640000111561087c5760405162461bcd60e51b8152602060048201526014602482015273494e53554646494349454e545f42414c414e434560601b60448201526064016107ba565b60085461089a906001600160a01b0316670de0b6b3a76400006106f1565b506008546040516335313c2160e11b81523360048201526001600160a01b0390911690636a62784290602401600060405180830381600087803b1580156108e057600080fd5b505af11580156108f4573d6000803e3d6000fd5b50506040513392507fd1b5ea7fe0f1c2fa09d49c2aa9b2200664ba57a734f1d95481d95b7f99af991c9150600090a2565b428410156109755760405162461bcd60e51b815260206004820152601760248201527f5045524d49545f444541444c494e455f4558504952454400000000000000000060448201526064016107ba565b600061097f610689565b6001600160a01b0389811660008181526005602090815260409182902080546001810190915582517f6e71edae12b1b97f4d1f60370fef10105fa2faae0126114a169c64845d6126c98184015280840194909452938c166060840152608083018b905260a083019390935260c08083018a90528151808403909101815260e08301909152805192019190912061190160f01b6101008301526101028201929092526101228101919091526101420160408051601f198184030181528282528051602091820120600080855291840180845281905260ff88169284019290925260608301869052608083018590529092509060019060a0016020604051602081039080840390855afa158015610a98573d6000803e3d6000fd5b5050604051601f1901519150506001600160a01b03811615801590610ace5750886001600160a01b0316816001600160a01b0316145b610b0b5760405162461bcd60e51b815260206004820152600e60248201526d24a72b20a624a22fa9a4a3a722a960911b60448201526064016107ba565b6001600160a01b0390811660009081526004602090815260408083208b8516808552908352928190208a905551898152919350918a16917f8c5be1e5ebec7d5bd14f71427d1e84f3dd0314c0f7b2291e5b200ac8c7c3b925910160405180910390a350505050505050565b60008211610bbc5760405162461bcd60e51b81526020600482015260136024820152721253959053125117d4d1531317d05353d55395606a1b60448201526064016107ba565b33600090815260036020526040902054821115610c125760405162461bcd60e51b8152602060048201526014602482015273494e53554646494349454e545f42414c414e434560601b60448201526064016107ba565b6000600b5411610c645760405162461bcd60e51b815260206004820152601960248201527f494e53554646494349454e545f504f4f4c5f42414c414e43450000000000000060448201526064016107ba565b60008111610ca75760405162461bcd60e51b815260206004820152601060248201526f494e56414c49445f534c49505041474560801b60448201526064016107ba565b600254600b546009546040516340e1d71d60e11b81526000936001600160a01b037f000000000000000000000000000000000000000000000000000000000000000016936381c3ae3a93610d1593899060040193845260208401929092526040830152606082015260800190565b6020604051808303816000875af1158015610d34573d6000803e3d6000fd5b505050506040513d601f19601f82011682018060405250810190610d58919061172f565b90506000610d658261122a565b90506000610d738284611718565b905083811015610db05760405162461bcd60e51b8152602060048201526008602482015267534c49505041474560c01b60448201526064016107ba565b610dba338661124d565b82600b6000828254610dcc9190611718565b90915550610ddc905033826112b7565b600754610df2906001600160a01b0316836112b7565b600b5460025460408051928352602083019190915281018690526060810184905233907f483f8aec0fd892ac72ad1ba8d0e9c9e73db59c12d263fd71de480b5b3deeae3c906080015b60405180910390a25050505050565b60003411610e8a5760405162461bcd60e51b815260206004820152600d60248201526c494e56414c49445f56414c554560981b60448201526064016107ba565b60008111610ecd5760405162461bcd60e51b815260206004820152601060248201526f494e56414c49445f534c49505041474560801b60448201526064016107ba565b346000610ed98261122a565b90506000610ee78284611718565b9050600060025460001480610efc5750600b54155b156110255766038d7ea4c68000821015610f585760405162461bcd60e51b815260206004820152601a60248201527f494e53554646494349454e545f494e495449414c5f505249434500000000000060448201526064016107ba565b6001600160a01b037f00000000000000000000000000000000000000000000000000000000000000001663d47d2a76610f9866038d7ea4c6800085611748565b600954600a546040516001600160e01b031960e086901b168152600481019390935260248301919091526044820152606401602060405180830381865afa158015610fe7573d6000803e3d6000fd5b505050506040513d601f19601f8201168201806040525081019061100b919061172f565b905061101e8166038d7ea4c6800061176a565b90506110d1565b600254600b5460095460405163257bb54960e21b8152600481019390935260248301919091526044820152606481018390526001600160a01b037f000000000000000000000000000000000000000000000000000000000000000016906395eed524906084016020604051808303816000875af11580156110aa573d6000803e3d6000fd5b505050506040513d601f19601f820116820180604052508101906110ce919061172f565b90505b8481101561110c5760405162461bcd60e51b8152602060048201526008602482015267534c49505041474560c01b60448201526064016107ba565b611116338261130d565b81600b60008282546111289190611789565b9091555050600754611143906001600160a01b0316846112b7565b600b5460025460408051928352602083019190915281018290526060810183905233907f064fb1933e186be0b289a87e98518dc18cc9856ecbc9f1353d1a138ddf733ec590608001610e3b565b60007f8b73c3c69bb8fe3d512ecc4cf759cc79239f7b179b0ffacaa9a75d522b39400f60006040516111c291906117a1565b6040805191829003822060208301939093528101919091527fc89efdaa54c0f20c7adf612882df0950f5a951637e0307cdcb4c672f298b8bc660608201524660808201523060a082015260c00160405160208183030381529060405280519060200120905090565b6000612710600c548361123d919061176a565b6112479190611748565b92915050565b6001600160a01b03821660009081526003602052604081208054839290611275908490611718565b90915550506002805482900390556040518181526000906001600160a01b0384169060008051602061183e833981519152906020015b60405180910390a35050565b600080600080600085875af19050806113085760405162461bcd60e51b815260206004820152601360248201527211551217d514905394d1915497d19052531151606a1b60448201526064016107ba565b505050565b806002600082825461131f9190611789565b90915550506001600160a01b03821660008181526003602090815260408083208054860190555184815260008051602061183e83398151915291016112ab565b82805461136b906116c7565b90600052602060002090601f01602090048101928261138d57600085556113d3565b82601f106113a65782800160ff198235161785556113d3565b828001600101855582156113d3579182015b828111156113d35782358255916020019190600101906113b8565b506113df9291506113e3565b5090565b5b808211156113df57600081556001016113e4565b600060208083528351808285015260005b8181101561142557858101830151858201604001528201611409565b81811115611437576000604083870101525b50601f01601f1916929092016040019392505050565b80356001600160a01b038116811461146457600080fd5b919050565b6000806040838503121561147c57600080fd5b6114858361144d565b946020939093013593505050565b6000806000606084860312156114a857600080fd5b6114b18461144d565b92506114bf6020850161144d565b9150604084013590509250925092565b6000602082840312156114e157600080fd5b6114ea8261144d565b9392505050565b60008083601f84011261150357600080fd5b50813567ffffffffffffffff81111561151b57600080fd5b60208301915083602082850101111561153357600080fd5b9250929050565b600080600080600080600080600060e08a8c03121561155857600080fd5b893567ffffffffffffffff8082111561157057600080fd5b61157c8d838e016114f1565b909b50995060208c013591508082111561159557600080fd5b506115a28c828d016114f1565b90985096505060408a0135945060608a0135935060808a013592506115c960a08b0161144d565b91506115d760c08b0161144d565b90509295985092959850929598565b600080600080600080600060e0888a03121561160157600080fd5b61160a8861144d565b96506116186020890161144d565b95506040880135945060608801359350608088013560ff8116811461163c57600080fd5b9699959850939692959460a0840135945060c09093013592915050565b6000806040838503121561166c57600080fd5b50508035926020909101359150565b60006020828403121561168d57600080fd5b5035919050565b600080604083850312156116a757600080fd5b6116b08361144d565b91506116be6020840161144d565b90509250929050565b600181811c908216806116db57607f821691505b602082108114156116fc57634e487b7160e01b600052602260045260246000fd5b50919050565b634e487b7160e01b600052601160045260246000fd5b60008282101561172a5761172a611702565b500390565b60006020828403121561174157600080fd5b5051919050565b60008261176557634e487b7160e01b600052601260045260246000fd5b500490565b600081600019048311821515161561178457611784611702565b500290565b6000821982111561179c5761179c611702565b500190565b600080835481600182811c9150808316806117bd57607f831692505b60208084108214156117dd57634e487b7160e01b86526022600452602486fd5b8180156117f157600181146118025761182f565b60ff1986168952848901965061182f565b60008a81526020902060005b868110156118275781548b82015290850190830161180e565b505084890196505b50949897505050505050505056feddf252ad1be2c89b69c2b068fc378daa952ba7f163c4a11628f55a4df523b3efa2646970667358221220b48e86f98cc39b3c1f1341cdcdb854c60e31ab51d6b9f66b9aa33d2627f33be864736f6c634300080b003360a06040523480156200001157600080fd5b506040516200137038038062001370833981016040819052620000349162000159565b60405180604001604052806005815260200164566572736560d81b81525060405180604001604052806005815260200164564552534560d81b815250816000908051906020019062000088929190620000b3565b5080516200009e906001906020840190620000b3565b5050506001600160a01b0316608052620001c8565b828054620000c1906200018b565b90600052602060002090601f016020900481019282620000e5576000855562000130565b82601f106200010057805160ff191683800117855562000130565b8280016001018555821562000130579182015b828111156200013057825182559160200191906001019062000113565b506200013e92915062000142565b5090565b5b808211156200013e576000815560010162000143565b6000602082840312156200016c57600080fd5b81516001600160a01b03811681146200018457600080fd5b9392505050565b600181811c90821680620001a057607f821691505b60208210811415620001c257634e487b7160e01b600052602260045260246000fd5b50919050565b608051611185620001eb6000396000818161028c015261076f01526111856000f3fe608060405234801561001057600080fd5b50600436106101165760003560e01c80636c0360eb116100a2578063b88d4fde11610071578063b88d4fde14610274578063c45a015514610287578063c87b56dd146102ae578063d2f7265a146102c1578063e985e9c5146102d457600080fd5b80636c0360eb1461022357806370a082311461022b57806395d89b4114610259578063a22cb4651461026157600080fd5b806323b872dd116100e957806323b872dd146101ae57806342842e0e146101c15780635c6d8da1146101d45780636352211e146101e75780636a6278421461021057600080fd5b806301ffc9a71461011b57806306fdde0314610143578063081812fc14610158578063095ea7b314610199575b600080fd5b61012e610129366004610cd7565b610302565b60405190151581526020015b60405180910390f35b61014b610354565b60405161013a9190610d48565b610181610166366004610d5b565b6004602052600090815260409020546001600160a01b031681565b6040516001600160a01b03909116815260200161013a565b6101ac6101a7366004610d90565b6103e2565b005b6101ac6101bc366004610dba565b6104c9565b6101ac6101cf366004610dba565b61066c565b6101ac6101e2366004610e3f565b610764565b6101816101f5366004610d5b565b6003602052600090815260409020546001600160a01b031681565b6101ac61021e366004610eea565b61082b565b61014b6108bc565b61024b610239366004610eea565b60026020526000908152604090205481565b60405190815260200161013a565b61014b6108c9565b6101ac61026f366004610f05565b6108d6565b6101ac610282366004610f57565b610942565b6101817f000000000000000000000000000000000000000000000000000000000000000081565b61014b6102bc366004610d5b565b610a27565b600654610181906001600160a01b031681565b61012e6102e2366004611033565b600560209081526000928352604080842090915290825290205460ff1681565b60006301ffc9a760e01b6001600160e01b03198316148061033357506380ac58cd60e01b6001600160e01b03198316145b8061034e5750635b5e139f60e01b6001600160e01b03198316145b92915050565b6000805461036190611066565b80601f016020809104026020016040519081016040528092919081815260200182805461038d90611066565b80156103da5780601f106103af576101008083540402835291602001916103da565b820191906000526020600020905b8154815290600101906020018083116103bd57829003601f168201915b505050505081565b6000818152600360205260409020546001600160a01b03163381148061042b57506001600160a01b038116600090815260056020908152604080832033845290915290205460ff165b61046d5760405162461bcd60e51b815260206004820152600e60248201526d1393d517d055551213d49256915160921b60448201526064015b60405180910390fd5b60008281526004602052604080822080546001600160a01b0319166001600160a01b0387811691821790925591518593918516917f8c5be1e5ebec7d5bd14f71427d1e84f3dd0314c0f7b2291e5b200ac8c7c3b92591a4505050565b6000818152600360205260409020546001600160a01b0384811691161461051f5760405162461bcd60e51b815260206004820152600a60248201526957524f4e475f46524f4d60b01b6044820152606401610464565b6001600160a01b0382166105455760405162461bcd60e51b8152600401610464906110a1565b336001600160a01b038416148061057257506000818152600460205260409020546001600160a01b031633145b806105a057506001600160a01b038316600090815260056020908152604080832033845290915290205460ff165b6105dd5760405162461bcd60e51b815260206004820152600e60248201526d1393d517d055551213d49256915160921b6044820152606401610464565b6001600160a01b0380841660008181526002602090815260408083208054600019019055938616808352848320805460010190558583526003825284832080546001600160a01b03199081168317909155600490925284832080549092169091559251849392917fddf252ad1be2c89b69c2b068fc378daa952ba7f163c4a11628f55a4df523b3ef91a4505050565b6106778383836104c9565b6001600160a01b0382163b15806107205750604051630a85bd0160e11b8082523360048301526001600160a01b03858116602484015260448301849052608060648401526000608484015290919084169063150b7a029060a4016020604051808303816000875af11580156106f0573d6000803e3d6000fd5b505050506040513d601f19601f8201168201806040525081019061071491906110cc565b6001600160e01b031916145b61075f5760405162461bcd60e51b815260206004820152601060248201526f155394d0519157d49150d2541251539560821b6044820152606401610464565b505050565b336001600160a01b037f000000000000000000000000000000000000000000000000000000000000000016146107cb5760405162461bcd60e51b815260206004820152600c60248201526b15539055551213d49256915160a21b6044820152606401610464565b6107d760008888610c28565b506107e460018686610c28565b506107f160078484610c28565b50600680546001600160a01b0319166001600160a01b0383161790556008805490600061081d836110e9565b919050555050505050505050565b6006546001600160a01b031633146108745760405162461bcd60e51b815260206004820152600c60248201526b15539055551213d49256915160a21b6044820152606401610464565b6001600160a01b03811661089a5760405162461bcd60e51b8152600401610464906110a1565b600880546108b99183919060006108b0836110e9565b91905055610b41565b50565b6007805461036190611066565b6001805461036190611066565b3360008181526005602090815260408083206001600160a01b03871680855290835292819020805460ff191686151590811790915590519081529192917f17307eab39ab6107e8899845ad3d59bd9653f200f220920489ca2b5937696c31910160405180910390a35050565b61094d8484846104c9565b6001600160a01b0383163b15806109e25750604051630a85bd0160e11b808252906001600160a01b0385169063150b7a0290610993903390899088908890600401611112565b6020604051808303816000875af11580156109b2573d6000803e3d6000fd5b505050506040513d601f19601f820116820180604052508101906109d691906110cc565b6001600160e01b031916145b610a215760405162461bcd60e51b815260206004820152601060248201526f155394d0519157d49150d2541251539560821b6044820152606401610464565b50505050565b6000818152600360205260409020546060906001600160a01b0316610a855760405162461bcd60e51b81526020600482015260146024820152731513d2d15397d113d154d7d393d517d1561254d560621b6044820152606401610464565b600060078054610a9490611066565b905011610ab0576040518060200160405280600081525061034e565b60078054610abd90611066565b80601f0160208091040260200160405190810160405280929190818152602001828054610ae990611066565b8015610b365780601f10610b0b57610100808354040283529160200191610b36565b820191906000526020600020905b815481529060010190602001808311610b1957829003601f168201915b505050505092915050565b6001600160a01b038216610b675760405162461bcd60e51b8152600401610464906110a1565b6000818152600360205260409020546001600160a01b031615610bbd5760405162461bcd60e51b815260206004820152600e60248201526d1053149150511657d3525395115160921b6044820152606401610464565b6001600160a01b038216600081815260026020908152604080832080546001019055848352600390915280822080546001600160a01b0319168417905551839291907fddf252ad1be2c89b69c2b068fc378daa952ba7f163c4a11628f55a4df523b3ef908290a45050565b828054610c3490611066565b90600052602060002090601f016020900481019282610c565760008555610c9c565b82601f10610c6f5782800160ff19823516178555610c9c565b82800160010185558215610c9c579182015b82811115610c9c578235825591602001919060010190610c81565b50610ca8929150610cac565b5090565b5b80821115610ca85760008155600101610cad565b6001600160e01b0319811681146108b957600080fd5b600060208284031215610ce957600080fd5b8135610cf481610cc1565b9392505050565b6000815180845260005b81811015610d2157602081850181015186830182015201610d05565b81811115610d33576000602083870101525b50601f01601f19169290920160200192915050565b602081526000610cf46020830184610cfb565b600060208284031215610d6d57600080fd5b5035919050565b80356001600160a01b0381168114610d8b57600080fd5b919050565b60008060408385031215610da357600080fd5b610dac83610d74565b946020939093013593505050565b600080600060608486031215610dcf57600080fd5b610dd884610d74565b9250610de660208501610d74565b9150604084013590509250925092565b60008083601f840112610e0857600080fd5b50813567ffffffffffffffff811115610e2057600080fd5b602083019150836020828501011115610e3857600080fd5b9250929050565b60008060008060008060006080888a031215610e5a57600080fd5b873567ffffffffffffffff80821115610e7257600080fd5b610e7e8b838c01610df6565b909950975060208a0135915080821115610e9757600080fd5b610ea38b838c01610df6565b909750955060408a0135915080821115610ebc57600080fd5b50610ec98a828b01610df6565b9094509250610edc905060608901610d74565b905092959891949750929550565b600060208284031215610efc57600080fd5b610cf482610d74565b60008060408385031215610f1857600080fd5b610f2183610d74565b915060208301358015158114610f3657600080fd5b809150509250929050565b634e487b7160e01b600052604160045260246000fd5b60008060008060808587031215610f6d57600080fd5b610f7685610d74565b9350610f8460208601610d74565b925060408501359150606085013567ffffffffffffffff80821115610fa857600080fd5b818701915087601f830112610fbc57600080fd5b813581811115610fce57610fce610f41565b604051601f8201601f19908116603f01168101908382118183101715610ff657610ff6610f41565b816040528281528a602084870101111561100f57600080fd5b82602086016020830137600060208483010152809550505050505092959194509250565b6000806040838503121561104657600080fd5b61104f83610d74565b915061105d60208401610d74565b90509250929050565b600181811c9082168061107a57607f821691505b6020821081141561109b57634e487b7160e01b600052602260045260246000fd5b50919050565b6020808252601190820152701253959053125117d49150d25412515395607a1b604082015260600190565b6000602082840312156110de57600080fd5b8151610cf481610cc1565b600060001982141561110b57634e487b7160e01b600052601160045260246000fd5b5060010190565b6001600160a01b038581168252841660208201526040810183905260806060820181905260009061114590830184610cfb565b969550505050505056fea2646970667358221220ed55182bc2567c279b7de0a41e277e9355da0fc562e3e738c4cd2b13a3b8944e64736f6c634300080b0033",
    "linkReferences": {}
  }
}