{
  "abi": [
    {
      "inputs": [
        {
          "internalType": "address",
          "name": "_bondingCurve",
          "type": "address"
        }
      ],
      "stateMutability": "nonpayable",
      "type": "constructor"
    },
    {
      "anonymous": false,
      "inputs": [
        {
          "indexed": false,
          "internalType": "address",
          "name": "exchangeAddress",
          "type": "address"
        },
        {
          "indexed": false,
          "internalType": "address",
          "name": "cryptomediaAddress",
          "type": "address"
        },
        {
          "indexed": false,
          "internalType": "address",
          "name": "creator",
          "type": "address"
        }
      ],
      "name": "PairCreated",
      "type": "event"
    },
    {
      "inputs": [],
      "name": "bondingCurve",
      "outputs": [
        {
          "internalType": "address",
          "name": "",
          "type": "address"
        }
      ],
      "stateMutability": "view",
      "type": "function"
    },
    {
      "inputs": [
        {
          "internalType": "string",
          "name": "_name",
          "type": "string"
        },
        {
          "internalType": "string",
          "name": "_symbol",
          "type": "string"
        },
        {
          "internalType": "uint256",
          "name": "_reserveRatio",
          "type": "uint256"
        },
        {
          "internalType": "uint256",
          "name": "_transactionShare",
          "type": "uint256"
        },
        {
          "internalType": "string",
          "name": "_baseURI",
          "type": "string"
        }
      ],
      "name": "create",
      "outputs": [
        {
          "internalType": "address",
          "name": "exchange",
          "type": "address"
        },
        {
          "internalType": "address",
          "name": "cryptomedia",
          "type": "address"
        }
      ],
      "stateMutability": "nonpayable",
      "type": "function"
    },
    {
      "inputs": [],
      "name": "cryptomediaLogic",
      "outputs": [
        {
          "internalType": "address",
          "name": "",
          "type": "address"
        }
      ],
      "stateMutability": "view",
      "type": "function"
    },
    {
      "inputs": [],
      "name": "exchangeLogic",
      "outputs": [
        {
          "internalType": "address",
          "name": "",
          "type": "address"
        }
      ],
      "stateMutability": "view",
      "type": "function"
    }
  ],
  "bytecode": {
    "object": "0x60e060405234801561001057600080fd5b5060405161387a38038061387a83398101604081905261002f916101bb565b6001600160a01b03811660c0526040516000903090839061004f906101a1565b6001600160a01b03928316815291166020820152604001604051809103906000f080158015610082573d6000803e3d6000fd5b509050600030604051610094906101ae565b6001600160a01b039091168152602001604051809103906000f0801580156100c0573d6000803e3d6000fd5b506001600160a01b0380841660a08190529082166080819052604051633b3d589160e11b8152929350909163767ab12291610107916203b2f89160009130906004016101eb565b600060405180830381600087803b15801561012157600080fd5b505af1158015610135573d6000803e3d6000fd5b505060a051604051635c6d8da160e01b81526001600160a01b0385169350635c6d8da192506101679190600401610260565b600060405180830381600087803b15801561018157600080fd5b505af1158015610195573d6000803e3d6000fd5b505050505050506102e6565b611c1c806108f783390190565b6113678061251383390190565b6000602082840312156101cd57600080fd5b81516001600160a01b03811681146101e457600080fd5b9392505050565b60c08152600061021060c083016005815264566572736560d81b602082015260400190565b8281036020840152610234816005815264564552534560d81b602082015260400190565b6040840197909752505060608101939093526001600160a01b0391821660808401521660a09091015290565b608081526000610285608083016005815264566572736560d81b602082015260400190565b82810360208401526102a9816005815264564552534560d81b602082015260400190565b83810360408086019190915260098252683b32b939b2973c3cbd60b91b60208301526001600160a01b039590951660609094019390935250500190565b60805160a05160c0516105d7610320600039600060f401526000818160cd01526101b5015260008181605601526101e001526105d76000f3fe608060405234801561001057600080fd5b506004361061004c5760003560e01c80631376917e14610051578063c1cd5dba14610095578063ceda8d19146100c8578063eff1d50e146100ef575b600080fd5b6100787f000000000000000000000000000000000000000000000000000000000000000081565b6040516001600160a01b0390911681526020015b60405180910390f35b6100a86100a336600461041a565b610116565b604080516001600160a01b0393841681529290911660208301520161008c565b6100787f000000000000000000000000000000000000000000000000000000000000000081565b6100787f000000000000000000000000000000000000000000000000000000000000000081565b6000806127108511156101655760405162461bcd60e51b8152602060048201526012602482015271494e56414c49445f50455243454e5441474560701b60448201526064015b60405180910390fd5b620f42408611156101b05760405162461bcd60e51b8152602060048201526015602482015274494e56414c49445f524553455256455f524154494f60581b604482015260640161015c565b6101d97f0000000000000000000000000000000000000000000000000000000000000000610334565b91506102047f0000000000000000000000000000000000000000000000000000000000000000610334565b604051633b3d589160e11b81529091506001600160a01b0383169063767ab12290610241908d908d908d908d908d908d908a9033906004016104f0565b600060405180830381600087803b15801561025b57600080fd5b505af115801561026f573d6000803e3d6000fd5b5050604051635c6d8da160e01b81526001600160a01b0384169250635c6d8da191506102ab908d908d908d908d908b908b908b90600401610548565b600060405180830381600087803b1580156102c557600080fd5b505af11580156102d9573d6000803e3d6000fd5b5050604080516001600160a01b03868116825285166020820152338183015290517fa92a2b95c8d8436f6ac4c673c61487364f877efb9534d4296fad8ef904546c949350908190036060019150a19850989650505050505050565b6000604051733d602d80600a3d3981f3363d3d373d3d3d363d7360601b81528260601b60148201526e5af43d82803e903d91602b57fd5bf360881b60288201526037816000f09150506001600160a01b0381166103cc5760405162461bcd60e51b8152602060048201526016602482015275115490cc4c4d8dce8818dc99585d194819985a5b195960521b604482015260640161015c565b919050565b60008083601f8401126103e357600080fd5b50813567ffffffffffffffff8111156103fb57600080fd5b60208301915083602082850101111561041357600080fd5b9250929050565b60008060008060008060008060a0898b03121561043657600080fd5b883567ffffffffffffffff8082111561044e57600080fd5b61045a8c838d016103d1565b909a50985060208b013591508082111561047357600080fd5b61047f8c838d016103d1565b909850965060408b0135955060608b0135945060808b01359150808211156104a657600080fd5b506104b38b828c016103d1565b999c989b5096995094979396929594505050565b81835281816020850137506000828201602090810191909152601f909101601f19169091010190565b60c08152600061050460c083018a8c6104c7565b828103602084015261051781898b6104c7565b6040840197909752505060608101939093526001600160a01b0391821660808401521660a090910152949350505050565b60808152600061055c60808301898b6104c7565b828103602084015261056f81888a6104c7565b905082810360408401526105848186886104c7565b91505060018060a01b03831660608301529897505050505050505056fea2646970667358221220b2fa735f6a77358e5283f8a847b9a746cea821cfdb41719658ce2260ddbaf0f464736f6c634300080b003361012060405260016006553480156200001757600080fd5b5060405162001c1c38038062001c1c8339810160408190526200003a916200023a565b60405180604001604052806005815260200164566572736560d81b81525060405180604001604052806005815260200164564552534560d81b815250601282600090805190602001906200009092919062000177565b508151620000a690600190602085019062000177565b5060ff81166080524660a052620000bc620000db565b60c0525050506001600160a01b0391821660e052166101005262000353565b60007f8b73c3c69bb8fe3d512ecc4cf759cc79239f7b179b0ffacaa9a75d522b39400f60006040516200010f9190620002af565b6040805191829003822060208301939093528101919091527fc89efdaa54c0f20c7adf612882df0950f5a951637e0307cdcb4c672f298b8bc660608201524660808201523060a082015260c00160405160208183030381529060405280519060200120905090565b828054620001859062000272565b90600052602060002090601f016020900481019282620001a95760008555620001f4565b82601f10620001c457805160ff1916838001178555620001f4565b82800160010185558215620001f4579182015b82811115620001f4578251825591602001919060010190620001d7565b506200020292915062000206565b5090565b5b8082111562000202576000815560010162000207565b80516001600160a01b03811681146200023557600080fd5b919050565b600080604083850312156200024e57600080fd5b62000259836200021d565b915062000269602084016200021d565b90509250929050565b600181811c908216806200028757607f821691505b60208210811415620002a957634e487b7160e01b600052602260045260246000fd5b50919050565b600080835481600182811c915080831680620002cc57607f831692505b6020808410821415620002ed57634e487b7160e01b86526022600452602486fd5b818015620003045760018114620003165762000345565b60ff1986168952848901965062000345565b60008a81526020902060005b868110156200033d5781548b82015290850190830162000322565b505084890196505b509498975050505050505050565b60805160a05160c05160e05161010051611868620003b46000396000818161045601528181610cb301528181610f4b015261103f01526000818161039701526106ce015260006106a10152600061066c0152600061024001526118686000f3fe6080604052600436106101405760003560e01c806395d89b41116100b6578063d505accf1161006f578063d505accf146103b9578063d79875eb146103d9578063d96a094a146103f9578063dd62ed3e1461040c578063eff1d50e14610444578063f4021e3d1461047857600080fd5b806395d89b411461030557806396365d441461031a578063a9059cbb14610330578063ad8c867314610350578063be040fb014610370578063c45a01551461038557600080fd5b806323b872dd1161010857806323b872dd1461020e578063313ce5671461022e5780633644e5151461027457806370a0823114610289578063767ab122146102b65780637ecebe00146102d857600080fd5b806302d05d3f1461014557806306fdde0314610182578063095ea7b3146101a45780630c7d5cd8146101d457806318160ddd146101f8575b600080fd5b34801561015157600080fd5b50600754610165906001600160a01b031681565b6040516001600160a01b0390911681526020015b60405180910390f35b34801561018e57600080fd5b5061019761048e565b60405161017991906113d6565b3480156101b057600080fd5b506101c46101bf366004611447565b61051c565b6040519015158152602001610179565b3480156101e057600080fd5b506101ea60095481565b604051908152602001610179565b34801561020457600080fd5b506101ea60025481565b34801561021a57600080fd5b506101c4610229366004611471565b610588565b34801561023a57600080fd5b506102627f000000000000000000000000000000000000000000000000000000000000000081565b60405160ff9091168152602001610179565b34801561028057600080fd5b506101ea610668565b34801561029557600080fd5b506101ea6102a43660046114ad565b60036020526000908152604090205481565b3480156102c257600080fd5b506102d66102d1366004611518565b6106c3565b005b3480156102e457600080fd5b506101ea6102f33660046114ad565b60056020526000908152604090205481565b34801561031157600080fd5b50610197610787565b34801561032657600080fd5b506101ea600a5481565b34801561033c57600080fd5b506101c461034b366004611447565b610794565b34801561035c57600080fd5b50600854610165906001600160a01b031681565b34801561037c57600080fd5b506102d66107fa565b34801561039157600080fd5b506101657f000000000000000000000000000000000000000000000000000000000000000081565b3480156103c557600080fd5b506102d66103d43660046115bb565b61090e565b3480156103e557600080fd5b506102d66103f436600461162e565b610b5f565b6102d6610407366004611650565b610e33565b34801561041857600080fd5b506101ea610427366004611669565b600460209081526000928352604080842090915290825290205481565b34801561045057600080fd5b506101657f000000000000000000000000000000000000000000000000000000000000000081565b34801561048457600080fd5b506101ea600b5481565b6000805461049b9061169c565b80601f01602080910402602001604051908101604052809291908181526020018280546104c79061169c565b80156105145780601f106104e957610100808354040283529160200191610514565b820191906000526020600020905b8154815290600101906020018083116104f757829003601f168201915b505050505081565b3360008181526004602090815260408083206001600160a01b038716808552925280832085905551919290917f8c5be1e5ebec7d5bd14f71427d1e84f3dd0314c0f7b2291e5b200ac8c7c3b925906105779086815260200190565b60405180910390a350600192915050565b6001600160a01b038316600090815260046020908152604080832033845290915281205460001981146105e4576105bf83826116ed565b6001600160a01b03861660009081526004602090815260408083203384529091529020555b6001600160a01b0385166000908152600360205260408120805485929061060c9084906116ed565b90915550506001600160a01b0380851660008181526003602052604090819020805487019055519091871690600080516020611813833981519152906106559087815260200190565b60405180910390a3506001949350505050565b60007f0000000000000000000000000000000000000000000000000000000000000000461461069e5761069961116e565b905090565b507f000000000000000000000000000000000000000000000000000000000000000090565b336001600160a01b037f0000000000000000000000000000000000000000000000000000000000000000161461072f5760405162461bcd60e51b815260206004820152600c60248201526b15539055551213d49256915160a21b60448201526064015b60405180910390fd5b61073b6000898961133d565b506107486001878761133d565b50600993909355600b91909155600880546001600160a01b039283166001600160a01b0319918216179091556007805492909316911617905550505050565b6001805461049b9061169c565b336000908152600360205260408120805483919083906107b59084906116ed565b90915550506001600160a01b03831660008181526003602052604090819020805485019055513390600080516020611813833981519152906105779086815260200190565b33600090815260036020526040902054670de0b6b3a764000011156108585760405162461bcd60e51b8152602060048201526014602482015273494e53554646494349454e545f42414c414e434560601b6044820152606401610726565b600854610876906001600160a01b0316670de0b6b3a7640000610794565b506008546040516335313c2160e11b81523360048201526001600160a01b0390911690636a62784290602401600060405180830381600087803b1580156108bc57600080fd5b505af11580156108d0573d6000803e3d6000fd5b50506002546040519081523392507f4896181ff8f4543cc00db9fe9b6fb7e6f032b7eb772c72ab1ec1b4d2e03b9369915060200160405180910390a2565b4284101561095e5760405162461bcd60e51b815260206004820152601760248201527f5045524d49545f444541444c494e455f455850495245440000000000000000006044820152606401610726565b6000610968610668565b6001600160a01b0389811660008181526005602090815260409182902080546001810190915582517f6e71edae12b1b97f4d1f60370fef10105fa2faae0126114a169c64845d6126c98184015280840194909452938c166060840152608083018b905260a083019390935260c08083018a90528151808403909101815260e08301909152805192019190912061190160f01b6101008301526101028201929092526101228101919091526101420160408051601f198184030181528282528051602091820120600080855291840180845281905260ff88169284019290925260608301869052608083018590529092509060019060a0016020604051602081039080840390855afa158015610a81573d6000803e3d6000fd5b5050604051601f1901519150506001600160a01b03811615801590610ab75750886001600160a01b0316816001600160a01b0316145b610af45760405162461bcd60e51b815260206004820152600e60248201526d24a72b20a624a22fa9a4a3a722a960911b6044820152606401610726565b6001600160a01b0390811660009081526004602090815260408083208b8516808552908352928190208a905551898152919350918a16917f8c5be1e5ebec7d5bd14f71427d1e84f3dd0314c0f7b2291e5b200ac8c7c3b925910160405180910390a350505050505050565b60008211610ba55760405162461bcd60e51b81526020600482015260136024820152721253959053125117d4d1531317d05353d55395606a1b6044820152606401610726565b33600090815260036020526040902054821115610bfb5760405162461bcd60e51b8152602060048201526014602482015273494e53554646494349454e545f42414c414e434560601b6044820152606401610726565b6000600a5411610c4d5760405162461bcd60e51b815260206004820152601960248201527f494e53554646494349454e545f504f4f4c5f42414c414e4345000000000000006044820152606401610726565b60008111610c905760405162461bcd60e51b815260206004820152601060248201526f494e56414c49445f534c49505041474560801b6044820152606401610726565b600254600a546009546040516340e1d71d60e11b81526000936001600160a01b037f000000000000000000000000000000000000000000000000000000000000000016936381c3ae3a93610cfe93899060040193845260208401929092526040830152606082015260800190565b6020604051808303816000875af1158015610d1d573d6000803e3d6000fd5b505050506040513d601f19601f82011682018060405250810190610d419190611704565b90506000610d4e82611208565b90506000610d5c82846116ed565b905083811015610d995760405162461bcd60e51b8152602060048201526008602482015267534c49505041474560c01b6044820152606401610726565b610da3338661122b565b82600a6000828254610db591906116ed565b90915550610dc590503382611295565b600754610ddb906001600160a01b031683611295565b600a5460025460408051928352602083019190915281018690526060810184905233907f483f8aec0fd892ac72ad1ba8d0e9c9e73db59c12d263fd71de480b5b3deeae3c906080015b60405180910390a25050505050565b60003411610e735760405162461bcd60e51b815260206004820152600d60248201526c494e56414c49445f56414c554560981b6044820152606401610726565b60008111610eb65760405162461bcd60e51b815260206004820152601060248201526f494e56414c49445f534c49505041474560801b6044820152606401610726565b346000610ec282611208565b90506000610ed082846116ed565b9050600060025460001480610ee55750600a54155b156110035766038d7ea4c68000821015610f415760405162461bcd60e51b815260206004820152601a60248201527f494e53554646494349454e545f494e495449414c5f50524943450000000000006044820152606401610726565b6001600160a01b037f00000000000000000000000000000000000000000000000000000000000000001663ec6fd460610f8166038d7ea4c680008561171d565b6009546040516001600160e01b031960e085901b16815260048101929092526024820152604401602060405180830381865afa158015610fc5573d6000803e3d6000fd5b505050506040513d601f19601f82011682018060405250810190610fe99190611704565b9050610ffc8166038d7ea4c6800061173f565b90506110af565b600254600a5460095460405163257bb54960e21b8152600481019390935260248301919091526044820152606481018390526001600160a01b037f000000000000000000000000000000000000000000000000000000000000000016906395eed524906084016020604051808303816000875af1158015611088573d6000803e3d6000fd5b505050506040513d601f19601f820116820180604052508101906110ac9190611704565b90505b848110156110ea5760405162461bcd60e51b8152602060048201526008602482015267534c49505041474560c01b6044820152606401610726565b6110f433826112eb565b81600a6000828254611106919061175e565b9091555050600754611121906001600160a01b031684611295565b600a5460025460408051928352602083019190915281018290526060810183905233907f064fb1933e186be0b289a87e98518dc18cc9856ecbc9f1353d1a138ddf733ec590608001610e24565b60007f8b73c3c69bb8fe3d512ecc4cf759cc79239f7b179b0ffacaa9a75d522b39400f60006040516111a09190611776565b6040805191829003822060208301939093528101919091527fc89efdaa54c0f20c7adf612882df0950f5a951637e0307cdcb4c672f298b8bc660608201524660808201523060a082015260c00160405160208183030381529060405280519060200120905090565b6000612710600b548361121b919061173f565b611225919061171d565b92915050565b6001600160a01b038216600090815260036020526040812080548392906112539084906116ed565b90915550506002805482900390556040518181526000906001600160a01b03841690600080516020611813833981519152906020015b60405180910390a35050565b600080600080600085875af19050806112e65760405162461bcd60e51b815260206004820152601360248201527211551217d514905394d1915497d19052531151606a1b6044820152606401610726565b505050565b80600260008282546112fd919061175e565b90915550506001600160a01b0382166000818152600360209081526040808320805486019055518481526000805160206118138339815191529101611289565b8280546113499061169c565b90600052602060002090601f01602090048101928261136b57600085556113b1565b82601f106113845782800160ff198235161785556113b1565b828001600101855582156113b1579182015b828111156113b1578235825591602001919060010190611396565b506113bd9291506113c1565b5090565b5b808211156113bd57600081556001016113c2565b600060208083528351808285015260005b81811015611403578581018301518582016040015282016113e7565b81811115611415576000604083870101525b50601f01601f1916929092016040019392505050565b80356001600160a01b038116811461144257600080fd5b919050565b6000806040838503121561145a57600080fd5b6114638361142b565b946020939093013593505050565b60008060006060848603121561148657600080fd5b61148f8461142b565b925061149d6020850161142b565b9150604084013590509250925092565b6000602082840312156114bf57600080fd5b6114c88261142b565b9392505050565b60008083601f8401126114e157600080fd5b50813567ffffffffffffffff8111156114f957600080fd5b60208301915083602082850101111561151157600080fd5b9250929050565b60008060008060008060008060c0898b03121561153457600080fd5b883567ffffffffffffffff8082111561154c57600080fd5b6115588c838d016114cf565b909a50985060208b013591508082111561157157600080fd5b5061157e8b828c016114cf565b909750955050604089013593506060890135925061159e60808a0161142b565b91506115ac60a08a0161142b565b90509295985092959890939650565b600080600080600080600060e0888a0312156115d657600080fd5b6115df8861142b565b96506115ed6020890161142b565b95506040880135945060608801359350608088013560ff8116811461161157600080fd5b9699959850939692959460a0840135945060c09093013592915050565b6000806040838503121561164157600080fd5b50508035926020909101359150565b60006020828403121561166257600080fd5b5035919050565b6000806040838503121561167c57600080fd5b6116858361142b565b91506116936020840161142b565b90509250929050565b600181811c908216806116b057607f821691505b602082108114156116d157634e487b7160e01b600052602260045260246000fd5b50919050565b634e487b7160e01b600052601160045260246000fd5b6000828210156116ff576116ff6116d7565b500390565b60006020828403121561171657600080fd5b5051919050565b60008261173a57634e487b7160e01b600052601260045260246000fd5b500490565b6000816000190483118215151615611759576117596116d7565b500290565b60008219821115611771576117716116d7565b500190565b600080835481600182811c91508083168061179257607f831692505b60208084108214156117b257634e487b7160e01b86526022600452602486fd5b8180156117c657600181146117d757611804565b60ff19861689528489019650611804565b60008a81526020902060005b868110156117fc5781548b8201529085019083016117e3565b505084890196505b50949897505050505050505056feddf252ad1be2c89b69c2b068fc378daa952ba7f163c4a11628f55a4df523b3efa264697066735822122090579bb6d1bb8ef096e9edb044ceb8ad87fb06355478bbe964e4f56684ffce2e64736f6c634300080b003360a06040523480156200001157600080fd5b506040516200136738038062001367833981016040819052620000349162000159565b60405180604001604052806005815260200164566572736560d81b81525060405180604001604052806005815260200164564552534560d81b815250816000908051906020019062000088929190620000b3565b5080516200009e906001906020840190620000b3565b5050506001600160a01b0316608052620001c8565b828054620000c1906200018b565b90600052602060002090601f016020900481019282620000e5576000855562000130565b82601f106200010057805160ff191683800117855562000130565b8280016001018555821562000130579182015b828111156200013057825182559160200191906001019062000113565b506200013e92915062000142565b5090565b5b808211156200013e576000815560010162000143565b6000602082840312156200016c57600080fd5b81516001600160a01b03811681146200018457600080fd5b9392505050565b600181811c90821680620001a057607f821691505b60208210811415620001c257634e487b7160e01b600052602260045260246000fd5b50919050565b60805161117c620001eb6000396000818161028c0152610793015261117c6000f3fe608060405234801561001057600080fd5b50600436106101165760003560e01c80636c0360eb116100a2578063b88d4fde11610071578063b88d4fde14610274578063c45a015514610287578063c87b56dd146102ae578063d2f7265a146102c1578063e985e9c5146102d457600080fd5b80636c0360eb1461022357806370a082311461022b57806395d89b4114610259578063a22cb4651461026157600080fd5b806323b872dd116100e957806323b872dd146101ae57806342842e0e146101c15780635c6d8da1146101d45780636352211e146101e75780636a6278421461021057600080fd5b806301ffc9a71461011b57806306fdde0314610143578063081812fc14610158578063095ea7b314610199575b600080fd5b61012e610129366004610cf9565b610302565b60405190151581526020015b60405180910390f35b61014b610354565b60405161013a9190610d6a565b610181610166366004610d7d565b6004602052600090815260409020546001600160a01b031681565b6040516001600160a01b03909116815260200161013a565b6101ac6101a7366004610db2565b6103e2565b005b6101ac6101bc366004610ddc565b6104c9565b6101ac6101cf366004610ddc565b610690565b6101ac6101e2366004610e61565b610788565b6101816101f5366004610d7d565b6003602052600090815260409020546001600160a01b031681565b6101ac61021e366004610f0c565b61084f565b61014b6108ba565b61024b610239366004610f0c565b60026020526000908152604090205481565b60405190815260200161013a565b61014b6108c7565b6101ac61026f366004610f27565b6108d4565b6101ac610282366004610f79565b610940565b6101817f000000000000000000000000000000000000000000000000000000000000000081565b61014b6102bc366004610d7d565b610a25565b600654610181906001600160a01b031681565b61012e6102e2366004611055565b600560209081526000928352604080842090915290825290205460ff1681565b60006301ffc9a760e01b6001600160e01b03198316148061033357506380ac58cd60e01b6001600160e01b03198316145b8061034e5750635b5e139f60e01b6001600160e01b03198316145b92915050565b6000805461036190611088565b80601f016020809104026020016040519081016040528092919081815260200182805461038d90611088565b80156103da5780601f106103af576101008083540402835291602001916103da565b820191906000526020600020905b8154815290600101906020018083116103bd57829003601f168201915b505050505081565b6000818152600360205260409020546001600160a01b03163381148061042b57506001600160a01b038116600090815260056020908152604080832033845290915290205460ff165b61046d5760405162461bcd60e51b815260206004820152600e60248201526d1393d517d055551213d49256915160921b60448201526064015b60405180910390fd5b60008281526004602052604080822080546001600160a01b0319166001600160a01b0387811691821790925591518593918516917f8c5be1e5ebec7d5bd14f71427d1e84f3dd0314c0f7b2291e5b200ac8c7c3b92591a4505050565b6000818152600360205260409020546001600160a01b0384811691161461051f5760405162461bcd60e51b815260206004820152600a60248201526957524f4e475f46524f4d60b01b6044820152606401610464565b6001600160a01b0382166105695760405162461bcd60e51b81526020600482015260116024820152701253959053125117d49150d25412515395607a1b6044820152606401610464565b336001600160a01b038416148061059657506000818152600460205260409020546001600160a01b031633145b806105c457506001600160a01b038316600090815260056020908152604080832033845290915290205460ff165b6106015760405162461bcd60e51b815260206004820152600e60248201526d1393d517d055551213d49256915160921b6044820152606401610464565b6001600160a01b0380841660008181526002602090815260408083208054600019019055938616808352848320805460010190558583526003825284832080546001600160a01b03199081168317909155600490925284832080549092169091559251849392917fddf252ad1be2c89b69c2b068fc378daa952ba7f163c4a11628f55a4df523b3ef91a4505050565b61069b8383836104c9565b6001600160a01b0382163b15806107445750604051630a85bd0160e11b8082523360048301526001600160a01b03858116602484015260448301849052608060648401526000608484015290919084169063150b7a029060a4016020604051808303816000875af1158015610714573d6000803e3d6000fd5b505050506040513d601f19601f8201168201806040525081019061073891906110c3565b6001600160e01b031916145b6107835760405162461bcd60e51b815260206004820152601060248201526f155394d0519157d49150d2541251539560821b6044820152606401610464565b505050565b336001600160a01b037f000000000000000000000000000000000000000000000000000000000000000016146107ef5760405162461bcd60e51b815260206004820152600c60248201526b15539055551213d49256915160a21b6044820152606401610464565b6107fb60008888610c4a565b5061080860018686610c4a565b5061081560078484610c4a565b50600680546001600160a01b0319166001600160a01b03831617905560088054906000610841836110e0565b919050555050505050505050565b6006546001600160a01b031633146108985760405162461bcd60e51b815260206004820152600c60248201526b15539055551213d49256915160a21b6044820152606401610464565b600880546108b79183919060006108ae836110e0565b91905055610b3f565b50565b6007805461036190611088565b6001805461036190611088565b3360008181526005602090815260408083206001600160a01b03871680855290835292819020805460ff191686151590811790915590519081529192917f17307eab39ab6107e8899845ad3d59bd9653f200f220920489ca2b5937696c31910160405180910390a35050565b61094b8484846104c9565b6001600160a01b0383163b15806109e05750604051630a85bd0160e11b808252906001600160a01b0385169063150b7a0290610991903390899088908890600401611109565b6020604051808303816000875af11580156109b0573d6000803e3d6000fd5b505050506040513d601f19601f820116820180604052508101906109d491906110c3565b6001600160e01b031916145b610a1f5760405162461bcd60e51b815260206004820152601060248201526f155394d0519157d49150d2541251539560821b6044820152606401610464565b50505050565b6000818152600360205260409020546060906001600160a01b0316610a835760405162461bcd60e51b81526020600482015260146024820152731513d2d15397d113d154d7d393d517d1561254d560621b6044820152606401610464565b600060078054610a9290611088565b905011610aae576040518060200160405280600081525061034e565b60078054610abb90611088565b80601f0160208091040260200160405190810160405280929190818152602001828054610ae790611088565b8015610b345780601f10610b0957610100808354040283529160200191610b34565b820191906000526020600020905b815481529060010190602001808311610b1757829003601f168201915b505050505092915050565b6001600160a01b038216610b895760405162461bcd60e51b81526020600482015260116024820152701253959053125117d49150d25412515395607a1b6044820152606401610464565b6000818152600360205260409020546001600160a01b031615610bdf5760405162461bcd60e51b815260206004820152600e60248201526d1053149150511657d3525395115160921b6044820152606401610464565b6001600160a01b038216600081815260026020908152604080832080546001019055848352600390915280822080546001600160a01b0319168417905551839291907fddf252ad1be2c89b69c2b068fc378daa952ba7f163c4a11628f55a4df523b3ef908290a45050565b828054610c5690611088565b90600052602060002090601f016020900481019282610c785760008555610cbe565b82601f10610c915782800160ff19823516178555610cbe565b82800160010185558215610cbe579182015b82811115610cbe578235825591602001919060010190610ca3565b50610cca929150610cce565b5090565b5b80821115610cca5760008155600101610ccf565b6001600160e01b0319811681146108b757600080fd5b600060208284031215610d0b57600080fd5b8135610d1681610ce3565b9392505050565b6000815180845260005b81811015610d4357602081850181015186830182015201610d27565b81811115610d55576000602083870101525b50601f01601f19169290920160200192915050565b602081526000610d166020830184610d1d565b600060208284031215610d8f57600080fd5b5035919050565b80356001600160a01b0381168114610dad57600080fd5b919050565b60008060408385031215610dc557600080fd5b610dce83610d96565b946020939093013593505050565b600080600060608486031215610df157600080fd5b610dfa84610d96565b9250610e0860208501610d96565b9150604084013590509250925092565b60008083601f840112610e2a57600080fd5b50813567ffffffffffffffff811115610e4257600080fd5b602083019150836020828501011115610e5a57600080fd5b9250929050565b60008060008060008060006080888a031215610e7c57600080fd5b873567ffffffffffffffff80821115610e9457600080fd5b610ea08b838c01610e18565b909950975060208a0135915080821115610eb957600080fd5b610ec58b838c01610e18565b909750955060408a0135915080821115610ede57600080fd5b50610eeb8a828b01610e18565b9094509250610efe905060608901610d96565b905092959891949750929550565b600060208284031215610f1e57600080fd5b610d1682610d96565b60008060408385031215610f3a57600080fd5b610f4383610d96565b915060208301358015158114610f5857600080fd5b809150509250929050565b634e487b7160e01b600052604160045260246000fd5b60008060008060808587031215610f8f57600080fd5b610f9885610d96565b9350610fa660208601610d96565b925060408501359150606085013567ffffffffffffffff80821115610fca57600080fd5b818701915087601f830112610fde57600080fd5b813581811115610ff057610ff0610f63565b604051601f8201601f19908116603f0116810190838211818310171561101857611018610f63565b816040528281528a602084870101111561103157600080fd5b82602086016020830137600060208483010152809550505050505092959194509250565b6000806040838503121561106857600080fd5b61107183610d96565b915061107f60208401610d96565b90509250929050565b600181811c9082168061109c57607f821691505b602082108114156110bd57634e487b7160e01b600052602260045260246000fd5b50919050565b6000602082840312156110d557600080fd5b8151610d1681610ce3565b600060001982141561110257634e487b7160e01b600052601160045260246000fd5b5060010190565b6001600160a01b038581168252841660208201526040810183905260806060820181905260009061113c90830184610d1d565b969550505050505056fea264697066735822122035d200ae46d663fbdb85ab62148e3c562465b1a1ef969353bf3cdd4615dbdee064736f6c634300080b0033",
    "linkReferences": {}
  }
}