{
  "abi": [
    {
      "inputs": [],
      "stateMutability": "nonpayable",
      "type": "constructor"
    },
    {
      "inputs": [],
      "name": "initMaxExpArray",
      "outputs": [],
      "stateMutability": "nonpayable",
      "type": "function"
    }
  ],
  "bytecode": {
    "object": "0x608060405234801561001057600080fd5b5061073f6001641c35fedd1560601b036020556001646c3390ecc9605e1b036021556001640cf801476160611b0360225560016431bdb23e1d605f1b0360235560016502fb1d8fe083605b1b0360245560016505b771955b37605a1b036025556001650af67a93bb5160591b0360265560016515060c256cb360581b036027556001651428a2f98d7360581b036028556001654d515663970960561b03602955600165944620b0e70f60551b03602a55600166011c592761c66760541b03602b5560016602214d10d014eb60531b03602c55600166020ade36b7dbef60531b03602d5560016603eab73b3bbfe360521b03602e556001660782ee3593f6d760511b03602f556001661ccf4b44bb4821604f1b0360305560016606e7f88ad8a77760511b0360315560016669f3d1c921891d604d1b03603255600166cb2ff529eb71e5604c1b03603355600166c2d415c3db974b604c1b0360345560016702eb40f9f620fda7604a1b0360355560016705990681d961a1eb60491b03603655600167055e12902701414760491b0360375560016714962dee9dc9764160471b0360385560016704ef57b9b560fab560491b0360395560016712ed7b32a58f552b60471b03603a556001679131271922eaa60760441b03603b556001678b380f3558668c4760441b03603c556001680215f77c045fbe885760421b03603d556001600160831b03603e556001670f577eded5773a1160471b03603f556001680eb5ec597592befbf5603f1b036040556001681c35fedd14b861eb05603e1b036041556001683619c87664579bc94b603d1b0360425560016867c00a3b07ffc01fd7603c1b03604355600168c6f6c8f8739773a7a5603b1b03604455600168bec763f8209b7a72b1603b1b0360455560016902dbb8caad9b7097b91b60391b03604655600169057b3d49dda84556d6f760381b03604755600169054183095b2c8ececf3160381b036048556001690a14517cc6b9457111ef60371b0360495560016913545598e5c23276ccf160361b03604a556001692511882c39c3adea96ff60351b03604b55600169471649d87199aa99075760341b03604c557004429a21a029d4c1457cfbffffffffffff604d55700415bc6d6fb7dd71af2cb3ffffffffffff604e557003eab73b3bbfe282243ce1ffffffffffff604f557003c1771ac9fb6b4c18e229ffffffffffff605055700399e96897690418f785257fffffffffff605155700373fc456c53bb779bf0ea9fffffffffff60525570034f9e8e490c48e67e6ab8bfffffffffff60535570032cbfd4a7adc790560b3337ffffffffff60545570030b50570f6e5d2acca94613ffffffffff6055557002eb40f9f620fda6b56c2861ffffffffff6056557002cc8340ecb0d0f520a6af58ffffffffff6057557002af09481380a0a35cf1ba02ffffffffff605855700292c5bdd3b92ec810287b1b3fffffffff605955700277abdcdab07d5a77ac6d6b9fffffffff605a5570025daf6654b1eaa55fd64df5efffffffff605b55700244c49c648baa98192dce88b7ffffffff605c5570022ce03cd5619a311b2471268bffffffff605d55700215f77c045fbe885654a44a0fffffffff605e556001600160811b03605f557001eaefdbdaaee7421fc4d3ede5ffffffff6060557001d6bd8b2eb257df7e8ca57b09bfffffff6061557001c35fedd14b861eb0443f7f133fffffff6062557001b0ce43b322bcde4a56e8ada5afffffff60635570019f0028ec1fff007f5a195a39dfffffff60645570018ded91f0e72ee74f49b15ba527ffffff60655570017d8ec7f04136f4e5615fd41a63ffffff60665570016ddc6556cdb84bdc8d12d22e6fffffff60675570015ecf52776a1155b5bd8395814f7fffff60685570015060c256cb23b3b3cc3754cf40ffffff6069557001428a2f98d728ae223ddab715be3fffff606a5570013545598e5c23276ccf0ede68034fffff606b557001288c4161ce1d6f54b7f61081194fffff606c5570011c592761c666aa641d5a01a40f17ffff606d55700110a688680a7530515f3e6e6cfdcdffff606e557001056f1b5bedf75c6bcb2ce8aed428ffff606f556ffaadceceeff8a0890f3875f008277fff6070556ff05dc6b27edad306388a600f6ba0bfff6071556fe67a5a25da41063de1495d5b18cdbfff6072556fdcff115b14eedde6fc3aa5353f2e4fff6073556fd3e7a3924312399f9aae2e0f868f8fff6074556fcb2ff529eb71e41582cccd5a1ee26fff6075556fc2d415c3db974ab32a51840c0b67edff6076556fbad03e7d883f69ad5b0a186184e06bff6077556fb320d03b2c343d4829abd6075f0cc5ff6078556fabc25204e02828d73c6e80bcdb1a95bf6079556fa4b16f74ee4bb2040a1ec6c15fbbf2df607a556f9deaf736ac1f569deb1b5ae3f36c130f607b556f976bd9952c7aa957f5937d790ef65037607c556f9131271922eaa6064b73a22d0bd4f2bf607d556f8b380f3558668c46c91c49a2f8e967b9607e556f857ddf0117efa215952912839f6473e6607f55565b61083d8061074e6000396000f3fe608060405234801561001057600080fd5b506004361061002b5760003560e01c8063aa248a4614610030575b600080fd5b610805701c35fedd14ffffffffffffffffffffffff602055701b0ce43b323fffffffffffffffffffffff6021557019f0028ec1ffffffffffffffffffffffff6022557018ded91f0e7fffffffffffffffffffffff6023557017d8ec7f0417ffffffffffffffffffffff6024557016ddc6556cdbffffffffffffffffffffff6025557015ecf52776a1ffffffffffffffffffffff6026557015060c256cb2ffffffffffffffffffffff602755701428a2f98d72ffffffffffffffffffffff6028557013545598e5c23fffffffffffffffffffff602955701288c4161ce1dfffffffffffffffffffff602a557011c592761c666fffffffffffffffffffff602b5570110a688680a757ffffffffffffffffffff602c55701056f1b5bedf77ffffffffffffffffffff602d55700faadceceeff8bffffffffffffffffffff602e55700f05dc6b27edadffffffffffffffffffff602f55700e67a5a25da4107fffffffffffffffffff603055700dcff115b14eedffffffffffffffffffff603155700d3e7a392431239fffffffffffffffffff603255700cb2ff529eb71e4fffffffffffffffffff603355700c2d415c3db974afffffffffffffffffff603455700bad03e7d883f69bffffffffffffffffff603555700b320d03b2c343d5ffffffffffffffffff603655700abc25204e02828dffffffffffffffffff603755700a4b16f74ee4bb207fffffffffffffffff6038557009deaf736ac1f569ffffffffffffffffff603955700976bd9952c7aa957fffffffffffffffff603a557009131271922eaa606fffffffffffffffff603b557008b380f3558668c46fffffffffffffffff603c55700857ddf0117efa215bffffffffffffffff603d557007ffffffffffffffffffffffffffffffff603e557007abbf6f6abb9d087fffffffffffffffff603f5570075af62cbac95f7dfa7fffffffffffffff60405570070d7fb7452e187ac13fffffffffffffff6041557006c3390ecc8af379295fffffffffffffff60425570067c00a3b07ffc01fd6fffffffffffffff604355700637b647c39cbb9d3d27ffffffffffffff6044557005f63b1fc104dbd39587ffffffffffffff6045557005b771955b36e12f7235ffffffffffffff60465570057b3d49dda84556d6f6ffffffffffffff60475570054183095b2c8ececf30ffffffffffffff60485570050a28be635ca2b888f77fffffffffffff6049557004d5156639708c9db33c3fffffffffffff604a557004a23105873875bd52dfdfffffffffffff604b55700471649d87199aa990756fffffffffffff604c557004429a21a029d4c1457cfbffffffffffff604d55700415bc6d6fb7dd71af2cb3ffffffffffff604e557003eab73b3bbfe282243ce1ffffffffffff604f557003c1771ac9fb6b4c18e229ffffffffffff605055700399e96897690418f785257fffffffffff605155700373fc456c53bb779bf0ea9fffffffffff60525570034f9e8e490c48e67e6ab8bfffffffffff60535570032cbfd4a7adc790560b3337ffffffffff60545570030b50570f6e5d2acca94613ffffffffff6055557002eb40f9f620fda6b56c2861ffffffffff6056557002cc8340ecb0d0f520a6af58ffffffffff6057557002af09481380a0a35cf1ba02ffffffffff605855700292c5bdd3b92ec810287b1b3fffffffff605955700277abdcdab07d5a77ac6d6b9fffffffff605a5570025daf6654b1eaa55fd64df5efffffffff605b55700244c49c648baa98192dce88b7ffffffff605c5570022ce03cd5619a311b2471268bffffffff605d55700215f77c045fbe885654a44a0fffffffff605e557001ffffffffffffffffffffffffffffffff605f557001eaefdbdaaee7421fc4d3ede5ffffffff6060557001d6bd8b2eb257df7e8ca57b09bfffffff6061557001c35fedd14b861eb0443f7f133fffffff6062557001b0ce43b322bcde4a56e8ada5afffffff60635570019f0028ec1fff007f5a195a39dfffffff60645570018ded91f0e72ee74f49b15ba527ffffff60655570017d8ec7f04136f4e5615fd41a63ffffff60665570016ddc6556cdb84bdc8d12d22e6fffffff60675570015ecf52776a1155b5bd8395814f7fffff60685570015060c256cb23b3b3cc3754cf40ffffff6069557001428a2f98d728ae223ddab715be3fffff606a5570013545598e5c23276ccf0ede68034fffff606b557001288c4161ce1d6f54b7f61081194fffff606c5570011c592761c666aa641d5a01a40f17ffff606d55700110a688680a7530515f3e6e6cfdcdffff606e557001056f1b5bedf75c6bcb2ce8aed428ffff606f556ffaadceceeff8a0890f3875f008277fff6070556ff05dc6b27edad306388a600f6ba0bfff6071556fe67a5a25da41063de1495d5b18cdbfff6072556fdcff115b14eedde6fc3aa5353f2e4fff6073556fd3e7a3924312399f9aae2e0f868f8fff6074556fcb2ff529eb71e41582cccd5a1ee26fff6075556fc2d415c3db974ab32a51840c0b67edff6076556fbad03e7d883f69ad5b0a186184e06bff6077556fb320d03b2c343d4829abd6075f0cc5ff6078556fabc25204e02828d73c6e80bcdb1a95bf6079556fa4b16f74ee4bb2040a1ec6c15fbbf2df607a556f9deaf736ac1f569deb1b5ae3f36c130f607b556f976bd9952c7aa957f5937d790ef65037607c556f9131271922eaa6064b73a22d0bd4f2bf607d556f8b380f3558668c46c91c49a2f8e967b9607e556f857ddf0117efa215952912839f6473e6607f55565b00fea2646970667358221220a50bbe0082a59542825248372b7c314213b6b5cb4169b30c7f26f6b8f76f5df564736f6c634300080b0033",
    "linkReferences": {}
  }
}