{
  "abi": [
    {
      "inputs": [
        {
          "internalType": "address",
          "name": "_factory",
          "type": "address"
        },
        {
          "internalType": "address",
          "name": "_bondingCurve",
          "type": "address"
        }
      ],
      "stateMutability": "nonpayable",
      "type": "constructor"
    },
    {
      "anonymous": false,
      "inputs": [
        {
          "indexed": true,
          "internalType": "address",
          "name": "owner",
          "type": "address"
        },
        {
          "indexed": true,
          "internalType": "address",
          "name": "spender",
          "type": "address"
        },
        {
          "indexed": false,
          "internalType": "uint256",
          "name": "amount",
          "type": "uint256"
        }
      ],
      "name": "Approval",
      "type": "event"
    },
    {
      "anonymous": false,
      "inputs": [
        {
          "indexed": true,
          "internalType": "address",
          "name": "buyer",
          "type": "address"
        },
        {
          "indexed": false,
          "internalType": "uint256",
          "name": "poolBalance",
          "type": "uint256"
        },
        {
          "indexed": false,
          "internalType": "uint256",
          "name": "totalSupply",
          "type": "uint256"
        },
        {
          "indexed": false,
          "internalType": "uint256",
          "name": "tokens",
          "type": "uint256"
        },
        {
          "indexed": false,
          "internalType": "uint256",
          "name": "price",
          "type": "uint256"
        }
      ],
      "name": "Buy",
      "type": "event"
    },
    {
      "anonymous": false,
      "inputs": [
        {
          "indexed": true,
          "internalType": "address",
          "name": "redeemer",
          "type": "address"
        }
      ],
      "name": "Redeem",
      "type": "event"
    },
    {
      "anonymous": false,
      "inputs": [
        {
          "indexed": true,
          "internalType": "address",
          "name": "seller",
          "type": "address"
        },
        {
          "indexed": false,
          "internalType": "uint256",
          "name": "poolBalance",
          "type": "uint256"
        },
        {
          "indexed": false,
          "internalType": "uint256",
          "name": "totalSupply",
          "type": "uint256"
        },
        {
          "indexed": false,
          "internalType": "uint256",
          "name": "tokens",
          "type": "uint256"
        },
        {
          "indexed": false,
          "internalType": "uint256",
          "name": "eth",
          "type": "uint256"
        }
      ],
      "name": "Sell",
      "type": "event"
    },
    {
      "anonymous": false,
      "inputs": [
        {
          "indexed": true,
          "internalType": "address",
          "name": "from",
          "type": "address"
        },
        {
          "indexed": true,
          "internalType": "address",
          "name": "to",
          "type": "address"
        },
        {
          "indexed": false,
          "internalType": "uint256",
          "name": "amount",
          "type": "uint256"
        }
      ],
      "name": "Transfer",
      "type": "event"
    },
    {
      "inputs": [],
      "name": "DOMAIN_SEPARATOR",
      "outputs": [
        {
          "internalType": "bytes32",
          "name": "",
          "type": "bytes32"
        }
      ],
      "stateMutability": "view",
      "type": "function"
    },
    {
      "inputs": [
        {
          "internalType": "address",
          "name": "",
          "type": "address"
        },
        {
          "internalType": "address",
          "name": "",
          "type": "address"
        }
      ],
      "name": "allowance",
      "outputs": [
        {
          "internalType": "uint256",
          "name": "",
          "type": "uint256"
        }
      ],
      "stateMutability": "view",
      "type": "function"
    },
    {
      "inputs": [
        {
          "internalType": "address",
          "name": "spender",
          "type": "address"
        },
        {
          "internalType": "uint256",
          "name": "amount",
          "type": "uint256"
        }
      ],
      "name": "approve",
      "outputs": [
        {
          "internalType": "bool",
          "name": "",
          "type": "bool"
        }
      ],
      "stateMutability": "nonpayable",
      "type": "function"
    },
    {
      "inputs": [
        {
          "internalType": "address",
          "name": "",
          "type": "address"
        }
      ],
      "name": "balanceOf",
      "outputs": [
        {
          "internalType": "uint256",
          "name": "",
          "type": "uint256"
        }
      ],
      "stateMutability": "view",
      "type": "function"
    },
    {
      "inputs": [],
      "name": "bondingCurve",
      "outputs": [
        {
          "internalType": "address",
          "name": "",
          "type": "address"
        }
      ],
      "stateMutability": "view",
      "type": "function"
    },
    {
      "inputs": [
        {
          "internalType": "uint256",
          "name": "_minTokensReturned",
          "type": "uint256"
        }
      ],
      "name": "buy",
      "outputs": [],
      "stateMutability": "payable",
      "type": "function"
    },
    {
      "inputs": [],
      "name": "creator",
      "outputs": [
        {
          "internalType": "address",
          "name": "",
          "type": "address"
        }
      ],
      "stateMutability": "view",
      "type": "function"
    },
    {
      "inputs": [],
      "name": "cryptomedia",
      "outputs": [
        {
          "internalType": "address",
          "name": "",
          "type": "address"
        }
      ],
      "stateMutability": "view",
      "type": "function"
    },
    {
      "inputs": [],
      "name": "decimals",
      "outputs": [
        {
          "internalType": "uint8",
          "name": "",
          "type": "uint8"
        }
      ],
      "stateMutability": "view",
      "type": "function"
    },
    {
      "inputs": [],
      "name": "factory",
      "outputs": [
        {
          "internalType": "address",
          "name": "",
          "type": "address"
        }
      ],
      "stateMutability": "view",
      "type": "function"
    },
    {
      "inputs": [
        {
          "internalType": "string",
          "name": "_name",
          "type": "string"
        },
        {
          "internalType": "string",
          "name": "_symbol",
          "type": "string"
        },
        {
          "internalType": "uint256",
          "name": "_reserveRatio",
          "type": "uint256"
        },
        {
          "internalType": "uint256",
          "name": "_transactionShare",
          "type": "uint256"
        },
        {
          "internalType": "address",
          "name": "_cryptomedia",
          "type": "address"
        },
        {
          "internalType": "address",
          "name": "_creator",
          "type": "address"
        }
      ],
      "name": "initialize",
      "outputs": [],
      "stateMutability": "nonpayable",
      "type": "function"
    },
    {
      "inputs": [],
      "name": "name",
      "outputs": [
        {
          "internalType": "string",
          "name": "",
          "type": "string"
        }
      ],
      "stateMutability": "view",
      "type": "function"
    },
    {
      "inputs": [
        {
          "internalType": "address",
          "name": "",
          "type": "address"
        }
      ],
      "name": "nonces",
      "outputs": [
        {
          "internalType": "uint256",
          "name": "",
          "type": "uint256"
        }
      ],
      "stateMutability": "view",
      "type": "function"
    },
    {
      "inputs": [
        {
          "internalType": "address",
          "name": "owner",
          "type": "address"
        },
        {
          "internalType": "address",
          "name": "spender",
          "type": "address"
        },
        {
          "internalType": "uint256",
          "name": "value",
          "type": "uint256"
        },
        {
          "internalType": "uint256",
          "name": "deadline",
          "type": "uint256"
        },
        {
          "internalType": "uint8",
          "name": "v",
          "type": "uint8"
        },
        {
          "internalType": "bytes32",
          "name": "r",
          "type": "bytes32"
        },
        {
          "internalType": "bytes32",
          "name": "s",
          "type": "bytes32"
        }
      ],
      "name": "permit",
      "outputs": [],
      "stateMutability": "nonpayable",
      "type": "function"
    },
    {
      "inputs": [],
      "name": "poolBalance",
      "outputs": [
        {
          "internalType": "uint256",
          "name": "",
          "type": "uint256"
        }
      ],
      "stateMutability": "view",
      "type": "function"
    },
    {
      "inputs": [],
      "name": "redeem",
      "outputs": [],
      "stateMutability": "nonpayable",
      "type": "function"
    },
    {
      "inputs": [],
      "name": "reserveRatio",
      "outputs": [
        {
          "internalType": "uint256",
          "name": "",
          "type": "uint256"
        }
      ],
      "stateMutability": "view",
      "type": "function"
    },
    {
      "inputs": [
        {
          "internalType": "uint256",
          "name": "_tokens",
          "type": "uint256"
        },
        {
          "internalType": "uint256",
          "name": "_minETHReturned",
          "type": "uint256"
        }
      ],
      "name": "sell",
      "outputs": [],
      "stateMutability": "nonpayable",
      "type": "function"
    },
    {
      "inputs": [],
      "name": "symbol",
      "outputs": [
        {
          "internalType": "string",
          "name": "",
          "type": "string"
        }
      ],
      "stateMutability": "view",
      "type": "function"
    },
    {
      "inputs": [],
      "name": "totalSupply",
      "outputs": [
        {
          "internalType": "uint256",
          "name": "",
          "type": "uint256"
        }
      ],
      "stateMutability": "view",
      "type": "function"
    },
    {
      "inputs": [],
      "name": "transactionShare",
      "outputs": [
        {
          "internalType": "uint256",
          "name": "",
          "type": "uint256"
        }
      ],
      "stateMutability": "view",
      "type": "function"
    },
    {
      "inputs": [
        {
          "internalType": "address",
          "name": "to",
          "type": "address"
        },
        {
          "internalType": "uint256",
          "name": "amount",
          "type": "uint256"
        }
      ],
      "name": "transfer",
      "outputs": [
        {
          "internalType": "bool",
          "name": "",
          "type": "bool"
        }
      ],
      "stateMutability": "nonpayable",
      "type": "function"
    },
    {
      "inputs": [
        {
          "internalType": "address",
          "name": "from",
          "type": "address"
        },
        {
          "internalType": "address",
          "name": "to",
          "type": "address"
        },
        {
          "internalType": "uint256",
          "name": "amount",
          "type": "uint256"
        }
      ],
      "name": "transferFrom",
      "outputs": [
        {
          "internalType": "bool",
          "name": "",
          "type": "bool"
        }
      ],
      "stateMutability": "nonpayable",
      "type": "function"
    }
  ],
  "bytecode": {
    "object": "0x61012060405260016006553480156200001757600080fd5b5060405162001c0f38038062001c0f8339810160408190526200003a916200023a565b60405180604001604052806005815260200164566572736560d81b81525060405180604001604052806005815260200164564552534560d81b815250601282600090805190602001906200009092919062000177565b508151620000a690600190602085019062000177565b5060ff81166080524660a052620000bc620000db565b60c0525050506001600160a01b0391821660e052166101005262000353565b60007f8b73c3c69bb8fe3d512ecc4cf759cc79239f7b179b0ffacaa9a75d522b39400f60006040516200010f9190620002af565b6040805191829003822060208301939093528101919091527fc89efdaa54c0f20c7adf612882df0950f5a951637e0307cdcb4c672f298b8bc660608201524660808201523060a082015260c00160405160208183030381529060405280519060200120905090565b828054620001859062000272565b90600052602060002090601f016020900481019282620001a95760008555620001f4565b82601f10620001c457805160ff1916838001178555620001f4565b82800160010185558215620001f4579182015b82811115620001f4578251825591602001919060010190620001d7565b506200020292915062000206565b5090565b5b8082111562000202576000815560010162000207565b80516001600160a01b03811681146200023557600080fd5b919050565b600080604083850312156200024e57600080fd5b62000259836200021d565b915062000269602084016200021d565b90509250929050565b600181811c908216806200028757607f821691505b60208210811415620002a957634e487b7160e01b600052602260045260246000fd5b50919050565b600080835481600182811c915080831680620002cc57607f831692505b6020808410821415620002ed57634e487b7160e01b86526022600452602486fd5b818015620003045760018114620003165762000345565b60ff1986168952848901965062000345565b60008a81526020902060005b868110156200033d5781548b82015290850190830162000322565b505084890196505b509498975050505050505050565b60805160a05160c05160e0516101005161185b620003b46000396000818161045601528181610ca601528181610f3e015261103201526000818161039701526106ce015260006106a10152600061066c01526000610240015261185b6000f3fe6080604052600436106101405760003560e01c806395d89b41116100b6578063d505accf1161006f578063d505accf146103b9578063d79875eb146103d9578063d96a094a146103f9578063dd62ed3e1461040c578063eff1d50e14610444578063f4021e3d1461047857600080fd5b806395d89b411461030557806396365d441461031a578063a9059cbb14610330578063ad8c867314610350578063be040fb014610370578063c45a01551461038557600080fd5b806323b872dd1161010857806323b872dd1461020e578063313ce5671461022e5780633644e5151461027457806370a0823114610289578063767ab122146102b65780637ecebe00146102d857600080fd5b806302d05d3f1461014557806306fdde0314610182578063095ea7b3146101a45780630c7d5cd8146101d457806318160ddd146101f8575b600080fd5b34801561015157600080fd5b50600754610165906001600160a01b031681565b6040516001600160a01b0390911681526020015b60405180910390f35b34801561018e57600080fd5b5061019761048e565b60405161017991906113c9565b3480156101b057600080fd5b506101c46101bf36600461143a565b61051c565b6040519015158152602001610179565b3480156101e057600080fd5b506101ea60095481565b604051908152602001610179565b34801561020457600080fd5b506101ea60025481565b34801561021a57600080fd5b506101c4610229366004611464565b610588565b34801561023a57600080fd5b506102627f000000000000000000000000000000000000000000000000000000000000000081565b60405160ff9091168152602001610179565b34801561028057600080fd5b506101ea610668565b34801561029557600080fd5b506101ea6102a43660046114a0565b60036020526000908152604090205481565b3480156102c257600080fd5b506102d66102d136600461150b565b6106c3565b005b3480156102e457600080fd5b506101ea6102f33660046114a0565b60056020526000908152604090205481565b34801561031157600080fd5b50610197610787565b34801561032657600080fd5b506101ea600a5481565b34801561033c57600080fd5b506101c461034b36600461143a565b610794565b34801561035c57600080fd5b50600854610165906001600160a01b031681565b34801561037c57600080fd5b506102d66107fa565b34801561039157600080fd5b506101657f000000000000000000000000000000000000000000000000000000000000000081565b3480156103c557600080fd5b506102d66103d43660046115ae565b610901565b3480156103e557600080fd5b506102d66103f4366004611621565b610b52565b6102d6610407366004611643565b610e26565b34801561041857600080fd5b506101ea61042736600461165c565b600460209081526000928352604080842090915290825290205481565b34801561045057600080fd5b506101657f000000000000000000000000000000000000000000000000000000000000000081565b34801561048457600080fd5b506101ea600b5481565b6000805461049b9061168f565b80601f01602080910402602001604051908101604052809291908181526020018280546104c79061168f565b80156105145780601f106104e957610100808354040283529160200191610514565b820191906000526020600020905b8154815290600101906020018083116104f757829003601f168201915b505050505081565b3360008181526004602090815260408083206001600160a01b038716808552925280832085905551919290917f8c5be1e5ebec7d5bd14f71427d1e84f3dd0314c0f7b2291e5b200ac8c7c3b925906105779086815260200190565b60405180910390a350600192915050565b6001600160a01b038316600090815260046020908152604080832033845290915281205460001981146105e4576105bf83826116e0565b6001600160a01b03861660009081526004602090815260408083203384529091529020555b6001600160a01b0385166000908152600360205260408120805485929061060c9084906116e0565b90915550506001600160a01b0380851660008181526003602052604090819020805487019055519091871690600080516020611806833981519152906106559087815260200190565b60405180910390a3506001949350505050565b60007f0000000000000000000000000000000000000000000000000000000000000000461461069e57610699611161565b905090565b507f000000000000000000000000000000000000000000000000000000000000000090565b336001600160a01b037f0000000000000000000000000000000000000000000000000000000000000000161461072f5760405162461bcd60e51b815260206004820152600c60248201526b15539055551213d49256915160a21b60448201526064015b60405180910390fd5b61073b60008989611330565b5061074860018787611330565b50600993909355600b91909155600880546001600160a01b039283166001600160a01b0319918216179091556007805492909316911617905550505050565b6001805461049b9061168f565b336000908152600360205260408120805483919083906107b59084906116e0565b90915550506001600160a01b03831660008181526003602052604090819020805485019055513390600080516020611806833981519152906105779086815260200190565b33600090815260036020526040902054670de0b6b3a764000011156108585760405162461bcd60e51b8152602060048201526014602482015273494e53554646494349454e545f42414c414e434560601b6044820152606401610726565b600854610876906001600160a01b0316670de0b6b3a7640000610794565b506008546040516335313c2160e11b81523360048201526001600160a01b0390911690636a62784290602401600060405180830381600087803b1580156108bc57600080fd5b505af11580156108d0573d6000803e3d6000fd5b50506040513392507fd1b5ea7fe0f1c2fa09d49c2aa9b2200664ba57a734f1d95481d95b7f99af991c9150600090a2565b428410156109515760405162461bcd60e51b815260206004820152601760248201527f5045524d49545f444541444c494e455f455850495245440000000000000000006044820152606401610726565b600061095b610668565b6001600160a01b0389811660008181526005602090815260409182902080546001810190915582517f6e71edae12b1b97f4d1f60370fef10105fa2faae0126114a169c64845d6126c98184015280840194909452938c166060840152608083018b905260a083019390935260c08083018a90528151808403909101815260e08301909152805192019190912061190160f01b6101008301526101028201929092526101228101919091526101420160408051601f198184030181528282528051602091820120600080855291840180845281905260ff88169284019290925260608301869052608083018590529092509060019060a0016020604051602081039080840390855afa158015610a74573d6000803e3d6000fd5b5050604051601f1901519150506001600160a01b03811615801590610aaa5750886001600160a01b0316816001600160a01b0316145b610ae75760405162461bcd60e51b815260206004820152600e60248201526d24a72b20a624a22fa9a4a3a722a960911b6044820152606401610726565b6001600160a01b0390811660009081526004602090815260408083208b8516808552908352928190208a905551898152919350918a16917f8c5be1e5ebec7d5bd14f71427d1e84f3dd0314c0f7b2291e5b200ac8c7c3b925910160405180910390a350505050505050565b60008211610b985760405162461bcd60e51b81526020600482015260136024820152721253959053125117d4d1531317d05353d55395606a1b6044820152606401610726565b33600090815260036020526040902054821115610bee5760405162461bcd60e51b8152602060048201526014602482015273494e53554646494349454e545f42414c414e434560601b6044820152606401610726565b6000600a5411610c405760405162461bcd60e51b815260206004820152601960248201527f494e53554646494349454e545f504f4f4c5f42414c414e4345000000000000006044820152606401610726565b60008111610c835760405162461bcd60e51b815260206004820152601060248201526f494e56414c49445f534c49505041474560801b6044820152606401610726565b600254600a546009546040516340e1d71d60e11b81526000936001600160a01b037f000000000000000000000000000000000000000000000000000000000000000016936381c3ae3a93610cf193899060040193845260208401929092526040830152606082015260800190565b6020604051808303816000875af1158015610d10573d6000803e3d6000fd5b505050506040513d601f19601f82011682018060405250810190610d3491906116f7565b90506000610d41826111fb565b90506000610d4f82846116e0565b905083811015610d8c5760405162461bcd60e51b8152602060048201526008602482015267534c49505041474560c01b6044820152606401610726565b610d96338661121e565b82600a6000828254610da891906116e0565b90915550610db890503382611288565b600754610dce906001600160a01b031683611288565b600a5460025460408051928352602083019190915281018690526060810184905233907f483f8aec0fd892ac72ad1ba8d0e9c9e73db59c12d263fd71de480b5b3deeae3c906080015b60405180910390a25050505050565b60003411610e665760405162461bcd60e51b815260206004820152600d60248201526c494e56414c49445f56414c554560981b6044820152606401610726565b60008111610ea95760405162461bcd60e51b815260206004820152601060248201526f494e56414c49445f534c49505041474560801b6044820152606401610726565b346000610eb5826111fb565b90506000610ec382846116e0565b9050600060025460001480610ed85750600a54155b15610ff65766038d7ea4c68000821015610f345760405162461bcd60e51b815260206004820152601a60248201527f494e53554646494349454e545f494e495449414c5f50524943450000000000006044820152606401610726565b6001600160a01b037f00000000000000000000000000000000000000000000000000000000000000001663ec6fd460610f7466038d7ea4c6800085611710565b6009546040516001600160e01b031960e085901b16815260048101929092526024820152604401602060405180830381865afa158015610fb8573d6000803e3d6000fd5b505050506040513d601f19601f82011682018060405250810190610fdc91906116f7565b9050610fef8166038d7ea4c68000611732565b90506110a2565b600254600a5460095460405163257bb54960e21b8152600481019390935260248301919091526044820152606481018390526001600160a01b037f000000000000000000000000000000000000000000000000000000000000000016906395eed524906084016020604051808303816000875af115801561107b573d6000803e3d6000fd5b505050506040513d601f19601f8201168201806040525081019061109f91906116f7565b90505b848110156110dd5760405162461bcd60e51b8152602060048201526008602482015267534c49505041474560c01b6044820152606401610726565b6110e733826112de565b81600a60008282546110f99190611751565b9091555050600754611114906001600160a01b031684611288565b600a5460025460408051928352602083019190915281018290526060810183905233907f064fb1933e186be0b289a87e98518dc18cc9856ecbc9f1353d1a138ddf733ec590608001610e17565b60007f8b73c3c69bb8fe3d512ecc4cf759cc79239f7b179b0ffacaa9a75d522b39400f60006040516111939190611769565b6040805191829003822060208301939093528101919091527fc89efdaa54c0f20c7adf612882df0950f5a951637e0307cdcb4c672f298b8bc660608201524660808201523060a082015260c00160405160208183030381529060405280519060200120905090565b6000612710600b548361120e9190611732565b6112189190611710565b92915050565b6001600160a01b038216600090815260036020526040812080548392906112469084906116e0565b90915550506002805482900390556040518181526000906001600160a01b03841690600080516020611806833981519152906020015b60405180910390a35050565b600080600080600085875af19050806112d95760405162461bcd60e51b815260206004820152601360248201527211551217d514905394d1915497d19052531151606a1b6044820152606401610726565b505050565b80600260008282546112f09190611751565b90915550506001600160a01b038216600081815260036020908152604080832080548601905551848152600080516020611806833981519152910161127c565b82805461133c9061168f565b90600052602060002090601f01602090048101928261135e57600085556113a4565b82601f106113775782800160ff198235161785556113a4565b828001600101855582156113a4579182015b828111156113a4578235825591602001919060010190611389565b506113b09291506113b4565b5090565b5b808211156113b057600081556001016113b5565b600060208083528351808285015260005b818110156113f6578581018301518582016040015282016113da565b81811115611408576000604083870101525b50601f01601f1916929092016040019392505050565b80356001600160a01b038116811461143557600080fd5b919050565b6000806040838503121561144d57600080fd5b6114568361141e565b946020939093013593505050565b60008060006060848603121561147957600080fd5b6114828461141e565b92506114906020850161141e565b9150604084013590509250925092565b6000602082840312156114b257600080fd5b6114bb8261141e565b9392505050565b60008083601f8401126114d457600080fd5b50813567ffffffffffffffff8111156114ec57600080fd5b60208301915083602082850101111561150457600080fd5b9250929050565b60008060008060008060008060c0898b03121561152757600080fd5b883567ffffffffffffffff8082111561153f57600080fd5b61154b8c838d016114c2565b909a50985060208b013591508082111561156457600080fd5b506115718b828c016114c2565b909750955050604089013593506060890135925061159160808a0161141e565b915061159f60a08a0161141e565b90509295985092959890939650565b600080600080600080600060e0888a0312156115c957600080fd5b6115d28861141e565b96506115e06020890161141e565b95506040880135945060608801359350608088013560ff8116811461160457600080fd5b9699959850939692959460a0840135945060c09093013592915050565b6000806040838503121561163457600080fd5b50508035926020909101359150565b60006020828403121561165557600080fd5b5035919050565b6000806040838503121561166f57600080fd5b6116788361141e565b91506116866020840161141e565b90509250929050565b600181811c908216806116a357607f821691505b602082108114156116c457634e487b7160e01b600052602260045260246000fd5b50919050565b634e487b7160e01b600052601160045260246000fd5b6000828210156116f2576116f26116ca565b500390565b60006020828403121561170957600080fd5b5051919050565b60008261172d57634e487b7160e01b600052601260045260246000fd5b500490565b600081600019048311821515161561174c5761174c6116ca565b500290565b60008219821115611764576117646116ca565b500190565b600080835481600182811c91508083168061178557607f831692505b60208084108214156117a557634e487b7160e01b86526022600452602486fd5b8180156117b957600181146117ca576117f7565b60ff198616895284890196506117f7565b60008a81526020902060005b868110156117ef5781548b8201529085019083016117d6565b505084890196505b50949897505050505050505056feddf252ad1be2c89b69c2b068fc378daa952ba7f163c4a11628f55a4df523b3efa26469706673582212200f720eaf54628641a9a705b864a99f0005383d16edfde8c55d02d8792a61070764736f6c634300080b0033",
    "linkReferences": {}
  }
}