{
  "abi": [
    {
      "inputs": [
        {
          "internalType": "address",
          "name": "_factory",
          "type": "address"
        },
        {
          "internalType": "address",
          "name": "_bondingCurve",
          "type": "address"
        }
      ],
      "stateMutability": "nonpayable",
      "type": "constructor"
    },
    {
      "inputs": [],
      "name": "InsufficientBalance",
      "type": "error"
    },
    {
      "inputs": [],
      "name": "InsufficientInitialPrice",
      "type": "error"
    },
    {
      "inputs": [],
      "name": "InsufficientPoolBalance",
      "type": "error"
    },
    {
      "inputs": [],
      "name": "InvalidSellAmount",
      "type": "error"
    },
    {
      "inputs": [],
      "name": "InvalidSlippage",
      "type": "error"
    },
    {
      "inputs": [],
      "name": "InvalidValue",
      "type": "error"
    },
    {
      "inputs": [],
      "name": "Slippage",
      "type": "error"
    },
    {
      "inputs": [],
      "name": "Unauthorized",
      "type": "error"
    },
    {
      "anonymous": false,
      "inputs": [
        {
          "indexed": true,
          "internalType": "address",
          "name": "owner",
          "type": "address"
        },
        {
          "indexed": true,
          "internalType": "address",
          "name": "spender",
          "type": "address"
        },
        {
          "indexed": false,
          "internalType": "uint256",
          "name": "amount",
          "type": "uint256"
        }
      ],
      "name": "Approval",
      "type": "event"
    },
    {
      "anonymous": false,
      "inputs": [
        {
          "indexed": true,
          "internalType": "address",
          "name": "buyer",
          "type": "address"
        },
        {
          "indexed": false,
          "internalType": "uint256",
          "name": "poolBalance",
          "type": "uint256"
        },
        {
          "indexed": false,
          "internalType": "uint256",
          "name": "totalSupply",
          "type": "uint256"
        },
        {
          "indexed": false,
          "internalType": "uint256",
          "name": "tokens",
          "type": "uint256"
        },
        {
          "indexed": false,
          "internalType": "uint256",
          "name": "price",
          "type": "uint256"
        }
      ],
      "name": "Buy",
      "type": "event"
    },
    {
      "anonymous": false,
      "inputs": [
        {
          "indexed": true,
          "internalType": "address",
          "name": "redeemer",
          "type": "address"
        }
      ],
      "name": "Redeem",
      "type": "event"
    },
    {
      "anonymous": false,
      "inputs": [
        {
          "indexed": true,
          "internalType": "address",
          "name": "seller",
          "type": "address"
        },
        {
          "indexed": false,
          "internalType": "uint256",
          "name": "poolBalance",
          "type": "uint256"
        },
        {
          "indexed": false,
          "internalType": "uint256",
          "name": "totalSupply",
          "type": "uint256"
        },
        {
          "indexed": false,
          "internalType": "uint256",
          "name": "tokens",
          "type": "uint256"
        },
        {
          "indexed": false,
          "internalType": "uint256",
          "name": "eth",
          "type": "uint256"
        }
      ],
      "name": "Sell",
      "type": "event"
    },
    {
      "anonymous": false,
      "inputs": [
        {
          "indexed": true,
          "internalType": "address",
          "name": "from",
          "type": "address"
        },
        {
          "indexed": true,
          "internalType": "address",
          "name": "to",
          "type": "address"
        },
        {
          "indexed": false,
          "internalType": "uint256",
          "name": "amount",
          "type": "uint256"
        }
      ],
      "name": "Transfer",
      "type": "event"
    },
    {
      "inputs": [],
      "name": "DOMAIN_SEPARATOR",
      "outputs": [
        {
          "internalType": "bytes32",
          "name": "",
          "type": "bytes32"
        }
      ],
      "stateMutability": "view",
      "type": "function"
    },
    {
      "inputs": [
        {
          "internalType": "address",
          "name": "",
          "type": "address"
        },
        {
          "internalType": "address",
          "name": "",
          "type": "address"
        }
      ],
      "name": "allowance",
      "outputs": [
        {
          "internalType": "uint256",
          "name": "",
          "type": "uint256"
        }
      ],
      "stateMutability": "view",
      "type": "function"
    },
    {
      "inputs": [
        {
          "internalType": "address",
          "name": "spender",
          "type": "address"
        },
        {
          "internalType": "uint256",
          "name": "amount",
          "type": "uint256"
        }
      ],
      "name": "approve",
      "outputs": [
        {
          "internalType": "bool",
          "name": "",
          "type": "bool"
        }
      ],
      "stateMutability": "nonpayable",
      "type": "function"
    },
    {
      "inputs": [
        {
          "internalType": "address",
          "name": "",
          "type": "address"
        }
      ],
      "name": "balanceOf",
      "outputs": [
        {
          "internalType": "uint256",
          "name": "",
          "type": "uint256"
        }
      ],
      "stateMutability": "view",
      "type": "function"
    },
    {
      "inputs": [],
      "name": "bondingCurve",
      "outputs": [
        {
          "internalType": "address",
          "name": "",
          "type": "address"
        }
      ],
      "stateMutability": "view",
      "type": "function"
    },
    {
      "inputs": [
        {
          "internalType": "uint256",
          "name": "_minTokensReturned",
          "type": "uint256"
        }
      ],
      "name": "buy",
      "outputs": [],
      "stateMutability": "payable",
      "type": "function"
    },
    {
      "inputs": [],
      "name": "creator",
      "outputs": [
        {
          "internalType": "address",
          "name": "",
          "type": "address"
        }
      ],
      "stateMutability": "view",
      "type": "function"
    },
    {
      "inputs": [],
      "name": "decimals",
      "outputs": [
        {
          "internalType": "uint8",
          "name": "",
          "type": "uint8"
        }
      ],
      "stateMutability": "view",
      "type": "function"
    },
    {
      "inputs": [],
      "name": "factory",
      "outputs": [
        {
          "internalType": "address",
          "name": "",
          "type": "address"
        }
      ],
      "stateMutability": "view",
      "type": "function"
    },
    {
      "inputs": [],
      "name": "hyperobject",
      "outputs": [
        {
          "internalType": "address",
          "name": "",
          "type": "address"
        }
      ],
      "stateMutability": "view",
      "type": "function"
    },
    {
      "inputs": [
        {
          "internalType": "string",
          "name": "_name",
          "type": "string"
        },
        {
          "internalType": "string",
          "name": "_symbol",
          "type": "string"
        },
        {
          "internalType": "uint256",
          "name": "_reserveRatio",
          "type": "uint256"
        },
        {
          "internalType": "uint256",
          "name": "_slopeInit",
          "type": "uint256"
        },
        {
          "internalType": "uint256",
          "name": "_transactionShare",
          "type": "uint256"
        },
        {
          "internalType": "address",
          "name": "_hyperobject",
          "type": "address"
        },
        {
          "internalType": "address",
          "name": "_creator",
          "type": "address"
        }
      ],
      "name": "initialize",
      "outputs": [],
      "stateMutability": "nonpayable",
      "type": "function"
    },
    {
      "inputs": [],
      "name": "name",
      "outputs": [
        {
          "internalType": "string",
          "name": "",
          "type": "string"
        }
      ],
      "stateMutability": "view",
      "type": "function"
    },
    {
      "inputs": [
        {
          "internalType": "address",
          "name": "",
          "type": "address"
        }
      ],
      "name": "nonces",
      "outputs": [
        {
          "internalType": "uint256",
          "name": "",
          "type": "uint256"
        }
      ],
      "stateMutability": "view",
      "type": "function"
    },
    {
      "inputs": [
        {
          "internalType": "address",
          "name": "owner",
          "type": "address"
        },
        {
          "internalType": "address",
          "name": "spender",
          "type": "address"
        },
        {
          "internalType": "uint256",
          "name": "value",
          "type": "uint256"
        },
        {
          "internalType": "uint256",
          "name": "deadline",
          "type": "uint256"
        },
        {
          "internalType": "uint8",
          "name": "v",
          "type": "uint8"
        },
        {
          "internalType": "bytes32",
          "name": "r",
          "type": "bytes32"
        },
        {
          "internalType": "bytes32",
          "name": "s",
          "type": "bytes32"
        }
      ],
      "name": "permit",
      "outputs": [],
      "stateMutability": "nonpayable",
      "type": "function"
    },
    {
      "inputs": [],
      "name": "poolBalance",
      "outputs": [
        {
          "internalType": "uint256",
          "name": "",
          "type": "uint256"
        }
      ],
      "stateMutability": "view",
      "type": "function"
    },
    {
      "inputs": [],
      "name": "redeem",
      "outputs": [],
      "stateMutability": "nonpayable",
      "type": "function"
    },
    {
      "inputs": [],
      "name": "reserveRatio",
      "outputs": [
        {
          "internalType": "uint256",
          "name": "",
          "type": "uint256"
        }
      ],
      "stateMutability": "view",
      "type": "function"
    },
    {
      "inputs": [
        {
          "internalType": "uint256",
          "name": "_tokens",
          "type": "uint256"
        },
        {
          "internalType": "uint256",
          "name": "_minETHReturned",
          "type": "uint256"
        }
      ],
      "name": "sell",
      "outputs": [],
      "stateMutability": "nonpayable",
      "type": "function"
    },
    {
      "inputs": [],
      "name": "slopeInit",
      "outputs": [
        {
          "internalType": "uint256",
          "name": "",
          "type": "uint256"
        }
      ],
      "stateMutability": "view",
      "type": "function"
    },
    {
      "inputs": [],
      "name": "symbol",
      "outputs": [
        {
          "internalType": "string",
          "name": "",
          "type": "string"
        }
      ],
      "stateMutability": "view",
      "type": "function"
    },
    {
      "inputs": [],
      "name": "totalSupply",
      "outputs": [
        {
          "internalType": "uint256",
          "name": "",
          "type": "uint256"
        }
      ],
      "stateMutability": "view",
      "type": "function"
    },
    {
      "inputs": [],
      "name": "transactionShare",
      "outputs": [
        {
          "internalType": "uint256",
          "name": "",
          "type": "uint256"
        }
      ],
      "stateMutability": "view",
      "type": "function"
    },
    {
      "inputs": [
        {
          "internalType": "address",
          "name": "to",
          "type": "address"
        },
        {
          "internalType": "uint256",
          "name": "amount",
          "type": "uint256"
        }
      ],
      "name": "transfer",
      "outputs": [
        {
          "internalType": "bool",
          "name": "",
          "type": "bool"
        }
      ],
      "stateMutability": "nonpayable",
      "type": "function"
    },
    {
      "inputs": [
        {
          "internalType": "address",
          "name": "from",
          "type": "address"
        },
        {
          "internalType": "address",
          "name": "to",
          "type": "address"
        },
        {
          "internalType": "uint256",
          "name": "amount",
          "type": "uint256"
        }
      ],
      "name": "transferFrom",
      "outputs": [
        {
          "internalType": "bool",
          "name": "",
          "type": "bool"
        }
      ],
      "stateMutability": "nonpayable",
      "type": "function"
    }
  ],
  "bytecode": {
    "object": "0x61012060405260016006553480156200001757600080fd5b5060405162001ab338038062001ab38339810160408190526200003a916200023a565b60405180604001604052806005815260200164566572736560d81b81525060405180604001604052806005815260200164564552534560d81b815250601282600090805190602001906200009092919062000177565b508151620000a690600190602085019062000177565b5060ff81166080524660a052620000bc620000db565b60c0525050506001600160a01b0391821660e052166101005262000353565b60007f8b73c3c69bb8fe3d512ecc4cf759cc79239f7b179b0ffacaa9a75d522b39400f60006040516200010f9190620002af565b6040805191829003822060208301939093528101919091527fc89efdaa54c0f20c7adf612882df0950f5a951637e0307cdcb4c672f298b8bc660608201524660808201523060a082015260c00160405160208183030381529060405280519060200120905090565b828054620001859062000272565b90600052602060002090601f016020900481019282620001a95760008555620001f4565b82601f10620001c457805160ff1916838001178555620001f4565b82800160010185558215620001f4579182015b82811115620001f4578251825591602001919060010190620001d7565b506200020292915062000206565b5090565b5b8082111562000202576000815560010162000207565b80516001600160a01b03811681146200023557600080fd5b919050565b600080604083850312156200024e57600080fd5b62000259836200021d565b915062000269602084016200021d565b90509250929050565b600181811c908216806200028757607f821691505b60208210811415620002a957634e487b7160e01b600052602260045260246000fd5b50919050565b600080835481600182811c915080831680620002cc57607f831692505b6020808410821415620002ed57634e487b7160e01b86526022600452602486fd5b818015620003045760018114620003165762000345565b60ff1986168952848901965062000345565b60008a81526020902060005b868110156200033d5781548b82015290850190830162000322565b505084890196505b509498975050505050505050565b60805160a05160c05160e051610100516116ff620003b46000396000818161046101528181610be001528181610de80152610ee70152600081816103a20152610762015260006106c20152600061068d0152600061024b01526116ff6000f3fe60806040526004361061014b5760003560e01c8063a9059cbb116100b6578063d79875eb1161006f578063d79875eb146103e4578063d96a094a14610404578063dd62ed3e14610417578063eff1d50e1461044f578063f4021e3d14610483578063f60e8c2b1461049957600080fd5b8063a9059cbb14610319578063aa46766114610339578063ba2ff82814610359578063be040fb01461037b578063c45a015514610390578063d505accf146103c457600080fd5b8063313ce56711610108578063313ce567146102395780633644e5151461027f57806370a08231146102945780637ecebe00146102c157806395d89b41146102ee57806396365d441461030357600080fd5b806302d05d3f1461015057806306fdde031461018d578063095ea7b3146101af5780630c7d5cd8146101df57806318160ddd1461020357806323b872dd14610219575b600080fd5b34801561015c57600080fd5b50600754610170906001600160a01b031681565b6040516001600160a01b0390911681526020015b60405180910390f35b34801561019957600080fd5b506101a26104af565b6040516101849190611264565b3480156101bb57600080fd5b506101cf6101ca3660046112d5565b61053d565b6040519015158152602001610184565b3480156101eb57600080fd5b506101f560095481565b604051908152602001610184565b34801561020f57600080fd5b506101f560025481565b34801561022557600080fd5b506101cf6102343660046112ff565b6105a9565b34801561024557600080fd5b5061026d7f000000000000000000000000000000000000000000000000000000000000000081565b60405160ff9091168152602001610184565b34801561028b57600080fd5b506101f5610689565b3480156102a057600080fd5b506101f56102af36600461133b565b60036020526000908152604090205481565b3480156102cd57600080fd5b506101f56102dc36600461133b565b60056020526000908152604090205481565b3480156102fa57600080fd5b506101a26106e4565b34801561030f57600080fd5b506101f5600b5481565b34801561032557600080fd5b506101cf6103343660046112d5565b6106f1565b34801561034557600080fd5b50600854610170906001600160a01b031681565b34801561036557600080fd5b506103796103743660046113a6565b610757565b005b34801561038757600080fd5b506103796107fa565b34801561039c57600080fd5b506101707f000000000000000000000000000000000000000000000000000000000000000081565b3480156103d057600080fd5b506103796103df366004611452565b6108db565b3480156103f057600080fd5b506103796103ff3660046114c5565b610b31565b6103796104123660046114e7565b610d46565b34801561042357600080fd5b506101f5610432366004611500565b600460209081526000928352604080842090915290825290205481565b34801561045b57600080fd5b506101707f000000000000000000000000000000000000000000000000000000000000000081565b34801561048f57600080fd5b506101f5600c5481565b3480156104a557600080fd5b506101f5600a5481565b600080546104bc90611533565b80601f01602080910402602001604051908101604052809291908181526020018280546104e890611533565b80156105355780601f1061050a57610100808354040283529160200191610535565b820191906000526020600020905b81548152906001019060200180831161051857829003601f168201915b505050505081565b3360008181526004602090815260408083206001600160a01b038716808552925280832085905551919290917f8c5be1e5ebec7d5bd14f71427d1e84f3dd0314c0f7b2291e5b200ac8c7c3b925906105989086815260200190565b60405180910390a350600192915050565b6001600160a01b03831660009081526004602090815260408083203384529091528120546000198114610605576105e08382611584565b6001600160a01b03861660009081526004602090815260408083203384529091529020555b6001600160a01b0385166000908152600360205260408120805485929061062d908490611584565b90915550506001600160a01b03808516600081815260036020526040908190208054870190555190918716906000805160206116aa833981519152906106769087815260200190565b60405180910390a3506001949350505050565b60007f000000000000000000000000000000000000000000000000000000000000000046146106bf576106ba610ffc565b905090565b507f000000000000000000000000000000000000000000000000000000000000000090565b600180546104bc90611533565b33600090815260036020526040812080548391908390610712908490611584565b90915550506001600160a01b038316600081815260036020526040908190208054850190555133906000805160206116aa833981519152906105989086815260200190565b336001600160a01b037f0000000000000000000000000000000000000000000000000000000000000000161461079f576040516282b42960e81b815260040160405180910390fd5b6107ab60008a8a6111cb565b506107b8600188886111cb565b50600994909455600a92909255600c55600880546001600160a01b039283166001600160a01b0319918216179091556007805492909316911617905550505050565b33600090815260036020526040902054670de0b6b3a7640000111561083257604051631e9acf1760e31b815260040160405180910390fd5b600854610850906001600160a01b0316670de0b6b3a76400006106f1565b506008546040516335313c2160e11b81523360048201526001600160a01b0390911690636a62784290602401600060405180830381600087803b15801561089657600080fd5b505af11580156108aa573d6000803e3d6000fd5b50506040513392507fd1b5ea7fe0f1c2fa09d49c2aa9b2200664ba57a734f1d95481d95b7f99af991c9150600090a2565b428410156109305760405162461bcd60e51b815260206004820152601760248201527f5045524d49545f444541444c494e455f4558504952454400000000000000000060448201526064015b60405180910390fd5b600061093a610689565b6001600160a01b0389811660008181526005602090815260409182902080546001810190915582517f6e71edae12b1b97f4d1f60370fef10105fa2faae0126114a169c64845d6126c98184015280840194909452938c166060840152608083018b905260a083019390935260c08083018a90528151808403909101815260e08301909152805192019190912061190160f01b6101008301526101028201929092526101228101919091526101420160408051601f198184030181528282528051602091820120600080855291840180845281905260ff88169284019290925260608301869052608083018590529092509060019060a0016020604051602081039080840390855afa158015610a53573d6000803e3d6000fd5b5050604051601f1901519150506001600160a01b03811615801590610a895750886001600160a01b0316816001600160a01b0316145b610ac65760405162461bcd60e51b815260206004820152600e60248201526d24a72b20a624a22fa9a4a3a722a960911b6044820152606401610927565b6001600160a01b0390811660009081526004602090815260408083208b8516808552908352928190208a905551898152919350918a16917f8c5be1e5ebec7d5bd14f71427d1e84f3dd0314c0f7b2291e5b200ac8c7c3b925910160405180910390a350505050505050565b81610b4f576040516337ecb2bb60e01b815260040160405180910390fd5b33600090815260036020526040902054821115610b7f57604051631e9acf1760e31b815260040160405180910390fd5b600b54610b9f5760405163bc6072f160e01b815260040160405180910390fd5b80610bbd5760405163334ee9a160e01b815260040160405180910390fd5b600254600b546009546040516340e1d71d60e11b81526000936001600160a01b037f000000000000000000000000000000000000000000000000000000000000000016936381c3ae3a93610c2b93899060040193845260208401929092526040830152606082015260800190565b6020604051808303816000875af1158015610c4a573d6000803e3d6000fd5b505050506040513d601f19601f82011682018060405250810190610c6e919061159b565b90506000610c7b82611096565b90506000610c898284611584565b905083811015610cac576040516307dd37f760e41b815260040160405180910390fd5b610cb633866110b9565b82600b6000828254610cc89190611584565b90915550610cd890503382611123565b600754610cee906001600160a01b031683611123565b600b5460025460408051928352602083019190915281018690526060810184905233907f483f8aec0fd892ac72ad1ba8d0e9c9e73db59c12d263fd71de480b5b3deeae3c906080015b60405180910390a25050505050565b34610d6457604051632a9ffab760e21b815260040160405180910390fd5b80610d825760405163334ee9a160e01b815260040160405180910390fd5b346000610d8e82611096565b90506000610d9c8284611584565b9050600060025460001480610db15750600b54155b15610eab5766038d7ea4c68000821015610dde57604051639f5cf41f60e01b815260040160405180910390fd5b6001600160a01b037f00000000000000000000000000000000000000000000000000000000000000001663d47d2a76610e1e66038d7ea4c68000856115b4565b600954600a546040516001600160e01b031960e086901b168152600481019390935260248301919091526044820152606401602060405180830381865afa158015610e6d573d6000803e3d6000fd5b505050506040513d601f19601f82011682018060405250810190610e91919061159b565b9050610ea48166038d7ea4c680006115d6565b9050610f57565b600254600b5460095460405163257bb54960e21b8152600481019390935260248301919091526044820152606481018390526001600160a01b037f000000000000000000000000000000000000000000000000000000000000000016906395eed524906084016020604051808303816000875af1158015610f30573d6000803e3d6000fd5b505050506040513d601f19601f82011682018060405250810190610f54919061159b565b90505b84811015610f78576040516307dd37f760e41b815260040160405180910390fd5b610f823382611179565b81600b6000828254610f9491906115f5565b9091555050600754610faf906001600160a01b031684611123565b600b5460025460408051928352602083019190915281018290526060810183905233907f064fb1933e186be0b289a87e98518dc18cc9856ecbc9f1353d1a138ddf733ec590608001610d37565b60007f8b73c3c69bb8fe3d512ecc4cf759cc79239f7b179b0ffacaa9a75d522b39400f600060405161102e919061160d565b6040805191829003822060208301939093528101919091527fc89efdaa54c0f20c7adf612882df0950f5a951637e0307cdcb4c672f298b8bc660608201524660808201523060a082015260c00160405160208183030381529060405280519060200120905090565b6000612710600c54836110a991906115d6565b6110b391906115b4565b92915050565b6001600160a01b038216600090815260036020526040812080548392906110e1908490611584565b90915550506002805482900390556040518181526000906001600160a01b038416906000805160206116aa833981519152906020015b60405180910390a35050565b600080600080600085875af19050806111745760405162461bcd60e51b815260206004820152601360248201527211551217d514905394d1915497d19052531151606a1b6044820152606401610927565b505050565b806002600082825461118b91906115f5565b90915550506001600160a01b0382166000818152600360209081526040808320805486019055518481526000805160206116aa8339815191529101611117565b8280546111d790611533565b90600052602060002090601f0160209004810192826111f9576000855561123f565b82601f106112125782800160ff1982351617855561123f565b8280016001018555821561123f579182015b8281111561123f578235825591602001919060010190611224565b5061124b92915061124f565b5090565b5b8082111561124b5760008155600101611250565b600060208083528351808285015260005b8181101561129157858101830151858201604001528201611275565b818111156112a3576000604083870101525b50601f01601f1916929092016040019392505050565b80356001600160a01b03811681146112d057600080fd5b919050565b600080604083850312156112e857600080fd5b6112f1836112b9565b946020939093013593505050565b60008060006060848603121561131457600080fd5b61131d846112b9565b925061132b602085016112b9565b9150604084013590509250925092565b60006020828403121561134d57600080fd5b611356826112b9565b9392505050565b60008083601f84011261136f57600080fd5b50813567ffffffffffffffff81111561138757600080fd5b60208301915083602082850101111561139f57600080fd5b9250929050565b600080600080600080600080600060e08a8c0312156113c457600080fd5b893567ffffffffffffffff808211156113dc57600080fd5b6113e88d838e0161135d565b909b50995060208c013591508082111561140157600080fd5b5061140e8c828d0161135d565b90985096505060408a0135945060608a0135935060808a0135925061143560a08b016112b9565b915061144360c08b016112b9565b90509295985092959850929598565b600080600080600080600060e0888a03121561146d57600080fd5b611476886112b9565b9650611484602089016112b9565b95506040880135945060608801359350608088013560ff811681146114a857600080fd5b9699959850939692959460a0840135945060c09093013592915050565b600080604083850312156114d857600080fd5b50508035926020909101359150565b6000602082840312156114f957600080fd5b5035919050565b6000806040838503121561151357600080fd5b61151c836112b9565b915061152a602084016112b9565b90509250929050565b600181811c9082168061154757607f821691505b6020821081141561156857634e487b7160e01b600052602260045260246000fd5b50919050565b634e487b7160e01b600052601160045260246000fd5b6000828210156115965761159661156e565b500390565b6000602082840312156115ad57600080fd5b5051919050565b6000826115d157634e487b7160e01b600052601260045260246000fd5b500490565b60008160001904831182151516156115f0576115f061156e565b500290565b600082198211156116085761160861156e565b500190565b600080835481600182811c91508083168061162957607f831692505b602080841082141561164957634e487b7160e01b86526022600452602486fd5b81801561165d576001811461166e5761169b565b60ff1986168952848901965061169b565b60008a81526020902060005b868110156116935781548b82015290850190830161167a565b505084890196505b50949897505050505050505056feddf252ad1be2c89b69c2b068fc378daa952ba7f163c4a11628f55a4df523b3efa264697066735822122077f210d1792257e0fc37381c768f42492358b7c349e88a7cdc0fba79f2e62cc264736f6c634300080b0033",
    "linkReferences": {}
  }
}