{
  "abi": [
    {
      "inputs": [
        {
          "internalType": "address",
          "name": "_factory",
          "type": "address"
        },
        {
          "internalType": "address",
          "name": "_bondingCurve",
          "type": "address"
        }
      ],
      "stateMutability": "nonpayable",
      "type": "constructor"
    },
    {
      "inputs": [],
      "name": "InsufficientBalance",
      "type": "error"
    },
    {
      "inputs": [],
      "name": "InsufficientInitialPrice",
      "type": "error"
    },
    {
      "inputs": [],
      "name": "InsufficientPoolBalance",
      "type": "error"
    },
    {
      "inputs": [],
      "name": "InvalidSellAmount",
      "type": "error"
    },
    {
      "inputs": [],
      "name": "InvalidSlippage",
      "type": "error"
    },
    {
      "inputs": [],
      "name": "InvalidValue",
      "type": "error"
    },
    {
      "inputs": [],
      "name": "Slippage",
      "type": "error"
    },
    {
      "inputs": [],
      "name": "Unauthorized",
      "type": "error"
    },
    {
      "anonymous": false,
      "inputs": [
        {
          "indexed": true,
          "internalType": "address",
          "name": "owner",
          "type": "address"
        },
        {
          "indexed": true,
          "internalType": "address",
          "name": "spender",
          "type": "address"
        },
        {
          "indexed": false,
          "internalType": "uint256",
          "name": "amount",
          "type": "uint256"
        }
      ],
      "name": "Approval",
      "type": "event"
    },
    {
      "anonymous": false,
      "inputs": [
        {
          "indexed": true,
          "internalType": "address",
          "name": "buyer",
          "type": "address"
        },
        {
          "indexed": false,
          "internalType": "uint256",
          "name": "poolBalance",
          "type": "uint256"
        },
        {
          "indexed": false,
          "internalType": "uint256",
          "name": "totalSupply",
          "type": "uint256"
        },
        {
          "indexed": false,
          "internalType": "uint256",
          "name": "tokens",
          "type": "uint256"
        },
        {
          "indexed": false,
          "internalType": "uint256",
          "name": "price",
          "type": "uint256"
        }
      ],
      "name": "Buy",
      "type": "event"
    },
    {
      "anonymous": false,
      "inputs": [
        {
          "indexed": true,
          "internalType": "address",
          "name": "redeemer",
          "type": "address"
        }
      ],
      "name": "Redeem",
      "type": "event"
    },
    {
      "anonymous": false,
      "inputs": [
        {
          "indexed": true,
          "internalType": "address",
          "name": "seller",
          "type": "address"
        },
        {
          "indexed": false,
          "internalType": "uint256",
          "name": "poolBalance",
          "type": "uint256"
        },
        {
          "indexed": false,
          "internalType": "uint256",
          "name": "totalSupply",
          "type": "uint256"
        },
        {
          "indexed": false,
          "internalType": "uint256",
          "name": "tokens",
          "type": "uint256"
        },
        {
          "indexed": false,
          "internalType": "uint256",
          "name": "eth",
          "type": "uint256"
        }
      ],
      "name": "Sell",
      "type": "event"
    },
    {
      "anonymous": false,
      "inputs": [
        {
          "indexed": true,
          "internalType": "address",
          "name": "from",
          "type": "address"
        },
        {
          "indexed": true,
          "internalType": "address",
          "name": "to",
          "type": "address"
        },
        {
          "indexed": false,
          "internalType": "uint256",
          "name": "amount",
          "type": "uint256"
        }
      ],
      "name": "Transfer",
      "type": "event"
    },
    {
      "inputs": [],
      "name": "DOMAIN_SEPARATOR",
      "outputs": [
        {
          "internalType": "bytes32",
          "name": "",
          "type": "bytes32"
        }
      ],
      "stateMutability": "view",
      "type": "function"
    },
    {
      "inputs": [
        {
          "internalType": "address",
          "name": "",
          "type": "address"
        },
        {
          "internalType": "address",
          "name": "",
          "type": "address"
        }
      ],
      "name": "allowance",
      "outputs": [
        {
          "internalType": "uint256",
          "name": "",
          "type": "uint256"
        }
      ],
      "stateMutability": "view",
      "type": "function"
    },
    {
      "inputs": [
        {
          "internalType": "address",
          "name": "spender",
          "type": "address"
        },
        {
          "internalType": "uint256",
          "name": "amount",
          "type": "uint256"
        }
      ],
      "name": "approve",
      "outputs": [
        {
          "internalType": "bool",
          "name": "",
          "type": "bool"
        }
      ],
      "stateMutability": "nonpayable",
      "type": "function"
    },
    {
      "inputs": [
        {
          "internalType": "address",
          "name": "",
          "type": "address"
        }
      ],
      "name": "balanceOf",
      "outputs": [
        {
          "internalType": "uint256",
          "name": "",
          "type": "uint256"
        }
      ],
      "stateMutability": "view",
      "type": "function"
    },
    {
      "inputs": [],
      "name": "bondingCurve",
      "outputs": [
        {
          "internalType": "address",
          "name": "",
          "type": "address"
        }
      ],
      "stateMutability": "view",
      "type": "function"
    },
    {
      "inputs": [
        {
          "internalType": "uint256",
          "name": "_minTokensReturned",
          "type": "uint256"
        }
      ],
      "name": "buy",
      "outputs": [],
      "stateMutability": "payable",
      "type": "function"
    },
    {
      "inputs": [],
      "name": "creator",
      "outputs": [
        {
          "internalType": "address",
          "name": "",
          "type": "address"
        }
      ],
      "stateMutability": "view",
      "type": "function"
    },
    {
      "inputs": [],
      "name": "decimals",
      "outputs": [
        {
          "internalType": "uint8",
          "name": "",
          "type": "uint8"
        }
      ],
      "stateMutability": "view",
      "type": "function"
    },
    {
      "inputs": [],
      "name": "factory",
      "outputs": [
        {
          "internalType": "address",
          "name": "",
          "type": "address"
        }
      ],
      "stateMutability": "view",
      "type": "function"
    },
    {
      "inputs": [],
      "name": "hyperobject",
      "outputs": [
        {
          "internalType": "address",
          "name": "",
          "type": "address"
        }
      ],
      "stateMutability": "view",
      "type": "function"
    },
    {
      "inputs": [
        {
          "internalType": "string",
          "name": "_name",
          "type": "string"
        },
        {
          "internalType": "string",
          "name": "_symbol",
          "type": "string"
        },
        {
          "internalType": "uint256",
          "name": "_reserveRatio",
          "type": "uint256"
        },
        {
          "internalType": "uint256",
          "name": "_slopeInit",
          "type": "uint256"
        },
        {
          "internalType": "uint256",
          "name": "_transactionShare",
          "type": "uint256"
        },
        {
          "internalType": "address",
          "name": "_hyperobject",
          "type": "address"
        },
        {
          "internalType": "address",
          "name": "_creator",
          "type": "address"
        }
      ],
      "name": "initialize",
      "outputs": [],
      "stateMutability": "nonpayable",
      "type": "function"
    },
    {
      "inputs": [],
      "name": "name",
      "outputs": [
        {
          "internalType": "string",
          "name": "",
          "type": "string"
        }
      ],
      "stateMutability": "view",
      "type": "function"
    },
    {
      "inputs": [
        {
          "internalType": "address",
          "name": "",
          "type": "address"
        }
      ],
      "name": "nonces",
      "outputs": [
        {
          "internalType": "uint256",
          "name": "",
          "type": "uint256"
        }
      ],
      "stateMutability": "view",
      "type": "function"
    },
    {
      "inputs": [
        {
          "internalType": "address",
          "name": "owner",
          "type": "address"
        },
        {
          "internalType": "address",
          "name": "spender",
          "type": "address"
        },
        {
          "internalType": "uint256",
          "name": "value",
          "type": "uint256"
        },
        {
          "internalType": "uint256",
          "name": "deadline",
          "type": "uint256"
        },
        {
          "internalType": "uint8",
          "name": "v",
          "type": "uint8"
        },
        {
          "internalType": "bytes32",
          "name": "r",
          "type": "bytes32"
        },
        {
          "internalType": "bytes32",
          "name": "s",
          "type": "bytes32"
        }
      ],
      "name": "permit",
      "outputs": [],
      "stateMutability": "nonpayable",
      "type": "function"
    },
    {
      "inputs": [],
      "name": "poolBalance",
      "outputs": [
        {
          "internalType": "uint256",
          "name": "",
          "type": "uint256"
        }
      ],
      "stateMutability": "view",
      "type": "function"
    },
    {
      "inputs": [],
      "name": "redeem",
      "outputs": [],
      "stateMutability": "nonpayable",
      "type": "function"
    },
    {
      "inputs": [],
      "name": "reserveRatio",
      "outputs": [
        {
          "internalType": "uint256",
          "name": "",
          "type": "uint256"
        }
      ],
      "stateMutability": "view",
      "type": "function"
    },
    {
      "inputs": [
        {
          "internalType": "uint256",
          "name": "_tokens",
          "type": "uint256"
        },
        {
          "internalType": "uint256",
          "name": "_minETHReturned",
          "type": "uint256"
        }
      ],
      "name": "sell",
      "outputs": [],
      "stateMutability": "nonpayable",
      "type": "function"
    },
    {
      "inputs": [],
      "name": "slopeInit",
      "outputs": [
        {
          "internalType": "uint256",
          "name": "",
          "type": "uint256"
        }
      ],
      "stateMutability": "view",
      "type": "function"
    },
    {
      "inputs": [],
      "name": "symbol",
      "outputs": [
        {
          "internalType": "string",
          "name": "",
          "type": "string"
        }
      ],
      "stateMutability": "view",
      "type": "function"
    },
    {
      "inputs": [],
      "name": "totalSupply",
      "outputs": [
        {
          "internalType": "uint256",
          "name": "",
          "type": "uint256"
        }
      ],
      "stateMutability": "view",
      "type": "function"
    },
    {
      "inputs": [],
      "name": "transactionShare",
      "outputs": [
        {
          "internalType": "uint256",
          "name": "",
          "type": "uint256"
        }
      ],
      "stateMutability": "view",
      "type": "function"
    },
    {
      "inputs": [
        {
          "internalType": "address",
          "name": "to",
          "type": "address"
        },
        {
          "internalType": "uint256",
          "name": "amount",
          "type": "uint256"
        }
      ],
      "name": "transfer",
      "outputs": [
        {
          "internalType": "bool",
          "name": "",
          "type": "bool"
        }
      ],
      "stateMutability": "nonpayable",
      "type": "function"
    },
    {
      "inputs": [
        {
          "internalType": "address",
          "name": "from",
          "type": "address"
        },
        {
          "internalType": "address",
          "name": "to",
          "type": "address"
        },
        {
          "internalType": "uint256",
          "name": "amount",
          "type": "uint256"
        }
      ],
      "name": "transferFrom",
      "outputs": [
        {
          "internalType": "bool",
          "name": "",
          "type": "bool"
        }
      ],
      "stateMutability": "nonpayable",
      "type": "function"
    }
  ],
  "bytecode": {
    "object": "0x61012060405260016006553480156200001757600080fd5b5060405162001b5a38038062001b5a8339810160408190526200003a916200023a565b60405180604001604052806005815260200164566572736560d81b81525060405180604001604052806005815260200164564552534560d81b815250601282600090805190602001906200009092919062000177565b508151620000a690600190602085019062000177565b5060ff81166080524660a052620000bc620000db565b60c0525050506001600160a01b0391821660e052166101005262000353565b60007f8b73c3c69bb8fe3d512ecc4cf759cc79239f7b179b0ffacaa9a75d522b39400f60006040516200010f9190620002af565b6040805191829003822060208301939093528101919091527fc89efdaa54c0f20c7adf612882df0950f5a951637e0307cdcb4c672f298b8bc660608201524660808201523060a082015260c00160405160208183030381529060405280519060200120905090565b828054620001859062000272565b90600052602060002090601f016020900481019282620001a95760008555620001f4565b82601f10620001c457805160ff1916838001178555620001f4565b82800160010185558215620001f4579182015b82811115620001f4578251825591602001919060010190620001d7565b506200020292915062000206565b5090565b5b8082111562000202576000815560010162000207565b80516001600160a01b03811681146200023557600080fd5b919050565b600080604083850312156200024e57600080fd5b62000259836200021d565b915062000269602084016200021d565b90509250929050565b600181811c908216806200028757607f821691505b60208210811415620002a957634e487b7160e01b600052602260045260246000fd5b50919050565b600080835481600182811c915080831680620002cc57607f831692505b6020808410821415620002ed57634e487b7160e01b86526022600452602486fd5b818015620003045760018114620003165762000345565b60ff1986168952848901965062000345565b60008a81526020902060005b868110156200033d5781548b82015290850190830162000322565b505084890196505b509498975050505050505050565b60805160a05160c05160e051610100516117a6620003b46000396000818161046101528181610c3701528181610e6b0152610f6a0152600081816103a20152610762015260006106c20152600061068d0152600061024b01526117a66000f3fe60806040526004361061014b5760003560e01c8063a9059cbb116100b6578063d79875eb1161006f578063d79875eb146103e4578063d96a094a14610404578063dd62ed3e14610417578063eff1d50e1461044f578063f4021e3d14610483578063f60e8c2b1461049957600080fd5b8063a9059cbb14610319578063aa46766114610339578063ba2ff82814610359578063be040fb01461037b578063c45a015514610390578063d505accf146103c457600080fd5b8063313ce56711610108578063313ce567146102395780633644e5151461027f57806370a08231146102945780637ecebe00146102c157806395d89b41146102ee57806396365d441461030357600080fd5b806302d05d3f1461015057806306fdde031461018d578063095ea7b3146101af5780630c7d5cd8146101df57806318160ddd1461020357806323b872dd14610219575b600080fd5b34801561015c57600080fd5b50600754610170906001600160a01b031681565b6040516001600160a01b0390911681526020015b60405180910390f35b34801561019957600080fd5b506101a26104af565b60405161018491906112e7565b3480156101bb57600080fd5b506101cf6101ca366004611358565b61053d565b6040519015158152602001610184565b3480156101eb57600080fd5b506101f560095481565b604051908152602001610184565b34801561020f57600080fd5b506101f560025481565b34801561022557600080fd5b506101cf610234366004611382565b6105a9565b34801561024557600080fd5b5061026d7f000000000000000000000000000000000000000000000000000000000000000081565b60405160ff9091168152602001610184565b34801561028b57600080fd5b506101f5610689565b3480156102a057600080fd5b506101f56102af3660046113be565b60036020526000908152604090205481565b3480156102cd57600080fd5b506101f56102dc3660046113be565b60056020526000908152604090205481565b3480156102fa57600080fd5b506101a26106e4565b34801561030f57600080fd5b506101f5600b5481565b34801561032557600080fd5b506101cf610334366004611358565b6106f1565b34801561034557600080fd5b50600854610170906001600160a01b031681565b34801561036557600080fd5b50610379610374366004611429565b610757565b005b34801561038757600080fd5b506103796107fa565b34801561039c57600080fd5b506101707f000000000000000000000000000000000000000000000000000000000000000081565b3480156103d057600080fd5b506103796103df3660046114d5565b610910565b3480156103f057600080fd5b506103796103ff366004611548565b610b61565b61037961041236600461156a565b610da2565b34801561042357600080fd5b506101f5610432366004611583565b600460209081526000928352604080842090915290825290205481565b34801561045b57600080fd5b506101707f000000000000000000000000000000000000000000000000000000000000000081565b34801561048f57600080fd5b506101f5600c5481565b3480156104a557600080fd5b506101f5600a5481565b600080546104bc906115b6565b80601f01602080910402602001604051908101604052809291908181526020018280546104e8906115b6565b80156105355780601f1061050a57610100808354040283529160200191610535565b820191906000526020600020905b81548152906001019060200180831161051857829003601f168201915b505050505081565b3360008181526004602090815260408083206001600160a01b038716808552925280832085905551919290917f8c5be1e5ebec7d5bd14f71427d1e84f3dd0314c0f7b2291e5b200ac8c7c3b925906105989086815260200190565b60405180910390a350600192915050565b6001600160a01b03831660009081526004602090815260408083203384529091528120546000198114610605576105e08382611607565b6001600160a01b03861660009081526004602090815260408083203384529091529020555b6001600160a01b0385166000908152600360205260408120805485929061062d908490611607565b90915550506001600160a01b0380851660008181526003602052604090819020805487019055519091871690600080516020611751833981519152906106769087815260200190565b60405180910390a3506001949350505050565b60007f000000000000000000000000000000000000000000000000000000000000000046146106bf576106ba61107f565b905090565b507f000000000000000000000000000000000000000000000000000000000000000090565b600180546104bc906115b6565b33600090815260036020526040812080548391908390610712908490611607565b90915550506001600160a01b03831660008181526003602052604090819020805485019055513390600080516020611751833981519152906105989086815260200190565b336001600160a01b037f0000000000000000000000000000000000000000000000000000000000000000161461079f576040516282b42960e81b815260040160405180910390fd5b6107ab60008a8a61124e565b506107b86001888861124e565b50600994909455600a92909255600c55600880546001600160a01b039283166001600160a01b0319918216179091556007805492909316911617905550505050565b6006546001146108255760405162461bcd60e51b815260040161081c9061161e565b60405180910390fd5b600260065533600090815260036020526040902054670de0b6b3a7640000111561086257604051631e9acf1760e31b815260040160405180910390fd5b600854610880906001600160a01b0316670de0b6b3a76400006106f1565b506008546040516335313c2160e11b81523360048201526001600160a01b0390911690636a62784290602401600060405180830381600087803b1580156108c657600080fd5b505af11580156108da573d6000803e3d6000fd5b50506040513392507fd1b5ea7fe0f1c2fa09d49c2aa9b2200664ba57a734f1d95481d95b7f99af991c9150600090a26001600655565b428410156109605760405162461bcd60e51b815260206004820152601760248201527f5045524d49545f444541444c494e455f45585049524544000000000000000000604482015260640161081c565b600061096a610689565b6001600160a01b0389811660008181526005602090815260409182902080546001810190915582517f6e71edae12b1b97f4d1f60370fef10105fa2faae0126114a169c64845d6126c98184015280840194909452938c166060840152608083018b905260a083019390935260c08083018a90528151808403909101815260e08301909152805192019190912061190160f01b6101008301526101028201929092526101228101919091526101420160408051601f198184030181528282528051602091820120600080855291840180845281905260ff88169284019290925260608301869052608083018590529092509060019060a0016020604051602081039080840390855afa158015610a83573d6000803e3d6000fd5b5050604051601f1901519150506001600160a01b03811615801590610ab95750886001600160a01b0316816001600160a01b0316145b610af65760405162461bcd60e51b815260206004820152600e60248201526d24a72b20a624a22fa9a4a3a722a960911b604482015260640161081c565b6001600160a01b0390811660009081526004602090815260408083208b8516808552908352928190208a905551898152919350918a16917f8c5be1e5ebec7d5bd14f71427d1e84f3dd0314c0f7b2291e5b200ac8c7c3b925910160405180910390a350505050505050565b600654600114610b835760405162461bcd60e51b815260040161081c9061161e565b600260065581610ba6576040516337ecb2bb60e01b815260040160405180910390fd5b33600090815260036020526040902054821115610bd657604051631e9acf1760e31b815260040160405180910390fd5b600b54610bf65760405163bc6072f160e01b815260040160405180910390fd5b80610c145760405163334ee9a160e01b815260040160405180910390fd5b600254600b546009546040516340e1d71d60e11b81526000936001600160a01b037f000000000000000000000000000000000000000000000000000000000000000016936381c3ae3a93610c8293899060040193845260208401929092526040830152606082015260800190565b6020604051808303816000875af1158015610ca1573d6000803e3d6000fd5b505050506040513d601f19601f82011682018060405250810190610cc59190611642565b90506000610cd282611119565b90506000610ce08284611607565b905083811015610d03576040516307dd37f760e41b815260040160405180910390fd5b610d0d338661113c565b82600b6000828254610d1f9190611607565b90915550610d2f905033826111a6565b600754610d45906001600160a01b0316836111a6565b600b5460025460408051928352602083019190915281018690526060810184905233907f483f8aec0fd892ac72ad1ba8d0e9c9e73db59c12d263fd71de480b5b3deeae3c906080015b60405180910390a250506001600655505050565b600654600114610dc45760405162461bcd60e51b815260040161081c9061161e565b600260065534610de757604051632a9ffab760e21b815260040160405180910390fd5b80610e055760405163334ee9a160e01b815260040160405180910390fd5b346000610e1182611119565b90506000610e1f8284611607565b9050600060025460001480610e345750600b54155b15610f2e5766038d7ea4c68000821015610e6157604051639f5cf41f60e01b815260040160405180910390fd5b6001600160a01b037f00000000000000000000000000000000000000000000000000000000000000001663d47d2a76610ea166038d7ea4c680008561165b565b600954600a546040516001600160e01b031960e086901b168152600481019390935260248301919091526044820152606401602060405180830381865afa158015610ef0573d6000803e3d6000fd5b505050506040513d601f19601f82011682018060405250810190610f149190611642565b9050610f278166038d7ea4c6800061167d565b9050610fda565b600254600b5460095460405163257bb54960e21b8152600481019390935260248301919091526044820152606481018390526001600160a01b037f000000000000000000000000000000000000000000000000000000000000000016906395eed524906084016020604051808303816000875af1158015610fb3573d6000803e3d6000fd5b505050506040513d601f19601f82011682018060405250810190610fd79190611642565b90505b84811015610ffb576040516307dd37f760e41b815260040160405180910390fd5b61100533826111fc565b81600b6000828254611017919061169c565b9091555050600754611032906001600160a01b0316846111a6565b600b5460025460408051928352602083019190915281018290526060810183905233907f064fb1933e186be0b289a87e98518dc18cc9856ecbc9f1353d1a138ddf733ec590608001610d8e565b60007f8b73c3c69bb8fe3d512ecc4cf759cc79239f7b179b0ffacaa9a75d522b39400f60006040516110b191906116b4565b6040805191829003822060208301939093528101919091527fc89efdaa54c0f20c7adf612882df0950f5a951637e0307cdcb4c672f298b8bc660608201524660808201523060a082015260c00160405160208183030381529060405280519060200120905090565b6000612710600c548361112c919061167d565b611136919061165b565b92915050565b6001600160a01b03821660009081526003602052604081208054839290611164908490611607565b90915550506002805482900390556040518181526000906001600160a01b03841690600080516020611751833981519152906020015b60405180910390a35050565b600080600080600085875af19050806111f75760405162461bcd60e51b815260206004820152601360248201527211551217d514905394d1915497d19052531151606a1b604482015260640161081c565b505050565b806002600082825461120e919061169c565b90915550506001600160a01b038216600081815260036020908152604080832080548601905551848152600080516020611751833981519152910161119a565b82805461125a906115b6565b90600052602060002090601f01602090048101928261127c57600085556112c2565b82601f106112955782800160ff198235161785556112c2565b828001600101855582156112c2579182015b828111156112c25782358255916020019190600101906112a7565b506112ce9291506112d2565b5090565b5b808211156112ce57600081556001016112d3565b600060208083528351808285015260005b81811015611314578581018301518582016040015282016112f8565b81811115611326576000604083870101525b50601f01601f1916929092016040019392505050565b80356001600160a01b038116811461135357600080fd5b919050565b6000806040838503121561136b57600080fd5b6113748361133c565b946020939093013593505050565b60008060006060848603121561139757600080fd5b6113a08461133c565b92506113ae6020850161133c565b9150604084013590509250925092565b6000602082840312156113d057600080fd5b6113d98261133c565b9392505050565b60008083601f8401126113f257600080fd5b50813567ffffffffffffffff81111561140a57600080fd5b60208301915083602082850101111561142257600080fd5b9250929050565b600080600080600080600080600060e08a8c03121561144757600080fd5b893567ffffffffffffffff8082111561145f57600080fd5b61146b8d838e016113e0565b909b50995060208c013591508082111561148457600080fd5b506114918c828d016113e0565b90985096505060408a0135945060608a0135935060808a013592506114b860a08b0161133c565b91506114c660c08b0161133c565b90509295985092959850929598565b600080600080600080600060e0888a0312156114f057600080fd5b6114f98861133c565b96506115076020890161133c565b95506040880135945060608801359350608088013560ff8116811461152b57600080fd5b9699959850939692959460a0840135945060c09093013592915050565b6000806040838503121561155b57600080fd5b50508035926020909101359150565b60006020828403121561157c57600080fd5b5035919050565b6000806040838503121561159657600080fd5b61159f8361133c565b91506115ad6020840161133c565b90509250929050565b600181811c908216806115ca57607f821691505b602082108114156115eb57634e487b7160e01b600052602260045260246000fd5b50919050565b634e487b7160e01b600052601160045260246000fd5b600082821015611619576116196115f1565b500390565b6020808252600a90820152695245454e5452414e435960b01b604082015260600190565b60006020828403121561165457600080fd5b5051919050565b60008261167857634e487b7160e01b600052601260045260246000fd5b500490565b6000816000190483118215151615611697576116976115f1565b500290565b600082198211156116af576116af6115f1565b500190565b600080835481600182811c9150808316806116d057607f831692505b60208084108214156116f057634e487b7160e01b86526022600452602486fd5b818015611704576001811461171557611742565b60ff19861689528489019650611742565b60008a81526020902060005b8681101561173a5781548b820152908501908301611721565b505084890196505b50949897505050505050505056feddf252ad1be2c89b69c2b068fc378daa952ba7f163c4a11628f55a4df523b3efa264697066735822122066580fd877e9669004e18b1ccc0a2a03d63da238e3744caccc73c0bed6c202ad64736f6c634300080b0033",
    "linkReferences": {}
  }
}