{
  "abi": [
    {
      "inputs": [
        {
          "internalType": "uint256",
          "name": "_price",
          "type": "uint256"
        },
        {
          "internalType": "uint256",
          "name": "_reserveRatio",
          "type": "uint256"
        }
      ],
      "name": "calculateInitializationReturn",
      "outputs": [
        {
          "internalType": "uint256",
          "name": "",
          "type": "uint256"
        }
      ],
      "stateMutability": "view",
      "type": "function"
    },
    {
      "inputs": [
        {
          "internalType": "uint256",
          "name": "_supply",
          "type": "uint256"
        },
        {
          "internalType": "uint256",
          "name": "_poolBalance",
          "type": "uint256"
        },
        {
          "internalType": "uint256",
          "name": "_reserveRatio",
          "type": "uint256"
        },
        {
          "internalType": "uint256",
          "name": "_price",
          "type": "uint256"
        }
      ],
      "name": "calculatePurchaseReturn",
      "outputs": [
        {
          "internalType": "uint256",
          "name": "",
          "type": "uint256"
        }
      ],
      "stateMutability": "view",
      "type": "function"
    },
    {
      "inputs": [
        {
          "internalType": "uint256",
          "name": "_supply",
          "type": "uint256"
        },
        {
          "internalType": "uint256",
          "name": "_poolBalance",
          "type": "uint256"
        },
        {
          "internalType": "uint256",
          "name": "_reserveRatio",
          "type": "uint256"
        },
        {
          "internalType": "uint256",
          "name": "_tokens",
          "type": "uint256"
        }
      ],
      "name": "calculateSaleReturn",
      "outputs": [
        {
          "internalType": "uint256",
          "name": "",
          "type": "uint256"
        }
      ],
      "stateMutability": "view",
      "type": "function"
    },
    {
      "inputs": [],
      "name": "initMaxExpArray",
      "outputs": [],
      "stateMutability": "nonpayable",
      "type": "function"
    },
    {
      "inputs": [],
      "name": "maxRatio",
      "outputs": [
        {
          "internalType": "uint256",
          "name": "",
          "type": "uint256"
        }
      ],
      "stateMutability": "view",
      "type": "function"
    },
    {
      "inputs": [],
      "name": "slopeInit",
      "outputs": [
        {
          "internalType": "uint256",
          "name": "",
          "type": "uint256"
        }
      ],
      "stateMutability": "view",
      "type": "function"
    }
  ],
  "bytecode": {
    "object": "0x608060405234801561001057600080fd5b5061073f6001641c35fedd1560601b036020556001646c3390ecc9605e1b036021556001640cf801476160611b0360225560016431bdb23e1d605f1b0360235560016502fb1d8fe083605b1b0360245560016505b771955b37605a1b036025556001650af67a93bb5160591b0360265560016515060c256cb360581b036027556001651428a2f98d7360581b036028556001654d515663970960561b03602955600165944620b0e70f60551b03602a55600166011c592761c66760541b03602b5560016602214d10d014eb60531b03602c55600166020ade36b7dbef60531b03602d5560016603eab73b3bbfe360521b03602e556001660782ee3593f6d760511b03602f556001661ccf4b44bb4821604f1b0360305560016606e7f88ad8a77760511b0360315560016669f3d1c921891d604d1b03603255600166cb2ff529eb71e5604c1b03603355600166c2d415c3db974b604c1b0360345560016702eb40f9f620fda7604a1b0360355560016705990681d961a1eb60491b03603655600167055e12902701414760491b0360375560016714962dee9dc9764160471b0360385560016704ef57b9b560fab560491b0360395560016712ed7b32a58f552b60471b03603a556001679131271922eaa60760441b03603b556001678b380f3558668c4760441b03603c556001680215f77c045fbe885760421b03603d556001600160831b03603e556001670f577eded5773a1160471b03603f556001680eb5ec597592befbf5603f1b036040556001681c35fedd14b861eb05603e1b036041556001683619c87664579bc94b603d1b0360425560016867c00a3b07ffc01fd7603c1b03604355600168c6f6c8f8739773a7a5603b1b03604455600168bec763f8209b7a72b1603b1b0360455560016902dbb8caad9b7097b91b60391b03604655600169057b3d49dda84556d6f760381b03604755600169054183095b2c8ececf3160381b036048556001690a14517cc6b9457111ef60371b0360495560016913545598e5c23276ccf160361b03604a556001692511882c39c3adea96ff60351b03604b55600169471649d87199aa99075760341b03604c557004429a21a029d4c1457cfbffffffffffff604d55700415bc6d6fb7dd71af2cb3ffffffffffff604e557003eab73b3bbfe282243ce1ffffffffffff604f557003c1771ac9fb6b4c18e229ffffffffffff605055700399e96897690418f785257fffffffffff605155700373fc456c53bb779bf0ea9fffffffffff60525570034f9e8e490c48e67e6ab8bfffffffffff60535570032cbfd4a7adc790560b3337ffffffffff60545570030b50570f6e5d2acca94613ffffffffff6055557002eb40f9f620fda6b56c2861ffffffffff6056557002cc8340ecb0d0f520a6af58ffffffffff6057557002af09481380a0a35cf1ba02ffffffffff605855700292c5bdd3b92ec810287b1b3fffffffff605955700277abdcdab07d5a77ac6d6b9fffffffff605a5570025daf6654b1eaa55fd64df5efffffffff605b55700244c49c648baa98192dce88b7ffffffff605c5570022ce03cd5619a311b2471268bffffffff605d55700215f77c045fbe885654a44a0fffffffff605e556001600160811b03605f557001eaefdbdaaee7421fc4d3ede5ffffffff6060557001d6bd8b2eb257df7e8ca57b09bfffffff6061557001c35fedd14b861eb0443f7f133fffffff6062557001b0ce43b322bcde4a56e8ada5afffffff60635570019f0028ec1fff007f5a195a39dfffffff60645570018ded91f0e72ee74f49b15ba527ffffff60655570017d8ec7f04136f4e5615fd41a63ffffff60665570016ddc6556cdb84bdc8d12d22e6fffffff60675570015ecf52776a1155b5bd8395814f7fffff60685570015060c256cb23b3b3cc3754cf40ffffff6069557001428a2f98d728ae223ddab715be3fffff606a5570013545598e5c23276ccf0ede68034fffff606b557001288c4161ce1d6f54b7f61081194fffff606c5570011c592761c666aa641d5a01a40f17ffff606d55700110a688680a7530515f3e6e6cfdcdffff606e557001056f1b5bedf75c6bcb2ce8aed428ffff606f556ffaadceceeff8a0890f3875f008277fff6070556ff05dc6b27edad306388a600f6ba0bfff6071556fe67a5a25da41063de1495d5b18cdbfff6072556fdcff115b14eedde6fc3aa5353f2e4fff6073556fd3e7a3924312399f9aae2e0f868f8fff6074556fcb2ff529eb71e41582cccd5a1ee26fff6075556fc2d415c3db974ab32a51840c0b67edff6076556fbad03e7d883f69ad5b0a186184e06bff6077556fb320d03b2c343d4829abd6075f0cc5ff6078556fabc25204e02828d73c6e80bcdb1a95bf6079556fa4b16f74ee4bb2040a1ec6c15fbbf2df607a556f9deaf736ac1f569deb1b5ae3f36c130f607b556f976bd9952c7aa957f5937d790ef65037607c556f9131271922eaa6064b73a22d0bd4f2bf607d556f8b380f3558668c46c91c49a2f8e967b9607e556f857ddf0117efa215952912839f6473e6607f55565b6122648061074e6000396000f3fe608060405234801561001057600080fd5b50600436106100625760003560e01c806376365af71461006757806381c3ae3a1461008357806395eed52414610096578063aa248a46146100a9578063ec6fd46014610880578063f60e8c2b14610893575b600080fd5b610071620f424081565b60405190815260200160405180910390f35b61007161009136600461209b565b6108a1565b6100716100a436600461209b565b610991565b61087e701c35fedd14ffffffffffffffffffffffff602055701b0ce43b323fffffffffffffffffffffff6021557019f0028ec1ffffffffffffffffffffffff6022557018ded91f0e7fffffffffffffffffffffff6023557017d8ec7f0417ffffffffffffffffffffff6024557016ddc6556cdbffffffffffffffffffffff6025557015ecf52776a1ffffffffffffffffffffff6026557015060c256cb2ffffffffffffffffffffff602755701428a2f98d72ffffffffffffffffffffff6028557013545598e5c23fffffffffffffffffffff602955701288c4161ce1dfffffffffffffffffffff602a557011c592761c666fffffffffffffffffffff602b5570110a688680a757ffffffffffffffffffff602c55701056f1b5bedf77ffffffffffffffffffff602d55700faadceceeff8bffffffffffffffffffff602e55700f05dc6b27edadffffffffffffffffffff602f55700e67a5a25da4107fffffffffffffffffff603055700dcff115b14eedffffffffffffffffffff603155700d3e7a392431239fffffffffffffffffff603255700cb2ff529eb71e4fffffffffffffffffff603355700c2d415c3db974afffffffffffffffffff603455700bad03e7d883f69bffffffffffffffffff603555700b320d03b2c343d5ffffffffffffffffff603655700abc25204e02828dffffffffffffffffff603755700a4b16f74ee4bb207fffffffffffffffff6038557009deaf736ac1f569ffffffffffffffffff603955700976bd9952c7aa957fffffffffffffffff603a557009131271922eaa606fffffffffffffffff603b557008b380f3558668c46fffffffffffffffff603c55700857ddf0117efa215bffffffffffffffff603d557007ffffffffffffffffffffffffffffffff603e557007abbf6f6abb9d087fffffffffffffffff603f5570075af62cbac95f7dfa7fffffffffffffff60405570070d7fb7452e187ac13fffffffffffffff6041557006c3390ecc8af379295fffffffffffffff60425570067c00a3b07ffc01fd6fffffffffffffff604355700637b647c39cbb9d3d27ffffffffffffff6044557005f63b1fc104dbd39587ffffffffffffff6045557005b771955b36e12f7235ffffffffffffff60465570057b3d49dda84556d6f6ffffffffffffff60475570054183095b2c8ececf30ffffffffffffff60485570050a28be635ca2b888f77fffffffffffff6049557004d5156639708c9db33c3fffffffffffff604a557004a23105873875bd52dfdfffffffffffff604b55700471649d87199aa990756fffffffffffff604c557004429a21a029d4c1457cfbffffffffffff604d55700415bc6d6fb7dd71af2cb3ffffffffffff604e557003eab73b3bbfe282243ce1ffffffffffff604f557003c1771ac9fb6b4c18e229ffffffffffff605055700399e96897690418f785257fffffffffff605155700373fc456c53bb779bf0ea9fffffffffff60525570034f9e8e490c48e67e6ab8bfffffffffff60535570032cbfd4a7adc790560b3337ffffffffff60545570030b50570f6e5d2acca94613ffffffffff6055557002eb40f9f620fda6b56c2861ffffffffff6056557002cc8340ecb0d0f520a6af58ffffffffff6057557002af09481380a0a35cf1ba02ffffffffff605855700292c5bdd3b92ec810287b1b3fffffffff605955700277abdcdab07d5a77ac6d6b9fffffffff605a5570025daf6654b1eaa55fd64df5efffffffff605b55700244c49c648baa98192dce88b7ffffffff605c5570022ce03cd5619a311b2471268bffffffff605d55700215f77c045fbe885654a44a0fffffffff605e557001ffffffffffffffffffffffffffffffff605f557001eaefdbdaaee7421fc4d3ede5ffffffff6060557001d6bd8b2eb257df7e8ca57b09bfffffff6061557001c35fedd14b861eb0443f7f133fffffff6062557001b0ce43b322bcde4a56e8ada5afffffff60635570019f0028ec1fff007f5a195a39dfffffff60645570018ded91f0e72ee74f49b15ba527ffffff60655570017d8ec7f04136f4e5615fd41a63ffffff60665570016ddc6556cdb84bdc8d12d22e6fffffff60675570015ecf52776a1155b5bd8395814f7fffff60685570015060c256cb23b3b3cc3754cf40ffffff6069557001428a2f98d728ae223ddab715be3fffff606a5570013545598e5c23276ccf0ede68034fffff606b557001288c4161ce1d6f54b7f61081194fffff606c5570011c592761c666aa641d5a01a40f17ffff606d55700110a688680a7530515f3e6e6cfdcdffff606e557001056f1b5bedf75c6bcb2ce8aed428ffff606f556ffaadceceeff8a0890f3875f008277fff6070556ff05dc6b27edad306388a600f6ba0bfff6071556fe67a5a25da41063de1495d5b18cdbfff6072556fdcff115b14eedde6fc3aa5353f2e4fff6073556fd3e7a3924312399f9aae2e0f868f8fff6074556fcb2ff529eb71e41582cccd5a1ee26fff6075556fc2d415c3db974ab32a51840c0b67edff6076556fbad03e7d883f69ad5b0a186184e06bff6077556fb320d03b2c343d4829abd6075f0cc5ff6078556fabc25204e02828d73c6e80bcdb1a95bf6079556fa4b16f74ee4bb2040a1ec6c15fbbf2df607a556f9deaf736ac1f569deb1b5ae3f36c130f607b556f976bd9952c7aa957f5937d790ef65037607c556f9131271922eaa6064b73a22d0bd4f2bf607d556f8b380f3558668c46c91c49a2f8e967b9607e556f857ddf0117efa215952912839f6473e6607f55565b005b61007161088e3660046120cd565b610a64565b610071660292ad53ffa0a181565b60008085116108e85760405162461bcd60e51b815260206004820152600e60248201526d494e56414c49445f535550504c5960901b60448201526064015b60405180910390fd5b6000841161092f5760405162461bcd60e51b8152602060048201526014602482015273494e56414c49445f504f4f4c5f42414c414e434560601b60448201526064016108df565b8482141561093e575082610989565b6000806109598761094f8682612105565b620f424088610abe565b90925090508160ff821687901b610970828961211c565b61097a9190612105565b6109849190612151565b925050505b949350505050565b60008085116109d35760405162461bcd60e51b815260206004820152600e60248201526d494e56414c49445f535550504c5960901b60448201526064016108df565b60008411610a1a5760405162461bcd60e51b8152602060048201526014602482015273494e56414c49445f504f4f4c5f42414c414e434560601b60448201526064016108df565b600080610a35610a2a8786612165565b8787620f4240610abe565b9092509050600060ff8216610a4a848a61211c565b901c9050610a588882612105565b98975050505050505050565b6000620f4240821415610a8957610a82660292ad53ffa0a18461211c565b9050610ab8565b600080610aaf610aa0660292ad53ffa0a18761211c565b85620f424087620f4240610b9d565b60ff161c925050505b92915050565b600080600160811b8610610ad157600080fd5b60008086610ae36001607f1b8a61211c565b610aed9190612151565b905070015bf0a8b1457695355fb8ac404e7a79e3811015610b1857610b1181610c7c565b9150610b24565b610b21816111f5565b91505b600085610b31888561211c565b610b3b9190612151565b9050600160831b811015610b6057610b52816112ea565b607f94509450505050610b94565b6000610b6b82611915565b9050610b87610b7b82607f612193565b60ff1683901c826119c8565b95509350610b9492505050565b94509492505050565b600080600160811b8710610bb057600080fd5b600080876001607f1b610bc3898c61211c565b610bcd919061211c565b610bd79190612151565b905070015bf0a8b1457695355fb8ac404e7a79e3811015610c0257610bfb81610c7c565b9150610c0e565b610c0b816111f5565b91505b600085610c1b888561211c565b610c259190612151565b9050600160831b811015610c4a57610c3c816112ea565b607f94509450505050610c72565b6000610c5582611915565b9050610c65610b7b82607f612193565b95509350610c7292505050565b9550959350505050565b6000808080806fd3094c70f034de4b96ff7d5b6f99fcd88610610cd557610ca76001607e1b85612165565b93506fd3094c70f034de4b96ff7d5b6f99fcd8610cc86001607f1b8861211c565b610cd29190612151565b95505b6fa45af1e1f40c333b3de1db4dd55f29a78610610d2857610cfa6001607d1b85612165565b93506fa45af1e1f40c333b3de1db4dd55f29a7610d1b6001607f1b8861211c565b610d259190612151565b95505b6f910b022db7ae67ce76b441c27035c6a18610610d7b57610d4d6001607c1b85612165565b93506f910b022db7ae67ce76b441c27035c6a1610d6e6001607f1b8861211c565b610d789190612151565b95505b6f88415abbe9a76bead8d00cf112e4d4a88610610dce57610da06001607b1b85612165565b93506f88415abbe9a76bead8d00cf112e4d4a8610dc16001607f1b8861211c565b610dcb9190612151565b95505b6f84102b00893f64c705e841d5d4064bd38610610e2157610df36001607a1b85612165565b93506f84102b00893f64c705e841d5d4064bd3610e146001607f1b8861211c565b610e1e9190612151565b95505b6f8204055aaef1c8bd5c3259f4822735a28610610e7457610e46600160791b85612165565b93506f8204055aaef1c8bd5c3259f4822735a2610e676001607f1b8861211c565b610e719190612151565b95505b6f810100ab00222d861931c15e39b44e998610610ec757610e99600160781b85612165565b93506f810100ab00222d861931c15e39b44e99610eba6001607f1b8861211c565b610ec49190612151565b95505b6f808040155aabbbe9451521693554f7338610610f1a57610eec600160771b85612165565b93506f808040155aabbbe9451521693554f733610f0d6001607f1b8861211c565b610f179190612151565b95505b610f286001607f1b87612105565b92508291506001607f1b610f3c838061211c565b610f469190612151565b9050600160801b610f578482612105565b610f61908461211c565b610f6b9190612151565b610f759085612165565b93506001607f1b610f86828461211c565b610f909190612151565b9150600160811b610fb1846faaaaaaaaaaaaaaaaaaaaaaaaaaaaaaaa612105565b610fbb908461211c565b610fc59190612151565b610fcf9085612165565b93506001607f1b610fe0828461211c565b610fea9190612151565b9150600360801b61100b846f99999999999999999999999999999999612105565b611015908461211c565b61101f9190612151565b6110299085612165565b93506001607f1b61103a828461211c565b6110449190612151565b9150600160821b611065846f92492492492492492492492492492492612105565b61106f908461211c565b6110799190612151565b6110839085612165565b93506001607f1b611094828461211c565b61109e9190612151565b9150600560801b6110bf846f8e38e38e38e38e38e38e38e38e38e38e612105565b6110c9908461211c565b6110d39190612151565b6110dd9085612165565b93506001607f1b6110ee828461211c565b6110f89190612151565b9150600360811b611119846f8ba2e8ba2e8ba2e8ba2e8ba2e8ba2e8b612105565b611123908461211c565b61112d9190612151565b6111379085612165565b93506001607f1b611148828461211c565b6111529190612151565b9150600760801b611173846f89d89d89d89d89d89d89d89d89d89d89612105565b61117d908461211c565b6111879190612151565b6111919085612165565b93506001607f1b6111a2828461211c565b6111ac9190612151565b9150600160831b6111cd846f88888888888888888888888888888888612105565b6111d7908461211c565b6111e19190612151565b6111eb9085612165565b9695505050505050565b600080600160801b831061123957600061121b6112166001607f1b86612151565b61202f565b60ff811694851c94909150611235906001607f1b9061211c565b9150505b6001607f1b8311156112ae57607f5b60ff8116156112ac576001607f1b611260858061211c565b61126a9190612151565b9350600160801b841061129c57600193841c936112879082612193565b60ff166001901b826112999190612165565b91505b6112a5816121b6565b9050611248565b505b6f05b9de1d10bf4103d647b0955897ba806112d96f03f80fe03f80fe03f80fe03f80fe03f88361211c565b6112e39190612151565b9392505050565b60008080806112fd6001607c1b866121d3565b91508190506001607f1b611311828061211c565b61131b9190612151565b905061132f816710e1b3be415a000061211c565b6113399084612165565b92506001607f1b61134a838361211c565b6113549190612151565b9050611368816705a0913f6b1e000061211c565b6113729084612165565b92506001607f1b611383838361211c565b61138d9190612151565b90506113a181670168244fdac7800061211c565b6113ab9084612165565b92506001607f1b6113bc838361211c565b6113c69190612151565b90506113d981664807432bc1800061211c565b6113e39084612165565b92506001607f1b6113f4838361211c565b6113fe9190612151565b905061141181660c0135dca0400061211c565b61141b9084612165565b92506001607f1b61142c838361211c565b6114369190612151565b9050611449816601b707b1cdc00061211c565b6114539084612165565b92506001607f1b611464838361211c565b61146e9190612151565b9050611480816536e0f639b80061211c565b61148a9084612165565b92506001607f1b61149b838361211c565b6114a59190612151565b90506114b781650618fee9f80061211c565b6114c19084612165565b92506001607f1b6114d2838361211c565b6114dc9190612151565b90506114ed81649c197dcc0061211c565b6114f79084612165565b92506001607f1b611508838361211c565b6115129190612151565b905061152381640e30dce40061211c565b61152d9084612165565b92506001607f1b61153e838361211c565b6115489190612151565b90506115598164012ebd130061211c565b6115639084612165565b92506001607f1b611574838361211c565b61157e9190612151565b905061158e816317499f0061211c565b6115989084612165565b92506001607f1b6115a9838361211c565b6115b39190612151565b90506115c3816301a9d48061211c565b6115cd9084612165565b92506001607f1b6115de838361211c565b6115e89190612151565b90506115f781621c638061211c565b6116019084612165565b92506001607f1b611612838361211c565b61161c9190612151565b905061162b816201c63861211c565b6116359084612165565b92506001607f1b611646838361211c565b6116509190612151565b905061165e81611ab861211c565b6116689084612165565b92506001607f1b611679838361211c565b6116839190612151565b90506116918161017c61211c565b61169b9084612165565b92506001607f1b6116ac838361211c565b6116b69190612151565b90506116c381601461211c565b6116cd9084612165565b92506001607f1b6116de838361211c565b6116e89190612151565b90506116f581600161211c565b6116ff9084612165565b92506001607f1b826117196721c3677c82b4000086612151565b6117239190612165565b61172d9190612165565b92506001607c1b8516156117755770018ebef9eac820ae8682b9793ac6d1e776611768847001c3d6a24ed82218787d624d3e5eba95f961211c565b6117729190612151565b92505b6001607d1b8516156117bb577001368b2fc6f9609fe7aceb46aa619baed46117ae8470018ebef9eac820ae8682b9793ac6d1e77861211c565b6117b89190612151565b92505b6001607e1b851615611800576fbc5ab1b16779be3575bd8f0520a9f21f6117f3847001368b2fc6f9609fe7aceb46aa619baed561211c565b6117fd9190612151565b92505b6001607f1b851615611844576f454aaa8efe072e7f6ddbab84b40a55c9611837846fbc5ab1b16779be3575bd8f0520a9f21e61211c565b6118419190612151565b92505b600160801b851615611888576f0960aadc109e7a3bf4578099615711ea61187b846f454aaa8efe072e7f6ddbab84b40a55c561211c565b6118859190612151565b92505b600160811b8516156118cb576e2bf84208204f5977f9a8cf01fdce3d6118be846f0960aadc109e7a3bf4578099615711d761211c565b6118c89190612151565b92505b600160821b85161561190c576d03c6ab775dd0b95b4cbee7e65d116118ff846e2bf84208204f5977f9a8cf01fdc30761211c565b6119099190612151565b92505b50909392505050565b60006020607f5b60ff811661192b8360016121e7565b60ff16101561197e576000600261194283856121e7565b61194c919061220c565b90508460008260ff16608081106119655761196561217d565b01541061197457809250611978565b8091505b5061191c565b8360008260ff16608081106119955761199561217d565b0154106119a3579392505050565b8360008360ff16608081106119ba576119ba61217d565b015410610062575092915050565b6000828160ff84166119da838061211c565b901c91506119f8826f03442c4e6074a82f1797f72ac000000061211c565b611a029082612165565b905060ff8416611a12868461211c565b901c9150611a30826f0116b96f757c380fb287fd0e4000000061211c565b611a3a9082612165565b905060ff8416611a4a868461211c565b901c9150611a67826e45ae5bdd5f0e03eca1ff439000000061211c565b611a719082612165565b905060ff8416611a81868461211c565b901c9150611a9e826e0defabf91302cd95b9ffda5000000061211c565b611aa89082612165565b905060ff8416611ab8868461211c565b901c9150611ad5826e02529ca9832b22439efff9b800000061211c565b611adf9082612165565b905060ff8416611aef868461211c565b901c9150611b0b826d54f1cf12bd04e516b6da8800000061211c565b611b159082612165565b905060ff8416611b25868461211c565b901c9150611b41826d0a9e39e257a09ca2d6db5100000061211c565b611b4b9082612165565b905060ff8416611b5b868461211c565b901c9150611b77826d012e066e7b839fa050c30900000061211c565b611b819082612165565b905060ff8416611b91868461211c565b901c9150611bac826c1e33d7d926c329a1ad1a80000061211c565b611bb69082612165565b905060ff8416611bc6868461211c565b901c9150611be1826c02bee513bdb4a6b19b5f80000061211c565b611beb9082612165565b905060ff8416611bfb868461211c565b901c9150611c15826b3a9316fa79b88eccf2a0000061211c565b611c1f9082612165565b905060ff8416611c2f868461211c565b901c9150611c49826b048177ebe1fa81237520000061211c565b611c539082612165565b905060ff8416611c63868461211c565b901c9150611c7c826a5263fe90242dcbacf0000061211c565b611c869082612165565b905060ff8416611c96868461211c565b901c9150611caf826a057e22099c030d9410000061211c565b611cb99082612165565b905060ff8416611cc9868461211c565b901c9150611ce1826957e22099c030d941000061211c565b611ceb9082612165565b905060ff8416611cfb868461211c565b901c9150611d138269052b6b5456997631000061211c565b611d1d9082612165565b905060ff8416611d2d868461211c565b901c9150611d4482684985f67696bf74800061211c565b611d4e9082612165565b905060ff8416611d5e868461211c565b901c9150611d75826803dea12ea99e49800061211c565b611d7f9082612165565b905060ff8416611d8f868461211c565b901c9150611da5826731880f2214b6e00061211c565b611daf9082612165565b905060ff8416611dbf868461211c565b901c9150611dd58267025bcff56eb3600061211c565b611ddf9082612165565b905060ff8416611def868461211c565b901c9150611e0482661b722e10ab100061211c565b611e0e9082612165565b905060ff8416611e1e868461211c565b901c9150611e33826601317c7007700061211c565b611e3d9082612165565b905060ff8416611e4d868461211c565b901c9150611e6182650cba84aafa0061211c565b611e6b9082612165565b905060ff8416611e7b868461211c565b901c9150611e8e826482573a0a0061211c565b611e989082612165565b905060ff8416611ea8868461211c565b901c9150611ebb826405035ad90061211c565b611ec59082612165565b905060ff8416611ed5868461211c565b901c9150611ee782632f881b0061211c565b611ef19082612165565b905060ff8416611f01868461211c565b901c9150611f13826301b2934061211c565b611f1d9082612165565b905060ff8416611f2d868461211c565b901c9150611f3e82620efc4061211c565b611f489082612165565b905060ff8416611f58868461211c565b901c9150611f6882617fe061211c565b611f729082612165565b905060ff8416611f82868461211c565b901c9150611f928261042061211c565b611f9c9082612165565b905060ff8416611fac868461211c565b901c9150611fbb82602161211c565b611fc59082612165565b905060ff8416611fd5868461211c565b901c9150611fe482600161211c565b611fee9082612165565b9050600160ff85161b856120126f0688589cc0e9505e2f2fee558000000084612151565b61201c9190612165565b6120269190612165565b95945050505050565b600080610100831015612062575b600183111561205d57600192831c9261205690826121e7565b905061203d565b610ab8565b60805b60ff81161561209457600160ff82161b84106120895760ff81169390931c92908117905b60011c607f16612065565b5092915050565b600080600080608085870312156120b157600080fd5b5050823594602084013594506040840135936060013592509050565b600080604083850312156120e057600080fd5b50508035926020909101359150565b634e487b7160e01b600052601160045260246000fd5b600082821015612117576121176120ef565b500390565b6000816000190483118215151615612136576121366120ef565b500290565b634e487b7160e01b600052601260045260246000fd5b6000826121605761216061213b565b500490565b60008219821115612178576121786120ef565b500190565b634e487b7160e01b600052603260045260246000fd5b600060ff821660ff8416808210156121ad576121ad6120ef565b90039392505050565b600060ff8216806121c9576121c96120ef565b6000190192915050565b6000826121e2576121e261213b565b500690565b600060ff821660ff84168060ff03821115612204576122046120ef565b019392505050565b600060ff83168061221f5761221f61213b565b8060ff8416049150509291505056fea2646970667358221220287c3c61fde63731d86a87117862a1b5ecd5654b18226f936ac1cc7c706007df64736f6c634300080b0033",
    "linkReferences": {}
  }
}