{
  "abi": [
    {
      "inputs": [],
      "name": "InvalidPoolBalance",
      "type": "error"
    },
    {
      "inputs": [],
      "name": "InvalidSupply",
      "type": "error"
    },
    {
      "inputs": [
        {
          "internalType": "uint256",
          "name": "_tokens",
          "type": "uint256"
        },
        {
          "internalType": "uint256",
          "name": "_reserveRatio",
          "type": "uint256"
        },
        {
          "internalType": "uint256",
          "name": "_slopeInit",
          "type": "uint256"
        }
      ],
      "name": "calculateInitializationPrice",
      "outputs": [
        {
          "internalType": "uint256",
          "name": "",
          "type": "uint256"
        }
      ],
      "stateMutability": "view",
      "type": "function"
    },
    {
      "inputs": [
        {
          "internalType": "uint256",
          "name": "_price",
          "type": "uint256"
        },
        {
          "internalType": "uint256",
          "name": "_reserveRatio",
          "type": "uint256"
        },
        {
          "internalType": "uint256",
          "name": "_slopeInit",
          "type": "uint256"
        }
      ],
      "name": "calculateInitializationReturn",
      "outputs": [
        {
          "internalType": "uint256",
          "name": "",
          "type": "uint256"
        }
      ],
      "stateMutability": "view",
      "type": "function"
    },
    {
      "inputs": [
        {
          "internalType": "uint256",
          "name": "_supply",
          "type": "uint256"
        },
        {
          "internalType": "uint256",
          "name": "_poolBalance",
          "type": "uint256"
        },
        {
          "internalType": "uint256",
          "name": "_reserveRatio",
          "type": "uint256"
        },
        {
          "internalType": "uint256",
          "name": "_tokens",
          "type": "uint256"
        }
      ],
      "name": "calculatePurchasePrice",
      "outputs": [
        {
          "internalType": "uint256",
          "name": "",
          "type": "uint256"
        }
      ],
      "stateMutability": "view",
      "type": "function"
    },
    {
      "inputs": [
        {
          "internalType": "uint256",
          "name": "_supply",
          "type": "uint256"
        },
        {
          "internalType": "uint256",
          "name": "_poolBalance",
          "type": "uint256"
        },
        {
          "internalType": "uint256",
          "name": "_reserveRatio",
          "type": "uint256"
        },
        {
          "internalType": "uint256",
          "name": "_price",
          "type": "uint256"
        }
      ],
      "name": "calculatePurchaseReturn",
      "outputs": [
        {
          "internalType": "uint256",
          "name": "",
          "type": "uint256"
        }
      ],
      "stateMutability": "view",
      "type": "function"
    },
    {
      "inputs": [
        {
          "internalType": "uint256",
          "name": "_supply",
          "type": "uint256"
        },
        {
          "internalType": "uint256",
          "name": "_poolBalance",
          "type": "uint256"
        },
        {
          "internalType": "uint256",
          "name": "_reserveRatio",
          "type": "uint256"
        },
        {
          "internalType": "uint256",
          "name": "_price",
          "type": "uint256"
        }
      ],
      "name": "calculateSalePrice",
      "outputs": [
        {
          "internalType": "uint256",
          "name": "",
          "type": "uint256"
        }
      ],
      "stateMutability": "view",
      "type": "function"
    },
    {
      "inputs": [
        {
          "internalType": "uint256",
          "name": "_supply",
          "type": "uint256"
        },
        {
          "internalType": "uint256",
          "name": "_poolBalance",
          "type": "uint256"
        },
        {
          "internalType": "uint256",
          "name": "_reserveRatio",
          "type": "uint256"
        },
        {
          "internalType": "uint256",
          "name": "_tokens",
          "type": "uint256"
        }
      ],
      "name": "calculateSaleReturn",
      "outputs": [
        {
          "internalType": "uint256",
          "name": "",
          "type": "uint256"
        }
      ],
      "stateMutability": "view",
      "type": "function"
    },
    {
      "inputs": [],
      "name": "maxRatio",
      "outputs": [
        {
          "internalType": "uint256",
          "name": "",
          "type": "uint256"
        }
      ],
      "stateMutability": "view",
      "type": "function"
    }
  ],
  "bytecode": {
    "object": "0x608060405234801561001057600080fd5b5061073f6001641c35fedd1560601b036020556001646c3390ecc9605e1b036021556001640cf801476160611b0360225560016431bdb23e1d605f1b0360235560016502fb1d8fe083605b1b0360245560016505b771955b37605a1b036025556001650af67a93bb5160591b0360265560016515060c256cb360581b036027556001651428a2f98d7360581b036028556001654d515663970960561b03602955600165944620b0e70f60551b03602a55600166011c592761c66760541b03602b5560016602214d10d014eb60531b03602c55600166020ade36b7dbef60531b03602d5560016603eab73b3bbfe360521b03602e556001660782ee3593f6d760511b03602f556001661ccf4b44bb4821604f1b0360305560016606e7f88ad8a77760511b0360315560016669f3d1c921891d604d1b03603255600166cb2ff529eb71e5604c1b03603355600166c2d415c3db974b604c1b0360345560016702eb40f9f620fda7604a1b0360355560016705990681d961a1eb60491b03603655600167055e12902701414760491b0360375560016714962dee9dc9764160471b0360385560016704ef57b9b560fab560491b0360395560016712ed7b32a58f552b60471b03603a556001679131271922eaa60760441b03603b556001678b380f3558668c4760441b03603c556001680215f77c045fbe885760421b03603d556001600160831b03603e556001670f577eded5773a1160471b03603f556001680eb5ec597592befbf5603f1b036040556001681c35fedd14b861eb05603e1b036041556001683619c87664579bc94b603d1b0360425560016867c00a3b07ffc01fd7603c1b03604355600168c6f6c8f8739773a7a5603b1b03604455600168bec763f8209b7a72b1603b1b0360455560016902dbb8caad9b7097b91b60391b03604655600169057b3d49dda84556d6f760381b03604755600169054183095b2c8ececf3160381b036048556001690a14517cc6b9457111ef60371b0360495560016913545598e5c23276ccf160361b03604a556001692511882c39c3adea96ff60351b03604b55600169471649d87199aa99075760341b03604c557004429a21a029d4c1457cfbffffffffffff604d55700415bc6d6fb7dd71af2cb3ffffffffffff604e557003eab73b3bbfe282243ce1ffffffffffff604f557003c1771ac9fb6b4c18e229ffffffffffff605055700399e96897690418f785257fffffffffff605155700373fc456c53bb779bf0ea9fffffffffff60525570034f9e8e490c48e67e6ab8bfffffffffff60535570032cbfd4a7adc790560b3337ffffffffff60545570030b50570f6e5d2acca94613ffffffffff6055557002eb40f9f620fda6b56c2861ffffffffff6056557002cc8340ecb0d0f520a6af58ffffffffff6057557002af09481380a0a35cf1ba02ffffffffff605855700292c5bdd3b92ec810287b1b3fffffffff605955700277abdcdab07d5a77ac6d6b9fffffffff605a5570025daf6654b1eaa55fd64df5efffffffff605b55700244c49c648baa98192dce88b7ffffffff605c5570022ce03cd5619a311b2471268bffffffff605d55700215f77c045fbe885654a44a0fffffffff605e556001600160811b03605f557001eaefdbdaaee7421fc4d3ede5ffffffff6060557001d6bd8b2eb257df7e8ca57b09bfffffff6061557001c35fedd14b861eb0443f7f133fffffff6062557001b0ce43b322bcde4a56e8ada5afffffff60635570019f0028ec1fff007f5a195a39dfffffff60645570018ded91f0e72ee74f49b15ba527ffffff60655570017d8ec7f04136f4e5615fd41a63ffffff60665570016ddc6556cdb84bdc8d12d22e6fffffff60675570015ecf52776a1155b5bd8395814f7fffff60685570015060c256cb23b3b3cc3754cf40ffffff6069557001428a2f98d728ae223ddab715be3fffff606a5570013545598e5c23276ccf0ede68034fffff606b557001288c4161ce1d6f54b7f61081194fffff606c5570011c592761c666aa641d5a01a40f17ffff606d55700110a688680a7530515f3e6e6cfdcdffff606e557001056f1b5bedf75c6bcb2ce8aed428ffff606f556ffaadceceeff8a0890f3875f008277fff6070556ff05dc6b27edad306388a600f6ba0bfff6071556fe67a5a25da41063de1495d5b18cdbfff6072556fdcff115b14eedde6fc3aa5353f2e4fff6073556fd3e7a3924312399f9aae2e0f868f8fff6074556fcb2ff529eb71e41582cccd5a1ee26fff6075556fc2d415c3db974ab32a51840c0b67edff6076556fbad03e7d883f69ad5b0a186184e06bff6077556fb320d03b2c343d4829abd6075f0cc5ff6078556fabc25204e02828d73c6e80bcdb1a95bf6079556fa4b16f74ee4bb2040a1ec6c15fbbf2df607a556f9deaf736ac1f569deb1b5ae3f36c130f607b556f976bd9952c7aa957f5937d790ef65037607c556f9131271922eaa6064b73a22d0bd4f2bf607d556f8b380f3558668c46c91c49a2f8e967b9607e556f857ddf0117efa215952912839f6473e6607f55565b611a928061074e6000396000f3fe608060405234801561001057600080fd5b506004361061007d5760003560e01c8063b62c23b51161005b578063b62c23b5146100c4578063beb27b86146100d7578063cbf806d0146100ea578063d47d2a76146100fd57600080fd5b806376365af71461008257806381c3ae3a1461009e57806395eed524146100b1575b600080fd5b61008c620f424081565b60405190815260200160405180910390f35b61008c6100ac3660046118bf565b610110565b61008c6100bf3660046118bf565b610174565b61008c6100d23660046118f1565b6101bf565b61008c6100e53660046118bf565b610222565b61008c6100f83660046118bf565b610261565b61008c61010b3660046118f1565b6102a4565b60008482141561012157508261016c565b60008061013c876101328682611933565b620f4240886102e8565b90925090508160ff821687901b610153828961194a565b61015d9190611933565b610167919061197f565b925050505b949350505050565b600080806101906101858786611993565b8787620f42406102e8565b9092509050600060ff82166101a5848a61194a565b901c90506101b38882611933565b98975050505050505050565b6000620f42408314156101dd576101d6828561197f565b905061021b565b6000806101f1866103e8620f4240886102e8565b909250905060ff811682901c620f424061020b878361194a565b610215919061197f565b93505050505b9392505050565b6000808061023e6102338886611993565b88620f4240886102e8565b9092509050600060ff8216610253848961194a565b901c90506101b38782611933565b60008382141561027257508361016c565b60008061028d866102838682611933565b87620f42406102e8565b90925090508160ff821688901b610153828a61194a565b6000620f42408314156102bb576101d6828561194a565b6000806102da6102cb858861194a565b86620f424088620f42406103c7565b60ff161c9695505050505050565b600080600160811b86106102fb57600080fd5b6000808661030d6001607f1b8a61194a565b610317919061197f565b905070015bf0a8b1457695355fb8ac404e7a79e38110156103425761033b816104a6565b915061034e565b61034b81610a1f565b91505b60008561035b888561194a565b610365919061197f565b9050600160831b81101561038a5761037c81610b0d565b607f945094505050506103be565b600061039582611138565b90506103b16103a582607f6119ab565b60ff1683901c826111eb565b955093506103be92505050565b94509492505050565b600080600160811b87106103da57600080fd5b600080876001607f1b6103ed898c61194a565b6103f7919061194a565b610401919061197f565b905070015bf0a8b1457695355fb8ac404e7a79e381101561042c57610425816104a6565b9150610438565b61043581610a1f565b91505b600085610445888561194a565b61044f919061197f565b9050600160831b8110156104745761046681610b0d565b607f9450945050505061049c565b600061047f82611138565b905061048f6103a582607f6119ab565b9550935061049c92505050565b9550959350505050565b6000808080806fd3094c70f034de4b96ff7d5b6f99fcd886106104ff576104d16001607e1b85611993565b93506fd3094c70f034de4b96ff7d5b6f99fcd86104f26001607f1b8861194a565b6104fc919061197f565b95505b6fa45af1e1f40c333b3de1db4dd55f29a78610610552576105246001607d1b85611993565b93506fa45af1e1f40c333b3de1db4dd55f29a76105456001607f1b8861194a565b61054f919061197f565b95505b6f910b022db7ae67ce76b441c27035c6a186106105a5576105776001607c1b85611993565b93506f910b022db7ae67ce76b441c27035c6a16105986001607f1b8861194a565b6105a2919061197f565b95505b6f88415abbe9a76bead8d00cf112e4d4a886106105f8576105ca6001607b1b85611993565b93506f88415abbe9a76bead8d00cf112e4d4a86105eb6001607f1b8861194a565b6105f5919061197f565b95505b6f84102b00893f64c705e841d5d4064bd3861061064b5761061d6001607a1b85611993565b93506f84102b00893f64c705e841d5d4064bd361063e6001607f1b8861194a565b610648919061197f565b95505b6f8204055aaef1c8bd5c3259f4822735a2861061069e57610670600160791b85611993565b93506f8204055aaef1c8bd5c3259f4822735a26106916001607f1b8861194a565b61069b919061197f565b95505b6f810100ab00222d861931c15e39b44e9986106106f1576106c3600160781b85611993565b93506f810100ab00222d861931c15e39b44e996106e46001607f1b8861194a565b6106ee919061197f565b95505b6f808040155aabbbe9451521693554f733861061074457610716600160771b85611993565b93506f808040155aabbbe9451521693554f7336107376001607f1b8861194a565b610741919061197f565b95505b6107526001607f1b87611933565b92508291506001607f1b610766838061194a565b610770919061197f565b9050600160801b6107818482611933565b61078b908461194a565b610795919061197f565b61079f9085611993565b93506001607f1b6107b0828461194a565b6107ba919061197f565b9150600160811b6107db846faaaaaaaaaaaaaaaaaaaaaaaaaaaaaaaa611933565b6107e5908461194a565b6107ef919061197f565b6107f99085611993565b93506001607f1b61080a828461194a565b610814919061197f565b9150600360801b610835846f99999999999999999999999999999999611933565b61083f908461194a565b610849919061197f565b6108539085611993565b93506001607f1b610864828461194a565b61086e919061197f565b9150600160821b61088f846f92492492492492492492492492492492611933565b610899908461194a565b6108a3919061197f565b6108ad9085611993565b93506001607f1b6108be828461194a565b6108c8919061197f565b9150600560801b6108e9846f8e38e38e38e38e38e38e38e38e38e38e611933565b6108f3908461194a565b6108fd919061197f565b6109079085611993565b93506001607f1b610918828461194a565b610922919061197f565b9150600360811b610943846f8ba2e8ba2e8ba2e8ba2e8ba2e8ba2e8b611933565b61094d908461194a565b610957919061197f565b6109619085611993565b93506001607f1b610972828461194a565b61097c919061197f565b9150600760801b61099d846f89d89d89d89d89d89d89d89d89d89d89611933565b6109a7908461194a565b6109b1919061197f565b6109bb9085611993565b93506001607f1b6109cc828461194a565b6109d6919061197f565b9150600160831b6109f7846f88888888888888888888888888888888611933565b610a01908461194a565b610a0b919061197f565b610a159085611993565b9695505050505050565b600080600160801b8310610a63576000610a45610a406001607f1b8661197f565b611852565b60ff811694851c94909150610a5f906001607f1b9061194a565b9150505b6001607f1b831115610ad857607f5b60ff811615610ad6576001607f1b610a8a858061194a565b610a94919061197f565b9350600160801b8410610ac657600193841c93610ab190826119ab565b60ff166001901b82610ac39190611993565b91505b610acf816119ce565b9050610a72565b505b6f05b9de1d10bf4103d647b0955897ba80610b036f03f80fe03f80fe03f80fe03f80fe03f88361194a565b61021b919061197f565b6000808080610b206001607c1b866119eb565b91508190506001607f1b610b34828061194a565b610b3e919061197f565b9050610b52816710e1b3be415a000061194a565b610b5c9084611993565b92506001607f1b610b6d838361194a565b610b77919061197f565b9050610b8b816705a0913f6b1e000061194a565b610b959084611993565b92506001607f1b610ba6838361194a565b610bb0919061197f565b9050610bc481670168244fdac7800061194a565b610bce9084611993565b92506001607f1b610bdf838361194a565b610be9919061197f565b9050610bfc81664807432bc1800061194a565b610c069084611993565b92506001607f1b610c17838361194a565b610c21919061197f565b9050610c3481660c0135dca0400061194a565b610c3e9084611993565b92506001607f1b610c4f838361194a565b610c59919061197f565b9050610c6c816601b707b1cdc00061194a565b610c769084611993565b92506001607f1b610c87838361194a565b610c91919061197f565b9050610ca3816536e0f639b80061194a565b610cad9084611993565b92506001607f1b610cbe838361194a565b610cc8919061197f565b9050610cda81650618fee9f80061194a565b610ce49084611993565b92506001607f1b610cf5838361194a565b610cff919061197f565b9050610d1081649c197dcc0061194a565b610d1a9084611993565b92506001607f1b610d2b838361194a565b610d35919061197f565b9050610d4681640e30dce40061194a565b610d509084611993565b92506001607f1b610d61838361194a565b610d6b919061197f565b9050610d7c8164012ebd130061194a565b610d869084611993565b92506001607f1b610d97838361194a565b610da1919061197f565b9050610db1816317499f0061194a565b610dbb9084611993565b92506001607f1b610dcc838361194a565b610dd6919061197f565b9050610de6816301a9d48061194a565b610df09084611993565b92506001607f1b610e01838361194a565b610e0b919061197f565b9050610e1a81621c638061194a565b610e249084611993565b92506001607f1b610e35838361194a565b610e3f919061197f565b9050610e4e816201c63861194a565b610e589084611993565b92506001607f1b610e69838361194a565b610e73919061197f565b9050610e8181611ab861194a565b610e8b9084611993565b92506001607f1b610e9c838361194a565b610ea6919061197f565b9050610eb48161017c61194a565b610ebe9084611993565b92506001607f1b610ecf838361194a565b610ed9919061197f565b9050610ee681601461194a565b610ef09084611993565b92506001607f1b610f01838361194a565b610f0b919061197f565b9050610f1881600161194a565b610f229084611993565b92506001607f1b82610f3c6721c3677c82b400008661197f565b610f469190611993565b610f509190611993565b92506001607c1b851615610f985770018ebef9eac820ae8682b9793ac6d1e776610f8b847001c3d6a24ed82218787d624d3e5eba95f961194a565b610f95919061197f565b92505b6001607d1b851615610fde577001368b2fc6f9609fe7aceb46aa619baed4610fd18470018ebef9eac820ae8682b9793ac6d1e77861194a565b610fdb919061197f565b92505b6001607e1b851615611023576fbc5ab1b16779be3575bd8f0520a9f21f611016847001368b2fc6f9609fe7aceb46aa619baed561194a565b611020919061197f565b92505b6001607f1b851615611067576f454aaa8efe072e7f6ddbab84b40a55c961105a846fbc5ab1b16779be3575bd8f0520a9f21e61194a565b611064919061197f565b92505b600160801b8516156110ab576f0960aadc109e7a3bf4578099615711ea61109e846f454aaa8efe072e7f6ddbab84b40a55c561194a565b6110a8919061197f565b92505b600160811b8516156110ee576e2bf84208204f5977f9a8cf01fdce3d6110e1846f0960aadc109e7a3bf4578099615711d761194a565b6110eb919061197f565b92505b600160821b85161561112f576d03c6ab775dd0b95b4cbee7e65d11611122846e2bf84208204f5977f9a8cf01fdc30761194a565b61112c919061197f565b92505b50909392505050565b60006020607f5b60ff811661114e8360016119ff565b60ff1610156111a1576000600261116583856119ff565b61116f9190611a24565b90508460008260ff166080811061118857611188611a46565b0154106111975780925061119b565b8091505b5061113f565b8360008260ff16608081106111b8576111b8611a46565b0154106111c6579392505050565b8360008360ff16608081106111dd576111dd611a46565b01541061007d575092915050565b6000828160ff84166111fd838061194a565b901c915061121b826f03442c4e6074a82f1797f72ac000000061194a565b6112259082611993565b905060ff8416611235868461194a565b901c9150611253826f0116b96f757c380fb287fd0e4000000061194a565b61125d9082611993565b905060ff841661126d868461194a565b901c915061128a826e45ae5bdd5f0e03eca1ff439000000061194a565b6112949082611993565b905060ff84166112a4868461194a565b901c91506112c1826e0defabf91302cd95b9ffda5000000061194a565b6112cb9082611993565b905060ff84166112db868461194a565b901c91506112f8826e02529ca9832b22439efff9b800000061194a565b6113029082611993565b905060ff8416611312868461194a565b901c915061132e826d54f1cf12bd04e516b6da8800000061194a565b6113389082611993565b905060ff8416611348868461194a565b901c9150611364826d0a9e39e257a09ca2d6db5100000061194a565b61136e9082611993565b905060ff841661137e868461194a565b901c915061139a826d012e066e7b839fa050c30900000061194a565b6113a49082611993565b905060ff84166113b4868461194a565b901c91506113cf826c1e33d7d926c329a1ad1a80000061194a565b6113d99082611993565b905060ff84166113e9868461194a565b901c9150611404826c02bee513bdb4a6b19b5f80000061194a565b61140e9082611993565b905060ff841661141e868461194a565b901c9150611438826b3a9316fa79b88eccf2a0000061194a565b6114429082611993565b905060ff8416611452868461194a565b901c915061146c826b048177ebe1fa81237520000061194a565b6114769082611993565b905060ff8416611486868461194a565b901c915061149f826a5263fe90242dcbacf0000061194a565b6114a99082611993565b905060ff84166114b9868461194a565b901c91506114d2826a057e22099c030d9410000061194a565b6114dc9082611993565b905060ff84166114ec868461194a565b901c9150611504826957e22099c030d941000061194a565b61150e9082611993565b905060ff841661151e868461194a565b901c91506115368269052b6b5456997631000061194a565b6115409082611993565b905060ff8416611550868461194a565b901c915061156782684985f67696bf74800061194a565b6115719082611993565b905060ff8416611581868461194a565b901c9150611598826803dea12ea99e49800061194a565b6115a29082611993565b905060ff84166115b2868461194a565b901c91506115c8826731880f2214b6e00061194a565b6115d29082611993565b905060ff84166115e2868461194a565b901c91506115f88267025bcff56eb3600061194a565b6116029082611993565b905060ff8416611612868461194a565b901c915061162782661b722e10ab100061194a565b6116319082611993565b905060ff8416611641868461194a565b901c9150611656826601317c7007700061194a565b6116609082611993565b905060ff8416611670868461194a565b901c915061168482650cba84aafa0061194a565b61168e9082611993565b905060ff841661169e868461194a565b901c91506116b1826482573a0a0061194a565b6116bb9082611993565b905060ff84166116cb868461194a565b901c91506116de826405035ad90061194a565b6116e89082611993565b905060ff84166116f8868461194a565b901c915061170a82632f881b0061194a565b6117149082611993565b905060ff8416611724868461194a565b901c9150611736826301b2934061194a565b6117409082611993565b905060ff8416611750868461194a565b901c915061176182620efc4061194a565b61176b9082611993565b905060ff841661177b868461194a565b901c915061178b82617fe061194a565b6117959082611993565b905060ff84166117a5868461194a565b901c91506117b58261042061194a565b6117bf9082611993565b905060ff84166117cf868461194a565b901c91506117de82602161194a565b6117e89082611993565b905060ff84166117f8868461194a565b901c915061180782600161194a565b6118119082611993565b9050600160ff85161b856118356f0688589cc0e9505e2f2fee55800000008461197f565b61183f9190611993565b6118499190611993565b95945050505050565b600080610100831015611885575b600183111561188057600192831c9261187990826119ff565b9050611860565b6118b9565b60805b60ff8116156118b757600160ff82161b84106118ac5760ff81169390931c92908117905b60011c607f16611888565b505b92915050565b600080600080608085870312156118d557600080fd5b5050823594602084013594506040840135936060013592509050565b60008060006060848603121561190657600080fd5b505081359360208301359350604090920135919050565b634e487b7160e01b600052601160045260246000fd5b6000828210156119455761194561191d565b500390565b60008160001904831182151516156119645761196461191d565b500290565b634e487b7160e01b600052601260045260246000fd5b60008261198e5761198e611969565b500490565b600082198211156119a6576119a661191d565b500190565b600060ff821660ff8416808210156119c5576119c561191d565b90039392505050565b600060ff8216806119e1576119e161191d565b6000190192915050565b6000826119fa576119fa611969565b500690565b600060ff821660ff84168060ff03821115611a1c57611a1c61191d565b019392505050565b600060ff831680611a3757611a37611969565b8060ff84160491505092915050565b634e487b7160e01b600052603260045260246000fdfea264697066735822122075c980ccdf46d4ab301c7e25e4ec8a067c0b557d4736414fd9a8fa90147ccb6a64736f6c634300080b0033",
    "linkReferences": {}
  }
}