{
  "abi": [
    {
      "inputs": [
        {
          "internalType": "uint256",
          "name": "_tokens",
          "type": "uint256"
        },
        {
          "internalType": "uint256",
          "name": "_reserveRatio",
          "type": "uint256"
        },
        {
          "internalType": "uint256",
          "name": "_slopeInit",
          "type": "uint256"
        }
      ],
      "name": "calculateInitializationPrice",
      "outputs": [
        {
          "internalType": "uint256",
          "name": "",
          "type": "uint256"
        }
      ],
      "stateMutability": "view",
      "type": "function"
    },
    {
      "inputs": [
        {
          "internalType": "uint256",
          "name": "_price",
          "type": "uint256"
        },
        {
          "internalType": "uint256",
          "name": "_reserveRatio",
          "type": "uint256"
        },
        {
          "internalType": "uint256",
          "name": "_slopeInit",
          "type": "uint256"
        }
      ],
      "name": "calculateInitializationReturn",
      "outputs": [
        {
          "internalType": "uint256",
          "name": "",
          "type": "uint256"
        }
      ],
      "stateMutability": "view",
      "type": "function"
    },
    {
      "inputs": [
        {
          "internalType": "uint256",
          "name": "_supply",
          "type": "uint256"
        },
        {
          "internalType": "uint256",
          "name": "_poolBalance",
          "type": "uint256"
        },
        {
          "internalType": "uint256",
          "name": "_reserveRatio",
          "type": "uint256"
        },
        {
          "internalType": "uint256",
          "name": "_tokens",
          "type": "uint256"
        }
      ],
      "name": "calculatePurchasePrice",
      "outputs": [
        {
          "internalType": "uint256",
          "name": "",
          "type": "uint256"
        }
      ],
      "stateMutability": "view",
      "type": "function"
    },
    {
      "inputs": [
        {
          "internalType": "uint256",
          "name": "_supply",
          "type": "uint256"
        },
        {
          "internalType": "uint256",
          "name": "_poolBalance",
          "type": "uint256"
        },
        {
          "internalType": "uint256",
          "name": "_reserveRatio",
          "type": "uint256"
        },
        {
          "internalType": "uint256",
          "name": "_price",
          "type": "uint256"
        }
      ],
      "name": "calculatePurchaseReturn",
      "outputs": [
        {
          "internalType": "uint256",
          "name": "",
          "type": "uint256"
        }
      ],
      "stateMutability": "view",
      "type": "function"
    },
    {
      "inputs": [
        {
          "internalType": "uint256",
          "name": "_supply",
          "type": "uint256"
        },
        {
          "internalType": "uint256",
          "name": "_poolBalance",
          "type": "uint256"
        },
        {
          "internalType": "uint256",
          "name": "_reserveRatio",
          "type": "uint256"
        },
        {
          "internalType": "uint256",
          "name": "_price",
          "type": "uint256"
        }
      ],
      "name": "calculateSalePrice",
      "outputs": [
        {
          "internalType": "uint256",
          "name": "",
          "type": "uint256"
        }
      ],
      "stateMutability": "view",
      "type": "function"
    },
    {
      "inputs": [
        {
          "internalType": "uint256",
          "name": "_supply",
          "type": "uint256"
        },
        {
          "internalType": "uint256",
          "name": "_poolBalance",
          "type": "uint256"
        },
        {
          "internalType": "uint256",
          "name": "_reserveRatio",
          "type": "uint256"
        },
        {
          "internalType": "uint256",
          "name": "_tokens",
          "type": "uint256"
        }
      ],
      "name": "calculateSaleReturn",
      "outputs": [
        {
          "internalType": "uint256",
          "name": "",
          "type": "uint256"
        }
      ],
      "stateMutability": "view",
      "type": "function"
    },
    {
      "inputs": [],
      "name": "initMaxExpArray",
      "outputs": [],
      "stateMutability": "nonpayable",
      "type": "function"
    },
    {
      "inputs": [],
      "name": "maxRatio",
      "outputs": [
        {
          "internalType": "uint256",
          "name": "",
          "type": "uint256"
        }
      ],
      "stateMutability": "view",
      "type": "function"
    }
  ],
  "bytecode": {
    "object": "0x608060405234801561001057600080fd5b5061073f6001641c35fedd1560601b036020556001646c3390ecc9605e1b036021556001640cf801476160611b0360225560016431bdb23e1d605f1b0360235560016502fb1d8fe083605b1b0360245560016505b771955b37605a1b036025556001650af67a93bb5160591b0360265560016515060c256cb360581b036027556001651428a2f98d7360581b036028556001654d515663970960561b03602955600165944620b0e70f60551b03602a55600166011c592761c66760541b03602b5560016602214d10d014eb60531b03602c55600166020ade36b7dbef60531b03602d5560016603eab73b3bbfe360521b03602e556001660782ee3593f6d760511b03602f556001661ccf4b44bb4821604f1b0360305560016606e7f88ad8a77760511b0360315560016669f3d1c921891d604d1b03603255600166cb2ff529eb71e5604c1b03603355600166c2d415c3db974b604c1b0360345560016702eb40f9f620fda7604a1b0360355560016705990681d961a1eb60491b03603655600167055e12902701414760491b0360375560016714962dee9dc9764160471b0360385560016704ef57b9b560fab560491b0360395560016712ed7b32a58f552b60471b03603a556001679131271922eaa60760441b03603b556001678b380f3558668c4760441b03603c556001680215f77c045fbe885760421b03603d556001600160831b03603e556001670f577eded5773a1160471b03603f556001680eb5ec597592befbf5603f1b036040556001681c35fedd14b861eb05603e1b036041556001683619c87664579bc94b603d1b0360425560016867c00a3b07ffc01fd7603c1b03604355600168c6f6c8f8739773a7a5603b1b03604455600168bec763f8209b7a72b1603b1b0360455560016902dbb8caad9b7097b91b60391b03604655600169057b3d49dda84556d6f760381b03604755600169054183095b2c8ececf3160381b036048556001690a14517cc6b9457111ef60371b0360495560016913545598e5c23276ccf160361b03604a556001692511882c39c3adea96ff60351b03604b55600169471649d87199aa99075760341b03604c557004429a21a029d4c1457cfbffffffffffff604d55700415bc6d6fb7dd71af2cb3ffffffffffff604e557003eab73b3bbfe282243ce1ffffffffffff604f557003c1771ac9fb6b4c18e229ffffffffffff605055700399e96897690418f785257fffffffffff605155700373fc456c53bb779bf0ea9fffffffffff60525570034f9e8e490c48e67e6ab8bfffffffffff60535570032cbfd4a7adc790560b3337ffffffffff60545570030b50570f6e5d2acca94613ffffffffff6055557002eb40f9f620fda6b56c2861ffffffffff6056557002cc8340ecb0d0f520a6af58ffffffffff6057557002af09481380a0a35cf1ba02ffffffffff605855700292c5bdd3b92ec810287b1b3fffffffff605955700277abdcdab07d5a77ac6d6b9fffffffff605a5570025daf6654b1eaa55fd64df5efffffffff605b55700244c49c648baa98192dce88b7ffffffff605c5570022ce03cd5619a311b2471268bffffffff605d55700215f77c045fbe885654a44a0fffffffff605e556001600160811b03605f557001eaefdbdaaee7421fc4d3ede5ffffffff6060557001d6bd8b2eb257df7e8ca57b09bfffffff6061557001c35fedd14b861eb0443f7f133fffffff6062557001b0ce43b322bcde4a56e8ada5afffffff60635570019f0028ec1fff007f5a195a39dfffffff60645570018ded91f0e72ee74f49b15ba527ffffff60655570017d8ec7f04136f4e5615fd41a63ffffff60665570016ddc6556cdb84bdc8d12d22e6fffffff60675570015ecf52776a1155b5bd8395814f7fffff60685570015060c256cb23b3b3cc3754cf40ffffff6069557001428a2f98d728ae223ddab715be3fffff606a5570013545598e5c23276ccf0ede68034fffff606b557001288c4161ce1d6f54b7f61081194fffff606c5570011c592761c666aa641d5a01a40f17ffff606d55700110a688680a7530515f3e6e6cfdcdffff606e557001056f1b5bedf75c6bcb2ce8aed428ffff606f556ffaadceceeff8a0890f3875f008277fff6070556ff05dc6b27edad306388a600f6ba0bfff6071556fe67a5a25da41063de1495d5b18cdbfff6072556fdcff115b14eedde6fc3aa5353f2e4fff6073556fd3e7a3924312399f9aae2e0f868f8fff6074556fcb2ff529eb71e41582cccd5a1ee26fff6075556fc2d415c3db974ab32a51840c0b67edff6076556fbad03e7d883f69ad5b0a186184e06bff6077556fb320d03b2c343d4829abd6075f0cc5ff6078556fabc25204e02828d73c6e80bcdb1a95bf6079556fa4b16f74ee4bb2040a1ec6c15fbbf2df607a556f9deaf736ac1f569deb1b5ae3f36c130f607b556f976bd9952c7aa957f5937d790ef65037607c556f9131271922eaa6064b73a22d0bd4f2bf607d556f8b380f3558668c46c91c49a2f8e967b9607e556f857ddf0117efa215952912839f6473e6607f55565b6123c78061074e6000396000f3fe608060405234801561001057600080fd5b50600436106100885760003560e01c8063b62c23b51161005b578063b62c23b5146108a6578063beb27b86146108b9578063cbf806d0146108cc578063d47d2a76146108df57600080fd5b806376365af71461008d57806381c3ae3a146100a957806395eed524146100bc578063aa248a46146100cf575b600080fd5b610097620f424081565b60405190815260200160405180910390f35b6100976100b736600461219e565b6108f2565b6100976100ca36600461219e565b61099e565b6108a4701c35fedd14ffffffffffffffffffffffff602055701b0ce43b323fffffffffffffffffffffff6021557019f0028ec1ffffffffffffffffffffffff6022557018ded91f0e7fffffffffffffffffffffff6023557017d8ec7f0417ffffffffffffffffffffff6024557016ddc6556cdbffffffffffffffffffffff6025557015ecf52776a1ffffffffffffffffffffff6026557015060c256cb2ffffffffffffffffffffff602755701428a2f98d72ffffffffffffffffffffff6028557013545598e5c23fffffffffffffffffffff602955701288c4161ce1dfffffffffffffffffffff602a557011c592761c666fffffffffffffffffffff602b5570110a688680a757ffffffffffffffffffff602c55701056f1b5bedf77ffffffffffffffffffff602d55700faadceceeff8bffffffffffffffffffff602e55700f05dc6b27edadffffffffffffffffffff602f55700e67a5a25da4107fffffffffffffffffff603055700dcff115b14eedffffffffffffffffffff603155700d3e7a392431239fffffffffffffffffff603255700cb2ff529eb71e4fffffffffffffffffff603355700c2d415c3db974afffffffffffffffffff603455700bad03e7d883f69bffffffffffffffffff603555700b320d03b2c343d5ffffffffffffffffff603655700abc25204e02828dffffffffffffffffff603755700a4b16f74ee4bb207fffffffffffffffff6038557009deaf736ac1f569ffffffffffffffffff603955700976bd9952c7aa957fffffffffffffffff603a557009131271922eaa606fffffffffffffffff603b557008b380f3558668c46fffffffffffffffff603c55700857ddf0117efa215bffffffffffffffff603d557007ffffffffffffffffffffffffffffffff603e557007abbf6f6abb9d087fffffffffffffffff603f5570075af62cbac95f7dfa7fffffffffffffff60405570070d7fb7452e187ac13fffffffffffffff6041557006c3390ecc8af379295fffffffffffffff60425570067c00a3b07ffc01fd6fffffffffffffff604355700637b647c39cbb9d3d27ffffffffffffff6044557005f63b1fc104dbd39587ffffffffffffff6045557005b771955b36e12f7235ffffffffffffff60465570057b3d49dda84556d6f6ffffffffffffff60475570054183095b2c8ececf30ffffffffffffff60485570050a28be635ca2b888f77fffffffffffff6049557004d5156639708c9db33c3fffffffffffff604a557004a23105873875bd52dfdfffffffffffff604b55700471649d87199aa990756fffffffffffff604c557004429a21a029d4c1457cfbffffffffffff604d55700415bc6d6fb7dd71af2cb3ffffffffffff604e557003eab73b3bbfe282243ce1ffffffffffff604f557003c1771ac9fb6b4c18e229ffffffffffff605055700399e96897690418f785257fffffffffff605155700373fc456c53bb779bf0ea9fffffffffff60525570034f9e8e490c48e67e6ab8bfffffffffff60535570032cbfd4a7adc790560b3337ffffffffff60545570030b50570f6e5d2acca94613ffffffffff6055557002eb40f9f620fda6b56c2861ffffffffff6056557002cc8340ecb0d0f520a6af58ffffffffff6057557002af09481380a0a35cf1ba02ffffffffff605855700292c5bdd3b92ec810287b1b3fffffffff605955700277abdcdab07d5a77ac6d6b9fffffffff605a5570025daf6654b1eaa55fd64df5efffffffff605b55700244c49c648baa98192dce88b7ffffffff605c5570022ce03cd5619a311b2471268bffffffff605d55700215f77c045fbe885654a44a0fffffffff605e557001ffffffffffffffffffffffffffffffff605f557001eaefdbdaaee7421fc4d3ede5ffffffff6060557001d6bd8b2eb257df7e8ca57b09bfffffff6061557001c35fedd14b861eb0443f7f133fffffff6062557001b0ce43b322bcde4a56e8ada5afffffff60635570019f0028ec1fff007f5a195a39dfffffff60645570018ded91f0e72ee74f49b15ba527ffffff60655570017d8ec7f04136f4e5615fd41a63ffffff60665570016ddc6556cdb84bdc8d12d22e6fffffff60675570015ecf52776a1155b5bd8395814f7fffff60685570015060c256cb23b3b3cc3754cf40ffffff6069557001428a2f98d728ae223ddab715be3fffff606a5570013545598e5c23276ccf0ede68034fffff606b557001288c4161ce1d6f54b7f61081194fffff606c5570011c592761c666aa641d5a01a40f17ffff606d55700110a688680a7530515f3e6e6cfdcdffff606e557001056f1b5bedf75c6bcb2ce8aed428ffff606f556ffaadceceeff8a0890f3875f008277fff6070556ff05dc6b27edad306388a600f6ba0bfff6071556fe67a5a25da41063de1495d5b18cdbfff6072556fdcff115b14eedde6fc3aa5353f2e4fff6073556fd3e7a3924312399f9aae2e0f868f8fff6074556fcb2ff529eb71e41582cccd5a1ee26fff6075556fc2d415c3db974ab32a51840c0b67edff6076556fbad03e7d883f69ad5b0a186184e06bff6077556fb320d03b2c343d4829abd6075f0cc5ff6078556fabc25204e02828d73c6e80bcdb1a95bf6079556fa4b16f74ee4bb2040a1ec6c15fbbf2df607a556f9deaf736ac1f569deb1b5ae3f36c130f607b556f976bd9952c7aa957f5937d790ef65037607c556f9131271922eaa6064b73a22d0bd4f2bf607d556f8b380f3558668c46c91c49a2f8e967b9607e556f857ddf0117efa215952912839f6473e6607f55565b005b6100976108b43660046121d0565b610a29565b6100976108c736600461219e565b610a8c565b6100976108da36600461219e565b610b0b565b6100976108ed3660046121d0565b610b83565b600080851161091c5760405162461bcd60e51b8152600401610913906121fc565b60405180910390fd5b6000841161093c5760405162461bcd60e51b815260040161091390612224565b8482141561094b575082610996565b6000806109668761095c8682612268565b620f424088610bc7565b90925090508160ff821687901b61097d828961227f565b6109879190612268565b61099191906122b4565b925050505b949350505050565b60008085116109bf5760405162461bcd60e51b8152600401610913906121fc565b600084116109df5760405162461bcd60e51b815260040161091390612224565b6000806109fa6109ef87866122c8565b8787620f4240610bc7565b9092509050600060ff8216610a0f848a61227f565b901c9050610a1d8882612268565b98975050505050505050565b6000620f4240831415610a4757610a4082856122b4565b9050610a85565b600080610a5b866103e8620f424088610bc7565b909250905060ff811682901c620f4240610a75878361227f565b610a7f91906122b4565b93505050505b9392505050565b6000808511610aad5760405162461bcd60e51b8152600401610913906121fc565b60008411610acd5760405162461bcd60e51b815260040161091390612224565b600080610ae8610add88866122c8565b88620f424088610bc7565b9092509050600060ff8216610afd848961227f565b901c9050610a1d8782612268565b6000808511610b2c5760405162461bcd60e51b8152600401610913906121fc565b60008411610b4c5760405162461bcd60e51b815260040161091390612224565b83821415610b5b575083610996565b600080610b6c8661095c8682612268565b90925090508160ff821688901b61097d828a61227f565b6000620f4240831415610b9a57610a40828561227f565b600080610bb9610baa858861227f565b86620f424088620f4240610ca6565b60ff161c9695505050505050565b600080600160811b8610610bda57600080fd5b60008086610bec6001607f1b8a61227f565b610bf691906122b4565b905070015bf0a8b1457695355fb8ac404e7a79e3811015610c2157610c1a81610d85565b9150610c2d565b610c2a816112fe565b91505b600085610c3a888561227f565b610c4491906122b4565b9050600160831b811015610c6957610c5b816113ec565b607f94509450505050610c9d565b6000610c7482611a17565b9050610c90610c8482607f6122f6565b60ff1683901c82611aca565b95509350610c9d92505050565b94509492505050565b600080600160811b8710610cb957600080fd5b600080876001607f1b610ccc898c61227f565b610cd6919061227f565b610ce091906122b4565b905070015bf0a8b1457695355fb8ac404e7a79e3811015610d0b57610d0481610d85565b9150610d17565b610d14816112fe565b91505b600085610d24888561227f565b610d2e91906122b4565b9050600160831b811015610d5357610d45816113ec565b607f94509450505050610d7b565b6000610d5e82611a17565b9050610d6e610c8482607f6122f6565b95509350610d7b92505050565b9550959350505050565b6000808080806fd3094c70f034de4b96ff7d5b6f99fcd88610610dde57610db06001607e1b856122c8565b93506fd3094c70f034de4b96ff7d5b6f99fcd8610dd16001607f1b8861227f565b610ddb91906122b4565b95505b6fa45af1e1f40c333b3de1db4dd55f29a78610610e3157610e036001607d1b856122c8565b93506fa45af1e1f40c333b3de1db4dd55f29a7610e246001607f1b8861227f565b610e2e91906122b4565b95505b6f910b022db7ae67ce76b441c27035c6a18610610e8457610e566001607c1b856122c8565b93506f910b022db7ae67ce76b441c27035c6a1610e776001607f1b8861227f565b610e8191906122b4565b95505b6f88415abbe9a76bead8d00cf112e4d4a88610610ed757610ea96001607b1b856122c8565b93506f88415abbe9a76bead8d00cf112e4d4a8610eca6001607f1b8861227f565b610ed491906122b4565b95505b6f84102b00893f64c705e841d5d4064bd38610610f2a57610efc6001607a1b856122c8565b93506f84102b00893f64c705e841d5d4064bd3610f1d6001607f1b8861227f565b610f2791906122b4565b95505b6f8204055aaef1c8bd5c3259f4822735a28610610f7d57610f4f600160791b856122c8565b93506f8204055aaef1c8bd5c3259f4822735a2610f706001607f1b8861227f565b610f7a91906122b4565b95505b6f810100ab00222d861931c15e39b44e998610610fd057610fa2600160781b856122c8565b93506f810100ab00222d861931c15e39b44e99610fc36001607f1b8861227f565b610fcd91906122b4565b95505b6f808040155aabbbe9451521693554f733861061102357610ff5600160771b856122c8565b93506f808040155aabbbe9451521693554f7336110166001607f1b8861227f565b61102091906122b4565b95505b6110316001607f1b87612268565b92508291506001607f1b611045838061227f565b61104f91906122b4565b9050600160801b6110608482612268565b61106a908461227f565b61107491906122b4565b61107e90856122c8565b93506001607f1b61108f828461227f565b61109991906122b4565b9150600160811b6110ba846faaaaaaaaaaaaaaaaaaaaaaaaaaaaaaaa612268565b6110c4908461227f565b6110ce91906122b4565b6110d890856122c8565b93506001607f1b6110e9828461227f565b6110f391906122b4565b9150600360801b611114846f99999999999999999999999999999999612268565b61111e908461227f565b61112891906122b4565b61113290856122c8565b93506001607f1b611143828461227f565b61114d91906122b4565b9150600160821b61116e846f92492492492492492492492492492492612268565b611178908461227f565b61118291906122b4565b61118c90856122c8565b93506001607f1b61119d828461227f565b6111a791906122b4565b9150600560801b6111c8846f8e38e38e38e38e38e38e38e38e38e38e612268565b6111d2908461227f565b6111dc91906122b4565b6111e690856122c8565b93506001607f1b6111f7828461227f565b61120191906122b4565b9150600360811b611222846f8ba2e8ba2e8ba2e8ba2e8ba2e8ba2e8b612268565b61122c908461227f565b61123691906122b4565b61124090856122c8565b93506001607f1b611251828461227f565b61125b91906122b4565b9150600760801b61127c846f89d89d89d89d89d89d89d89d89d89d89612268565b611286908461227f565b61129091906122b4565b61129a90856122c8565b93506001607f1b6112ab828461227f565b6112b591906122b4565b9150600160831b6112d6846f88888888888888888888888888888888612268565b6112e0908461227f565b6112ea91906122b4565b6112f490856122c8565b9695505050505050565b600080600160801b831061134257600061132461131f6001607f1b866122b4565b612131565b60ff811694851c9490915061133e906001607f1b9061227f565b9150505b6001607f1b8311156113b757607f5b60ff8116156113b5576001607f1b611369858061227f565b61137391906122b4565b9350600160801b84106113a557600193841c9361139090826122f6565b60ff166001901b826113a291906122c8565b91505b6113ae81612319565b9050611351565b505b6f05b9de1d10bf4103d647b0955897ba806113e26f03f80fe03f80fe03f80fe03f80fe03f88361227f565b610a8591906122b4565b60008080806113ff6001607c1b86612336565b91508190506001607f1b611413828061227f565b61141d91906122b4565b9050611431816710e1b3be415a000061227f565b61143b90846122c8565b92506001607f1b61144c838361227f565b61145691906122b4565b905061146a816705a0913f6b1e000061227f565b61147490846122c8565b92506001607f1b611485838361227f565b61148f91906122b4565b90506114a381670168244fdac7800061227f565b6114ad90846122c8565b92506001607f1b6114be838361227f565b6114c891906122b4565b90506114db81664807432bc1800061227f565b6114e590846122c8565b92506001607f1b6114f6838361227f565b61150091906122b4565b905061151381660c0135dca0400061227f565b61151d90846122c8565b92506001607f1b61152e838361227f565b61153891906122b4565b905061154b816601b707b1cdc00061227f565b61155590846122c8565b92506001607f1b611566838361227f565b61157091906122b4565b9050611582816536e0f639b80061227f565b61158c90846122c8565b92506001607f1b61159d838361227f565b6115a791906122b4565b90506115b981650618fee9f80061227f565b6115c390846122c8565b92506001607f1b6115d4838361227f565b6115de91906122b4565b90506115ef81649c197dcc0061227f565b6115f990846122c8565b92506001607f1b61160a838361227f565b61161491906122b4565b905061162581640e30dce40061227f565b61162f90846122c8565b92506001607f1b611640838361227f565b61164a91906122b4565b905061165b8164012ebd130061227f565b61166590846122c8565b92506001607f1b611676838361227f565b61168091906122b4565b9050611690816317499f0061227f565b61169a90846122c8565b92506001607f1b6116ab838361227f565b6116b591906122b4565b90506116c5816301a9d48061227f565b6116cf90846122c8565b92506001607f1b6116e0838361227f565b6116ea91906122b4565b90506116f981621c638061227f565b61170390846122c8565b92506001607f1b611714838361227f565b61171e91906122b4565b905061172d816201c63861227f565b61173790846122c8565b92506001607f1b611748838361227f565b61175291906122b4565b905061176081611ab861227f565b61176a90846122c8565b92506001607f1b61177b838361227f565b61178591906122b4565b90506117938161017c61227f565b61179d90846122c8565b92506001607f1b6117ae838361227f565b6117b891906122b4565b90506117c581601461227f565b6117cf90846122c8565b92506001607f1b6117e0838361227f565b6117ea91906122b4565b90506117f781600161227f565b61180190846122c8565b92506001607f1b8261181b6721c3677c82b40000866122b4565b61182591906122c8565b61182f91906122c8565b92506001607c1b8516156118775770018ebef9eac820ae8682b9793ac6d1e77661186a847001c3d6a24ed82218787d624d3e5eba95f961227f565b61187491906122b4565b92505b6001607d1b8516156118bd577001368b2fc6f9609fe7aceb46aa619baed46118b08470018ebef9eac820ae8682b9793ac6d1e77861227f565b6118ba91906122b4565b92505b6001607e1b851615611902576fbc5ab1b16779be3575bd8f0520a9f21f6118f5847001368b2fc6f9609fe7aceb46aa619baed561227f565b6118ff91906122b4565b92505b6001607f1b851615611946576f454aaa8efe072e7f6ddbab84b40a55c9611939846fbc5ab1b16779be3575bd8f0520a9f21e61227f565b61194391906122b4565b92505b600160801b85161561198a576f0960aadc109e7a3bf4578099615711ea61197d846f454aaa8efe072e7f6ddbab84b40a55c561227f565b61198791906122b4565b92505b600160811b8516156119cd576e2bf84208204f5977f9a8cf01fdce3d6119c0846f0960aadc109e7a3bf4578099615711d761227f565b6119ca91906122b4565b92505b600160821b851615611a0e576d03c6ab775dd0b95b4cbee7e65d11611a01846e2bf84208204f5977f9a8cf01fdc30761227f565b611a0b91906122b4565b92505b50909392505050565b60006020607f5b60ff8116611a2d83600161234a565b60ff161015611a805760006002611a44838561234a565b611a4e919061236f565b90508460008260ff1660808110611a6757611a676122e0565b015410611a7657809250611a7a565b8091505b50611a1e565b8360008260ff1660808110611a9757611a976122e0565b015410611aa5579392505050565b8360008360ff1660808110611abc57611abc6122e0565b015410610088575092915050565b6000828160ff8416611adc838061227f565b901c9150611afa826f03442c4e6074a82f1797f72ac000000061227f565b611b0490826122c8565b905060ff8416611b14868461227f565b901c9150611b32826f0116b96f757c380fb287fd0e4000000061227f565b611b3c90826122c8565b905060ff8416611b4c868461227f565b901c9150611b69826e45ae5bdd5f0e03eca1ff439000000061227f565b611b7390826122c8565b905060ff8416611b83868461227f565b901c9150611ba0826e0defabf91302cd95b9ffda5000000061227f565b611baa90826122c8565b905060ff8416611bba868461227f565b901c9150611bd7826e02529ca9832b22439efff9b800000061227f565b611be190826122c8565b905060ff8416611bf1868461227f565b901c9150611c0d826d54f1cf12bd04e516b6da8800000061227f565b611c1790826122c8565b905060ff8416611c27868461227f565b901c9150611c43826d0a9e39e257a09ca2d6db5100000061227f565b611c4d90826122c8565b905060ff8416611c5d868461227f565b901c9150611c79826d012e066e7b839fa050c30900000061227f565b611c8390826122c8565b905060ff8416611c93868461227f565b901c9150611cae826c1e33d7d926c329a1ad1a80000061227f565b611cb890826122c8565b905060ff8416611cc8868461227f565b901c9150611ce3826c02bee513bdb4a6b19b5f80000061227f565b611ced90826122c8565b905060ff8416611cfd868461227f565b901c9150611d17826b3a9316fa79b88eccf2a0000061227f565b611d2190826122c8565b905060ff8416611d31868461227f565b901c9150611d4b826b048177ebe1fa81237520000061227f565b611d5590826122c8565b905060ff8416611d65868461227f565b901c9150611d7e826a5263fe90242dcbacf0000061227f565b611d8890826122c8565b905060ff8416611d98868461227f565b901c9150611db1826a057e22099c030d9410000061227f565b611dbb90826122c8565b905060ff8416611dcb868461227f565b901c9150611de3826957e22099c030d941000061227f565b611ded90826122c8565b905060ff8416611dfd868461227f565b901c9150611e158269052b6b5456997631000061227f565b611e1f90826122c8565b905060ff8416611e2f868461227f565b901c9150611e4682684985f67696bf74800061227f565b611e5090826122c8565b905060ff8416611e60868461227f565b901c9150611e77826803dea12ea99e49800061227f565b611e8190826122c8565b905060ff8416611e91868461227f565b901c9150611ea7826731880f2214b6e00061227f565b611eb190826122c8565b905060ff8416611ec1868461227f565b901c9150611ed78267025bcff56eb3600061227f565b611ee190826122c8565b905060ff8416611ef1868461227f565b901c9150611f0682661b722e10ab100061227f565b611f1090826122c8565b905060ff8416611f20868461227f565b901c9150611f35826601317c7007700061227f565b611f3f90826122c8565b905060ff8416611f4f868461227f565b901c9150611f6382650cba84aafa0061227f565b611f6d90826122c8565b905060ff8416611f7d868461227f565b901c9150611f90826482573a0a0061227f565b611f9a90826122c8565b905060ff8416611faa868461227f565b901c9150611fbd826405035ad90061227f565b611fc790826122c8565b905060ff8416611fd7868461227f565b901c9150611fe982632f881b0061227f565b611ff390826122c8565b905060ff8416612003868461227f565b901c9150612015826301b2934061227f565b61201f90826122c8565b905060ff841661202f868461227f565b901c915061204082620efc4061227f565b61204a90826122c8565b905060ff841661205a868461227f565b901c915061206a82617fe061227f565b61207490826122c8565b905060ff8416612084868461227f565b901c91506120948261042061227f565b61209e90826122c8565b905060ff84166120ae868461227f565b901c91506120bd82602161227f565b6120c790826122c8565b905060ff84166120d7868461227f565b901c91506120e682600161227f565b6120f090826122c8565b9050600160ff85161b856121146f0688589cc0e9505e2f2fee5580000000846122b4565b61211e91906122c8565b61212891906122c8565b95945050505050565b600080610100831015612164575b600183111561215f57600192831c92612158908261234a565b905061213f565b612198565b60805b60ff81161561219657600160ff82161b841061218b5760ff81169390931c92908117905b60011c607f16612167565b505b92915050565b600080600080608085870312156121b457600080fd5b5050823594602084013594506040840135936060013592509050565b6000806000606084860312156121e557600080fd5b505081359360208301359350604090920135919050565b6020808252600e908201526d494e56414c49445f535550504c5960901b604082015260600190565b602080825260149082015273494e56414c49445f504f4f4c5f42414c414e434560601b604082015260600190565b634e487b7160e01b600052601160045260246000fd5b60008282101561227a5761227a612252565b500390565b600081600019048311821515161561229957612299612252565b500290565b634e487b7160e01b600052601260045260246000fd5b6000826122c3576122c361229e565b500490565b600082198211156122db576122db612252565b500190565b634e487b7160e01b600052603260045260246000fd5b600060ff821660ff84168082101561231057612310612252565b90039392505050565b600060ff82168061232c5761232c612252565b6000190192915050565b6000826123455761234561229e565b500690565b600060ff821660ff84168060ff0382111561236757612367612252565b019392505050565b600060ff8316806123825761238261229e565b8060ff8416049150509291505056fea2646970667358221220470d9cc274c75af713938cc507e7f2f994ccd50e0d37bdd6c01f92311ef29eae64736f6c634300080b0033",
    "linkReferences": {}
  }
}