{
  "abi": [
    {
      "inputs": [
        {
          "internalType": "uint256",
          "name": "_reserveRatio",
          "type": "uint256"
        },
        {
          "internalType": "uint256",
          "name": "_slopeInit",
          "type": "uint256"
        }
      ],
      "name": "calculateInitializationPrice",
      "outputs": [
        {
          "internalType": "uint256",
          "name": "",
          "type": "uint256"
        }
      ],
      "stateMutability": "pure",
      "type": "function"
    },
    {
      "inputs": [
        {
          "internalType": "uint256",
          "name": "_price",
          "type": "uint256"
        },
        {
          "internalType": "uint256",
          "name": "_reserveRatio",
          "type": "uint256"
        },
        {
          "internalType": "uint256",
          "name": "_slopeInit",
          "type": "uint256"
        }
      ],
      "name": "calculateInitializationReturn",
      "outputs": [
        {
          "internalType": "uint256",
          "name": "",
          "type": "uint256"
        }
      ],
      "stateMutability": "view",
      "type": "function"
    },
    {
      "inputs": [
        {
          "internalType": "uint256",
          "name": "_supply",
          "type": "uint256"
        },
        {
          "internalType": "uint256",
          "name": "_poolBalance",
          "type": "uint256"
        },
        {
          "internalType": "uint256",
          "name": "_reserveRatio",
          "type": "uint256"
        },
        {
          "internalType": "uint256",
          "name": "_tokens",
          "type": "uint256"
        }
      ],
      "name": "calculatePurchasePrice",
      "outputs": [
        {
          "internalType": "uint256",
          "name": "",
          "type": "uint256"
        }
      ],
      "stateMutability": "view",
      "type": "function"
    },
    {
      "inputs": [
        {
          "internalType": "uint256",
          "name": "_supply",
          "type": "uint256"
        },
        {
          "internalType": "uint256",
          "name": "_poolBalance",
          "type": "uint256"
        },
        {
          "internalType": "uint256",
          "name": "_reserveRatio",
          "type": "uint256"
        },
        {
          "internalType": "uint256",
          "name": "_price",
          "type": "uint256"
        }
      ],
      "name": "calculatePurchaseReturn",
      "outputs": [
        {
          "internalType": "uint256",
          "name": "",
          "type": "uint256"
        }
      ],
      "stateMutability": "view",
      "type": "function"
    },
    {
      "inputs": [
        {
          "internalType": "uint256",
          "name": "_supply",
          "type": "uint256"
        },
        {
          "internalType": "uint256",
          "name": "_poolBalance",
          "type": "uint256"
        },
        {
          "internalType": "uint256",
          "name": "_reserveRatio",
          "type": "uint256"
        },
        {
          "internalType": "uint256",
          "name": "_price",
          "type": "uint256"
        }
      ],
      "name": "calculateSalePrice",
      "outputs": [
        {
          "internalType": "uint256",
          "name": "",
          "type": "uint256"
        }
      ],
      "stateMutability": "view",
      "type": "function"
    },
    {
      "inputs": [
        {
          "internalType": "uint256",
          "name": "_supply",
          "type": "uint256"
        },
        {
          "internalType": "uint256",
          "name": "_poolBalance",
          "type": "uint256"
        },
        {
          "internalType": "uint256",
          "name": "_reserveRatio",
          "type": "uint256"
        },
        {
          "internalType": "uint256",
          "name": "_tokens",
          "type": "uint256"
        }
      ],
      "name": "calculateSaleReturn",
      "outputs": [
        {
          "internalType": "uint256",
          "name": "",
          "type": "uint256"
        }
      ],
      "stateMutability": "view",
      "type": "function"
    },
    {
      "inputs": [],
      "name": "initMaxExpArray",
      "outputs": [],
      "stateMutability": "nonpayable",
      "type": "function"
    },
    {
      "inputs": [],
      "name": "maxRatio",
      "outputs": [
        {
          "internalType": "uint256",
          "name": "",
          "type": "uint256"
        }
      ],
      "stateMutability": "view",
      "type": "function"
    }
  ],
  "bytecode": {
    "object": "0x608060405234801561001057600080fd5b5061073f6001641c35fedd1560601b036020556001646c3390ecc9605e1b036021556001640cf801476160611b0360225560016431bdb23e1d605f1b0360235560016502fb1d8fe083605b1b0360245560016505b771955b37605a1b036025556001650af67a93bb5160591b0360265560016515060c256cb360581b036027556001651428a2f98d7360581b036028556001654d515663970960561b03602955600165944620b0e70f60551b03602a55600166011c592761c66760541b03602b5560016602214d10d014eb60531b03602c55600166020ade36b7dbef60531b03602d5560016603eab73b3bbfe360521b03602e556001660782ee3593f6d760511b03602f556001661ccf4b44bb4821604f1b0360305560016606e7f88ad8a77760511b0360315560016669f3d1c921891d604d1b03603255600166cb2ff529eb71e5604c1b03603355600166c2d415c3db974b604c1b0360345560016702eb40f9f620fda7604a1b0360355560016705990681d961a1eb60491b03603655600167055e12902701414760491b0360375560016714962dee9dc9764160471b0360385560016704ef57b9b560fab560491b0360395560016712ed7b32a58f552b60471b03603a556001679131271922eaa60760441b03603b556001678b380f3558668c4760441b03603c556001680215f77c045fbe885760421b03603d556001600160831b03603e556001670f577eded5773a1160471b03603f556001680eb5ec597592befbf5603f1b036040556001681c35fedd14b861eb05603e1b036041556001683619c87664579bc94b603d1b0360425560016867c00a3b07ffc01fd7603c1b03604355600168c6f6c8f8739773a7a5603b1b03604455600168bec763f8209b7a72b1603b1b0360455560016902dbb8caad9b7097b91b60391b03604655600169057b3d49dda84556d6f760381b03604755600169054183095b2c8ececf3160381b036048556001690a14517cc6b9457111ef60371b0360495560016913545598e5c23276ccf160361b03604a556001692511882c39c3adea96ff60351b03604b55600169471649d87199aa99075760341b03604c557004429a21a029d4c1457cfbffffffffffff604d55700415bc6d6fb7dd71af2cb3ffffffffffff604e557003eab73b3bbfe282243ce1ffffffffffff604f557003c1771ac9fb6b4c18e229ffffffffffff605055700399e96897690418f785257fffffffffff605155700373fc456c53bb779bf0ea9fffffffffff60525570034f9e8e490c48e67e6ab8bfffffffffff60535570032cbfd4a7adc790560b3337ffffffffff60545570030b50570f6e5d2acca94613ffffffffff6055557002eb40f9f620fda6b56c2861ffffffffff6056557002cc8340ecb0d0f520a6af58ffffffffff6057557002af09481380a0a35cf1ba02ffffffffff605855700292c5bdd3b92ec810287b1b3fffffffff605955700277abdcdab07d5a77ac6d6b9fffffffff605a5570025daf6654b1eaa55fd64df5efffffffff605b55700244c49c648baa98192dce88b7ffffffff605c5570022ce03cd5619a311b2471268bffffffff605d55700215f77c045fbe885654a44a0fffffffff605e556001600160811b03605f557001eaefdbdaaee7421fc4d3ede5ffffffff6060557001d6bd8b2eb257df7e8ca57b09bfffffff6061557001c35fedd14b861eb0443f7f133fffffff6062557001b0ce43b322bcde4a56e8ada5afffffff60635570019f0028ec1fff007f5a195a39dfffffff60645570018ded91f0e72ee74f49b15ba527ffffff60655570017d8ec7f04136f4e5615fd41a63ffffff60665570016ddc6556cdb84bdc8d12d22e6fffffff60675570015ecf52776a1155b5bd8395814f7fffff60685570015060c256cb23b3b3cc3754cf40ffffff6069557001428a2f98d728ae223ddab715be3fffff606a5570013545598e5c23276ccf0ede68034fffff606b557001288c4161ce1d6f54b7f61081194fffff606c5570011c592761c666aa641d5a01a40f17ffff606d55700110a688680a7530515f3e6e6cfdcdffff606e557001056f1b5bedf75c6bcb2ce8aed428ffff606f556ffaadceceeff8a0890f3875f008277fff6070556ff05dc6b27edad306388a600f6ba0bfff6071556fe67a5a25da41063de1495d5b18cdbfff6072556fdcff115b14eedde6fc3aa5353f2e4fff6073556fd3e7a3924312399f9aae2e0f868f8fff6074556fcb2ff529eb71e41582cccd5a1ee26fff6075556fc2d415c3db974ab32a51840c0b67edff6076556fbad03e7d883f69ad5b0a186184e06bff6077556fb320d03b2c343d4829abd6075f0cc5ff6078556fabc25204e02828d73c6e80bcdb1a95bf6079556fa4b16f74ee4bb2040a1ec6c15fbbf2df607a556f9deaf736ac1f569deb1b5ae3f36c130f607b556f976bd9952c7aa957f5937d790ef65037607c556f9131271922eaa6064b73a22d0bd4f2bf607d556f8b380f3558668c46c91c49a2f8e967b9607e556f857ddf0117efa215952912839f6473e6607f55565b6123c38061074e6000396000f3fe608060405234801561001057600080fd5b50600436106100885760003560e01c8063aa248a461161005b578063aa248a46146100e2578063beb27b86146108b9578063cbf806d0146108cc578063d47d2a76146108df57600080fd5b8063258532ef1461008d57806376365af7146100b257806381c3ae3a146100bc57806395eed524146100cf575b600080fd5b6100a061009b366004612178565b6108f2565b60405190815260200160405180910390f35b6100a0620f424081565b6100a06100ca36600461219a565b610927565b6100a06100dd36600461219a565b6109d3565b6108b7701c35fedd14ffffffffffffffffffffffff602055701b0ce43b323fffffffffffffffffffffff6021557019f0028ec1ffffffffffffffffffffffff6022557018ded91f0e7fffffffffffffffffffffff6023557017d8ec7f0417ffffffffffffffffffffff6024557016ddc6556cdbffffffffffffffffffffff6025557015ecf52776a1ffffffffffffffffffffff6026557015060c256cb2ffffffffffffffffffffff602755701428a2f98d72ffffffffffffffffffffff6028557013545598e5c23fffffffffffffffffffff602955701288c4161ce1dfffffffffffffffffffff602a557011c592761c666fffffffffffffffffffff602b5570110a688680a757ffffffffffffffffffff602c55701056f1b5bedf77ffffffffffffffffffff602d55700faadceceeff8bffffffffffffffffffff602e55700f05dc6b27edadffffffffffffffffffff602f55700e67a5a25da4107fffffffffffffffffff603055700dcff115b14eedffffffffffffffffffff603155700d3e7a392431239fffffffffffffffffff603255700cb2ff529eb71e4fffffffffffffffffff603355700c2d415c3db974afffffffffffffffffff603455700bad03e7d883f69bffffffffffffffffff603555700b320d03b2c343d5ffffffffffffffffff603655700abc25204e02828dffffffffffffffffff603755700a4b16f74ee4bb207fffffffffffffffff6038557009deaf736ac1f569ffffffffffffffffff603955700976bd9952c7aa957fffffffffffffffff603a557009131271922eaa606fffffffffffffffff603b557008b380f3558668c46fffffffffffffffff603c55700857ddf0117efa215bffffffffffffffff603d557007ffffffffffffffffffffffffffffffff603e557007abbf6f6abb9d087fffffffffffffffff603f5570075af62cbac95f7dfa7fffffffffffffff60405570070d7fb7452e187ac13fffffffffffffff6041557006c3390ecc8af379295fffffffffffffff60425570067c00a3b07ffc01fd6fffffffffffffff604355700637b647c39cbb9d3d27ffffffffffffff6044557005f63b1fc104dbd39587ffffffffffffff6045557005b771955b36e12f7235ffffffffffffff60465570057b3d49dda84556d6f6ffffffffffffff60475570054183095b2c8ececf30ffffffffffffff60485570050a28be635ca2b888f77fffffffffffff6049557004d5156639708c9db33c3fffffffffffff604a557004a23105873875bd52dfdfffffffffffff604b55700471649d87199aa990756fffffffffffff604c557004429a21a029d4c1457cfbffffffffffff604d55700415bc6d6fb7dd71af2cb3ffffffffffff604e557003eab73b3bbfe282243ce1ffffffffffff604f557003c1771ac9fb6b4c18e229ffffffffffff605055700399e96897690418f785257fffffffffff605155700373fc456c53bb779bf0ea9fffffffffff60525570034f9e8e490c48e67e6ab8bfffffffffff60535570032cbfd4a7adc790560b3337ffffffffff60545570030b50570f6e5d2acca94613ffffffffff6055557002eb40f9f620fda6b56c2861ffffffffff6056557002cc8340ecb0d0f520a6af58ffffffffff6057557002af09481380a0a35cf1ba02ffffffffff605855700292c5bdd3b92ec810287b1b3fffffffff605955700277abdcdab07d5a77ac6d6b9fffffffff605a5570025daf6654b1eaa55fd64df5efffffffff605b55700244c49c648baa98192dce88b7ffffffff605c5570022ce03cd5619a311b2471268bffffffff605d55700215f77c045fbe885654a44a0fffffffff605e557001ffffffffffffffffffffffffffffffff605f557001eaefdbdaaee7421fc4d3ede5ffffffff6060557001d6bd8b2eb257df7e8ca57b09bfffffff6061557001c35fedd14b861eb0443f7f133fffffff6062557001b0ce43b322bcde4a56e8ada5afffffff60635570019f0028ec1fff007f5a195a39dfffffff60645570018ded91f0e72ee74f49b15ba527ffffff60655570017d8ec7f04136f4e5615fd41a63ffffff60665570016ddc6556cdb84bdc8d12d22e6fffffff60675570015ecf52776a1155b5bd8395814f7fffff60685570015060c256cb23b3b3cc3754cf40ffffff6069557001428a2f98d728ae223ddab715be3fffff606a5570013545598e5c23276ccf0ede68034fffff606b557001288c4161ce1d6f54b7f61081194fffff606c5570011c592761c666aa641d5a01a40f17ffff606d55700110a688680a7530515f3e6e6cfdcdffff606e557001056f1b5bedf75c6bcb2ce8aed428ffff606f556ffaadceceeff8a0890f3875f008277fff6070556ff05dc6b27edad306388a600f6ba0bfff6071556fe67a5a25da41063de1495d5b18cdbfff6072556fdcff115b14eedde6fc3aa5353f2e4fff6073556fd3e7a3924312399f9aae2e0f868f8fff6074556fcb2ff529eb71e41582cccd5a1ee26fff6075556fc2d415c3db974ab32a51840c0b67edff6076556fbad03e7d883f69ad5b0a186184e06bff6077556fb320d03b2c343d4829abd6075f0cc5ff6078556fabc25204e02828d73c6e80bcdb1a95bf6079556fa4b16f74ee4bb2040a1ec6c15fbbf2df607a556f9deaf736ac1f569deb1b5ae3f36c130f607b556f976bd9952c7aa957f5937d790ef65037607c556f9131271922eaa6064b73a22d0bd4f2bf607d556f8b380f3558668c46c91c49a2f8e967b9607e556f857ddf0117efa215952912839f6473e6607f55565b005b6100a06108c736600461219a565b610a5e565b6100a06108da36600461219a565b610add565b6100a06108ed3660046121cc565b610b55565b6000620f4240831415610906575080610921565b620f4240610914838561220e565b61091e9190612243565b90505b92915050565b60008085116109515760405162461bcd60e51b815260040161094890612257565b60405180910390fd5b600084116109715760405162461bcd60e51b81526004016109489061227f565b848214156109805750826109cb565b60008061099b8761099186826122ad565b620f424088610ba2565b90925090508160ff821687901b6109b2828961220e565b6109bc91906122ad565b6109c69190612243565b925050505b949350505050565b60008085116109f45760405162461bcd60e51b815260040161094890612257565b60008411610a145760405162461bcd60e51b81526004016109489061227f565b600080610a2f610a2487866122c4565b8787620f4240610ba2565b9092509050600060ff8216610a44848a61220e565b901c9050610a5288826122ad565b98975050505050505050565b6000808511610a7f5760405162461bcd60e51b815260040161094890612257565b60008411610a9f5760405162461bcd60e51b81526004016109489061227f565b600080610aba610aaf88866122c4565b8887620f4240610ba2565b9092509050600060ff8216610acf848961220e565b901c9050610a5287826122ad565b6000808511610afe5760405162461bcd60e51b815260040161094890612257565b60008411610b1e5760405162461bcd60e51b81526004016109489061227f565b83821415610b2d5750836109cb565b600080610b3e8661099186826122ad565b90925090508160ff821688901b6109b2828a61220e565b6000620f4240831415610b7357610b6c828561220e565b9050610b9b565b600080610b92610b83858861220e565b86620f424088620f4240610c81565b60ff161c925050505b9392505050565b600080600160811b8610610bb557600080fd5b60008086610bc76001607f1b8a61220e565b610bd19190612243565b905070015bf0a8b1457695355fb8ac404e7a79e3811015610bfc57610bf581610d60565b9150610c08565b610c05816112d9565b91505b600085610c15888561220e565b610c1f9190612243565b9050600160831b811015610c4457610c36816113c7565b607f94509450505050610c78565b6000610c4f826119f2565b9050610c6b610c5f82607f6122f2565b60ff1683901c82611aa5565b95509350610c7892505050565b94509492505050565b600080600160811b8710610c9457600080fd5b600080876001607f1b610ca7898c61220e565b610cb1919061220e565b610cbb9190612243565b905070015bf0a8b1457695355fb8ac404e7a79e3811015610ce657610cdf81610d60565b9150610cf2565b610cef816112d9565b91505b600085610cff888561220e565b610d099190612243565b9050600160831b811015610d2e57610d20816113c7565b607f94509450505050610d56565b6000610d39826119f2565b9050610d49610c5f82607f6122f2565b95509350610d5692505050565b9550959350505050565b6000808080806fd3094c70f034de4b96ff7d5b6f99fcd88610610db957610d8b6001607e1b856122c4565b93506fd3094c70f034de4b96ff7d5b6f99fcd8610dac6001607f1b8861220e565b610db69190612243565b95505b6fa45af1e1f40c333b3de1db4dd55f29a78610610e0c57610dde6001607d1b856122c4565b93506fa45af1e1f40c333b3de1db4dd55f29a7610dff6001607f1b8861220e565b610e099190612243565b95505b6f910b022db7ae67ce76b441c27035c6a18610610e5f57610e316001607c1b856122c4565b93506f910b022db7ae67ce76b441c27035c6a1610e526001607f1b8861220e565b610e5c9190612243565b95505b6f88415abbe9a76bead8d00cf112e4d4a88610610eb257610e846001607b1b856122c4565b93506f88415abbe9a76bead8d00cf112e4d4a8610ea56001607f1b8861220e565b610eaf9190612243565b95505b6f84102b00893f64c705e841d5d4064bd38610610f0557610ed76001607a1b856122c4565b93506f84102b00893f64c705e841d5d4064bd3610ef86001607f1b8861220e565b610f029190612243565b95505b6f8204055aaef1c8bd5c3259f4822735a28610610f5857610f2a600160791b856122c4565b93506f8204055aaef1c8bd5c3259f4822735a2610f4b6001607f1b8861220e565b610f559190612243565b95505b6f810100ab00222d861931c15e39b44e998610610fab57610f7d600160781b856122c4565b93506f810100ab00222d861931c15e39b44e99610f9e6001607f1b8861220e565b610fa89190612243565b95505b6f808040155aabbbe9451521693554f7338610610ffe57610fd0600160771b856122c4565b93506f808040155aabbbe9451521693554f733610ff16001607f1b8861220e565b610ffb9190612243565b95505b61100c6001607f1b876122ad565b92508291506001607f1b611020838061220e565b61102a9190612243565b9050600160801b61103b84826122ad565b611045908461220e565b61104f9190612243565b61105990856122c4565b93506001607f1b61106a828461220e565b6110749190612243565b9150600160811b611095846faaaaaaaaaaaaaaaaaaaaaaaaaaaaaaaa6122ad565b61109f908461220e565b6110a99190612243565b6110b390856122c4565b93506001607f1b6110c4828461220e565b6110ce9190612243565b9150600360801b6110ef846f999999999999999999999999999999996122ad565b6110f9908461220e565b6111039190612243565b61110d90856122c4565b93506001607f1b61111e828461220e565b6111289190612243565b9150600160821b611149846f924924924924924924924924924924926122ad565b611153908461220e565b61115d9190612243565b61116790856122c4565b93506001607f1b611178828461220e565b6111829190612243565b9150600560801b6111a3846f8e38e38e38e38e38e38e38e38e38e38e6122ad565b6111ad908461220e565b6111b79190612243565b6111c190856122c4565b93506001607f1b6111d2828461220e565b6111dc9190612243565b9150600360811b6111fd846f8ba2e8ba2e8ba2e8ba2e8ba2e8ba2e8b6122ad565b611207908461220e565b6112119190612243565b61121b90856122c4565b93506001607f1b61122c828461220e565b6112369190612243565b9150600760801b611257846f89d89d89d89d89d89d89d89d89d89d896122ad565b611261908461220e565b61126b9190612243565b61127590856122c4565b93506001607f1b611286828461220e565b6112909190612243565b9150600160831b6112b1846f888888888888888888888888888888886122ad565b6112bb908461220e565b6112c59190612243565b6112cf90856122c4565b9695505050505050565b600080600160801b831061131d5760006112ff6112fa6001607f1b86612243565b61210c565b60ff811694851c94909150611319906001607f1b9061220e565b9150505b6001607f1b83111561139257607f5b60ff811615611390576001607f1b611344858061220e565b61134e9190612243565b9350600160801b841061138057600193841c9361136b90826122f2565b60ff166001901b8261137d91906122c4565b91505b61138981612315565b905061132c565b505b6f05b9de1d10bf4103d647b0955897ba806113bd6f03f80fe03f80fe03f80fe03f80fe03f88361220e565b610b9b9190612243565b60008080806113da6001607c1b86612332565b91508190506001607f1b6113ee828061220e565b6113f89190612243565b905061140c816710e1b3be415a000061220e565b61141690846122c4565b92506001607f1b611427838361220e565b6114319190612243565b9050611445816705a0913f6b1e000061220e565b61144f90846122c4565b92506001607f1b611460838361220e565b61146a9190612243565b905061147e81670168244fdac7800061220e565b61148890846122c4565b92506001607f1b611499838361220e565b6114a39190612243565b90506114b681664807432bc1800061220e565b6114c090846122c4565b92506001607f1b6114d1838361220e565b6114db9190612243565b90506114ee81660c0135dca0400061220e565b6114f890846122c4565b92506001607f1b611509838361220e565b6115139190612243565b9050611526816601b707b1cdc00061220e565b61153090846122c4565b92506001607f1b611541838361220e565b61154b9190612243565b905061155d816536e0f639b80061220e565b61156790846122c4565b92506001607f1b611578838361220e565b6115829190612243565b905061159481650618fee9f80061220e565b61159e90846122c4565b92506001607f1b6115af838361220e565b6115b99190612243565b90506115ca81649c197dcc0061220e565b6115d490846122c4565b92506001607f1b6115e5838361220e565b6115ef9190612243565b905061160081640e30dce40061220e565b61160a90846122c4565b92506001607f1b61161b838361220e565b6116259190612243565b90506116368164012ebd130061220e565b61164090846122c4565b92506001607f1b611651838361220e565b61165b9190612243565b905061166b816317499f0061220e565b61167590846122c4565b92506001607f1b611686838361220e565b6116909190612243565b90506116a0816301a9d48061220e565b6116aa90846122c4565b92506001607f1b6116bb838361220e565b6116c59190612243565b90506116d481621c638061220e565b6116de90846122c4565b92506001607f1b6116ef838361220e565b6116f99190612243565b9050611708816201c63861220e565b61171290846122c4565b92506001607f1b611723838361220e565b61172d9190612243565b905061173b81611ab861220e565b61174590846122c4565b92506001607f1b611756838361220e565b6117609190612243565b905061176e8161017c61220e565b61177890846122c4565b92506001607f1b611789838361220e565b6117939190612243565b90506117a081601461220e565b6117aa90846122c4565b92506001607f1b6117bb838361220e565b6117c59190612243565b90506117d281600161220e565b6117dc90846122c4565b92506001607f1b826117f66721c3677c82b4000086612243565b61180091906122c4565b61180a91906122c4565b92506001607c1b8516156118525770018ebef9eac820ae8682b9793ac6d1e776611845847001c3d6a24ed82218787d624d3e5eba95f961220e565b61184f9190612243565b92505b6001607d1b851615611898577001368b2fc6f9609fe7aceb46aa619baed461188b8470018ebef9eac820ae8682b9793ac6d1e77861220e565b6118959190612243565b92505b6001607e1b8516156118dd576fbc5ab1b16779be3575bd8f0520a9f21f6118d0847001368b2fc6f9609fe7aceb46aa619baed561220e565b6118da9190612243565b92505b6001607f1b851615611921576f454aaa8efe072e7f6ddbab84b40a55c9611914846fbc5ab1b16779be3575bd8f0520a9f21e61220e565b61191e9190612243565b92505b600160801b851615611965576f0960aadc109e7a3bf4578099615711ea611958846f454aaa8efe072e7f6ddbab84b40a55c561220e565b6119629190612243565b92505b600160811b8516156119a8576e2bf84208204f5977f9a8cf01fdce3d61199b846f0960aadc109e7a3bf4578099615711d761220e565b6119a59190612243565b92505b600160821b8516156119e9576d03c6ab775dd0b95b4cbee7e65d116119dc846e2bf84208204f5977f9a8cf01fdc30761220e565b6119e69190612243565b92505b50909392505050565b60006020607f5b60ff8116611a08836001612346565b60ff161015611a5b5760006002611a1f8385612346565b611a29919061236b565b90508460008260ff1660808110611a4257611a426122dc565b015410611a5157809250611a55565b8091505b506119f9565b8360008260ff1660808110611a7257611a726122dc565b015410611a80579392505050565b8360008360ff1660808110611a9757611a976122dc565b015410610088575092915050565b6000828160ff8416611ab7838061220e565b901c9150611ad5826f03442c4e6074a82f1797f72ac000000061220e565b611adf90826122c4565b905060ff8416611aef868461220e565b901c9150611b0d826f0116b96f757c380fb287fd0e4000000061220e565b611b1790826122c4565b905060ff8416611b27868461220e565b901c9150611b44826e45ae5bdd5f0e03eca1ff439000000061220e565b611b4e90826122c4565b905060ff8416611b5e868461220e565b901c9150611b7b826e0defabf91302cd95b9ffda5000000061220e565b611b8590826122c4565b905060ff8416611b95868461220e565b901c9150611bb2826e02529ca9832b22439efff9b800000061220e565b611bbc90826122c4565b905060ff8416611bcc868461220e565b901c9150611be8826d54f1cf12bd04e516b6da8800000061220e565b611bf290826122c4565b905060ff8416611c02868461220e565b901c9150611c1e826d0a9e39e257a09ca2d6db5100000061220e565b611c2890826122c4565b905060ff8416611c38868461220e565b901c9150611c54826d012e066e7b839fa050c30900000061220e565b611c5e90826122c4565b905060ff8416611c6e868461220e565b901c9150611c89826c1e33d7d926c329a1ad1a80000061220e565b611c9390826122c4565b905060ff8416611ca3868461220e565b901c9150611cbe826c02bee513bdb4a6b19b5f80000061220e565b611cc890826122c4565b905060ff8416611cd8868461220e565b901c9150611cf2826b3a9316fa79b88eccf2a0000061220e565b611cfc90826122c4565b905060ff8416611d0c868461220e565b901c9150611d26826b048177ebe1fa81237520000061220e565b611d3090826122c4565b905060ff8416611d40868461220e565b901c9150611d59826a5263fe90242dcbacf0000061220e565b611d6390826122c4565b905060ff8416611d73868461220e565b901c9150611d8c826a057e22099c030d9410000061220e565b611d9690826122c4565b905060ff8416611da6868461220e565b901c9150611dbe826957e22099c030d941000061220e565b611dc890826122c4565b905060ff8416611dd8868461220e565b901c9150611df08269052b6b5456997631000061220e565b611dfa90826122c4565b905060ff8416611e0a868461220e565b901c9150611e2182684985f67696bf74800061220e565b611e2b90826122c4565b905060ff8416611e3b868461220e565b901c9150611e52826803dea12ea99e49800061220e565b611e5c90826122c4565b905060ff8416611e6c868461220e565b901c9150611e82826731880f2214b6e00061220e565b611e8c90826122c4565b905060ff8416611e9c868461220e565b901c9150611eb28267025bcff56eb3600061220e565b611ebc90826122c4565b905060ff8416611ecc868461220e565b901c9150611ee182661b722e10ab100061220e565b611eeb90826122c4565b905060ff8416611efb868461220e565b901c9150611f10826601317c7007700061220e565b611f1a90826122c4565b905060ff8416611f2a868461220e565b901c9150611f3e82650cba84aafa0061220e565b611f4890826122c4565b905060ff8416611f58868461220e565b901c9150611f6b826482573a0a0061220e565b611f7590826122c4565b905060ff8416611f85868461220e565b901c9150611f98826405035ad90061220e565b611fa290826122c4565b905060ff8416611fb2868461220e565b901c9150611fc482632f881b0061220e565b611fce90826122c4565b905060ff8416611fde868461220e565b901c9150611ff0826301b2934061220e565b611ffa90826122c4565b905060ff841661200a868461220e565b901c915061201b82620efc4061220e565b61202590826122c4565b905060ff8416612035868461220e565b901c915061204582617fe061220e565b61204f90826122c4565b905060ff841661205f868461220e565b901c915061206f8261042061220e565b61207990826122c4565b905060ff8416612089868461220e565b901c915061209882602161220e565b6120a290826122c4565b905060ff84166120b2868461220e565b901c91506120c182600161220e565b6120cb90826122c4565b9050600160ff85161b856120ef6f0688589cc0e9505e2f2fee558000000084612243565b6120f991906122c4565b61210391906122c4565b95945050505050565b60008061010083101561213f575b600183111561213a57600192831c926121339082612346565b905061211a565b610921565b60805b60ff81161561217157600160ff82161b84106121665760ff81169390931c92908117905b60011c607f16612142565b5092915050565b6000806040838503121561218b57600080fd5b50508035926020909101359150565b600080600080608085870312156121b057600080fd5b5050823594602084013594506040840135936060013592509050565b6000806000606084860312156121e157600080fd5b505081359360208301359350604090920135919050565b634e487b7160e01b600052601160045260246000fd5b6000816000190483118215151615612228576122286121f8565b500290565b634e487b7160e01b600052601260045260246000fd5b6000826122525761225261222d565b500490565b6020808252600e908201526d494e56414c49445f535550504c5960901b604082015260600190565b602080825260149082015273494e56414c49445f504f4f4c5f42414c414e434560601b604082015260600190565b6000828210156122bf576122bf6121f8565b500390565b600082198211156122d7576122d76121f8565b500190565b634e487b7160e01b600052603260045260246000fd5b600060ff821660ff84168082101561230c5761230c6121f8565b90039392505050565b600060ff821680612328576123286121f8565b6000190192915050565b6000826123415761234161222d565b500690565b600060ff821660ff84168060ff03821115612363576123636121f8565b019392505050565b600060ff83168061237e5761237e61222d565b8060ff8416049150509291505056fea26469706673582212209970d4c87aba785bc9f3d1626440bb489bd1220fdab3080eb42315547e45f64764736f6c634300080b0033",
    "linkReferences": {}
  }
}