{
  "abi": [
    {
      "inputs": [],
      "name": "InvalidPoolBalance",
      "type": "error"
    },
    {
      "inputs": [],
      "name": "InvalidSupply",
      "type": "error"
    },
    {
      "inputs": [
        {
          "internalType": "uint256",
          "name": "_tokens",
          "type": "uint256"
        },
        {
          "internalType": "uint256",
          "name": "_reserveRatio",
          "type": "uint256"
        },
        {
          "internalType": "uint256",
          "name": "_slopeInit",
          "type": "uint256"
        }
      ],
      "name": "calculateInitializationPrice",
      "outputs": [
        {
          "internalType": "uint256",
          "name": "",
          "type": "uint256"
        }
      ],
      "stateMutability": "view",
      "type": "function"
    },
    {
      "inputs": [
        {
          "internalType": "uint256",
          "name": "_price",
          "type": "uint256"
        },
        {
          "internalType": "uint256",
          "name": "_reserveRatio",
          "type": "uint256"
        },
        {
          "internalType": "uint256",
          "name": "_slopeInit",
          "type": "uint256"
        }
      ],
      "name": "calculateInitializationReturn",
      "outputs": [
        {
          "internalType": "uint256",
          "name": "",
          "type": "uint256"
        }
      ],
      "stateMutability": "view",
      "type": "function"
    },
    {
      "inputs": [
        {
          "internalType": "uint256",
          "name": "_supply",
          "type": "uint256"
        },
        {
          "internalType": "uint256",
          "name": "_poolBalance",
          "type": "uint256"
        },
        {
          "internalType": "uint256",
          "name": "_reserveRatio",
          "type": "uint256"
        },
        {
          "internalType": "uint256",
          "name": "_tokens",
          "type": "uint256"
        }
      ],
      "name": "calculatePurchasePrice",
      "outputs": [
        {
          "internalType": "uint256",
          "name": "",
          "type": "uint256"
        }
      ],
      "stateMutability": "view",
      "type": "function"
    },
    {
      "inputs": [
        {
          "internalType": "uint256",
          "name": "_supply",
          "type": "uint256"
        },
        {
          "internalType": "uint256",
          "name": "_poolBalance",
          "type": "uint256"
        },
        {
          "internalType": "uint256",
          "name": "_reserveRatio",
          "type": "uint256"
        },
        {
          "internalType": "uint256",
          "name": "_price",
          "type": "uint256"
        }
      ],
      "name": "calculatePurchaseReturn",
      "outputs": [
        {
          "internalType": "uint256",
          "name": "",
          "type": "uint256"
        }
      ],
      "stateMutability": "view",
      "type": "function"
    },
    {
      "inputs": [
        {
          "internalType": "uint256",
          "name": "_supply",
          "type": "uint256"
        },
        {
          "internalType": "uint256",
          "name": "_poolBalance",
          "type": "uint256"
        },
        {
          "internalType": "uint256",
          "name": "_reserveRatio",
          "type": "uint256"
        },
        {
          "internalType": "uint256",
          "name": "_price",
          "type": "uint256"
        }
      ],
      "name": "calculateSalePrice",
      "outputs": [
        {
          "internalType": "uint256",
          "name": "",
          "type": "uint256"
        }
      ],
      "stateMutability": "view",
      "type": "function"
    },
    {
      "inputs": [
        {
          "internalType": "uint256",
          "name": "_supply",
          "type": "uint256"
        },
        {
          "internalType": "uint256",
          "name": "_poolBalance",
          "type": "uint256"
        },
        {
          "internalType": "uint256",
          "name": "_reserveRatio",
          "type": "uint256"
        },
        {
          "internalType": "uint256",
          "name": "_tokens",
          "type": "uint256"
        }
      ],
      "name": "calculateSaleReturn",
      "outputs": [
        {
          "internalType": "uint256",
          "name": "",
          "type": "uint256"
        }
      ],
      "stateMutability": "view",
      "type": "function"
    },
    {
      "inputs": [],
      "name": "initMaxExpArray",
      "outputs": [],
      "stateMutability": "nonpayable",
      "type": "function"
    },
    {
      "inputs": [],
      "name": "maxRatio",
      "outputs": [
        {
          "internalType": "uint256",
          "name": "",
          "type": "uint256"
        }
      ],
      "stateMutability": "view",
      "type": "function"
    }
  ],
  "bytecode": {
    "object": "0x608060405234801561001057600080fd5b5061073f6001641c35fedd1560601b036020556001646c3390ecc9605e1b036021556001640cf801476160611b0360225560016431bdb23e1d605f1b0360235560016502fb1d8fe083605b1b0360245560016505b771955b37605a1b036025556001650af67a93bb5160591b0360265560016515060c256cb360581b036027556001651428a2f98d7360581b036028556001654d515663970960561b03602955600165944620b0e70f60551b03602a55600166011c592761c66760541b03602b5560016602214d10d014eb60531b03602c55600166020ade36b7dbef60531b03602d5560016603eab73b3bbfe360521b03602e556001660782ee3593f6d760511b03602f556001661ccf4b44bb4821604f1b0360305560016606e7f88ad8a77760511b0360315560016669f3d1c921891d604d1b03603255600166cb2ff529eb71e5604c1b03603355600166c2d415c3db974b604c1b0360345560016702eb40f9f620fda7604a1b0360355560016705990681d961a1eb60491b03603655600167055e12902701414760491b0360375560016714962dee9dc9764160471b0360385560016704ef57b9b560fab560491b0360395560016712ed7b32a58f552b60471b03603a556001679131271922eaa60760441b03603b556001678b380f3558668c4760441b03603c556001680215f77c045fbe885760421b03603d556001600160831b03603e556001670f577eded5773a1160471b03603f556001680eb5ec597592befbf5603f1b036040556001681c35fedd14b861eb05603e1b036041556001683619c87664579bc94b603d1b0360425560016867c00a3b07ffc01fd7603c1b03604355600168c6f6c8f8739773a7a5603b1b03604455600168bec763f8209b7a72b1603b1b0360455560016902dbb8caad9b7097b91b60391b03604655600169057b3d49dda84556d6f760381b03604755600169054183095b2c8ececf3160381b036048556001690a14517cc6b9457111ef60371b0360495560016913545598e5c23276ccf160361b03604a556001692511882c39c3adea96ff60351b03604b55600169471649d87199aa99075760341b03604c557004429a21a029d4c1457cfbffffffffffff604d55700415bc6d6fb7dd71af2cb3ffffffffffff604e557003eab73b3bbfe282243ce1ffffffffffff604f557003c1771ac9fb6b4c18e229ffffffffffff605055700399e96897690418f785257fffffffffff605155700373fc456c53bb779bf0ea9fffffffffff60525570034f9e8e490c48e67e6ab8bfffffffffff60535570032cbfd4a7adc790560b3337ffffffffff60545570030b50570f6e5d2acca94613ffffffffff6055557002eb40f9f620fda6b56c2861ffffffffff6056557002cc8340ecb0d0f520a6af58ffffffffff6057557002af09481380a0a35cf1ba02ffffffffff605855700292c5bdd3b92ec810287b1b3fffffffff605955700277abdcdab07d5a77ac6d6b9fffffffff605a5570025daf6654b1eaa55fd64df5efffffffff605b55700244c49c648baa98192dce88b7ffffffff605c5570022ce03cd5619a311b2471268bffffffff605d55700215f77c045fbe885654a44a0fffffffff605e556001600160811b03605f557001eaefdbdaaee7421fc4d3ede5ffffffff6060557001d6bd8b2eb257df7e8ca57b09bfffffff6061557001c35fedd14b861eb0443f7f133fffffff6062557001b0ce43b322bcde4a56e8ada5afffffff60635570019f0028ec1fff007f5a195a39dfffffff60645570018ded91f0e72ee74f49b15ba527ffffff60655570017d8ec7f04136f4e5615fd41a63ffffff60665570016ddc6556cdb84bdc8d12d22e6fffffff60675570015ecf52776a1155b5bd8395814f7fffff60685570015060c256cb23b3b3cc3754cf40ffffff6069557001428a2f98d728ae223ddab715be3fffff606a5570013545598e5c23276ccf0ede68034fffff606b557001288c4161ce1d6f54b7f61081194fffff606c5570011c592761c666aa641d5a01a40f17ffff606d55700110a688680a7530515f3e6e6cfdcdffff606e557001056f1b5bedf75c6bcb2ce8aed428ffff606f556ffaadceceeff8a0890f3875f008277fff6070556ff05dc6b27edad306388a600f6ba0bfff6071556fe67a5a25da41063de1495d5b18cdbfff6072556fdcff115b14eedde6fc3aa5353f2e4fff6073556fd3e7a3924312399f9aae2e0f868f8fff6074556fcb2ff529eb71e41582cccd5a1ee26fff6075556fc2d415c3db974ab32a51840c0b67edff6076556fbad03e7d883f69ad5b0a186184e06bff6077556fb320d03b2c343d4829abd6075f0cc5ff6078556fabc25204e02828d73c6e80bcdb1a95bf6079556fa4b16f74ee4bb2040a1ec6c15fbbf2df607a556f9deaf736ac1f569deb1b5ae3f36c130f607b556f976bd9952c7aa957f5937d790ef65037607c556f9131271922eaa6064b73a22d0bd4f2bf607d556f8b380f3558668c46c91c49a2f8e967b9607e556f857ddf0117efa215952912839f6473e6607f55565b6122748061074e6000396000f3fe608060405234801561001057600080fd5b50600436106100885760003560e01c8063b62c23b51161005b578063b62c23b5146108a6578063beb27b86146108b9578063cbf806d0146108cc578063d47d2a76146108df57600080fd5b806376365af71461008d57806381c3ae3a146100a957806395eed524146100bc578063aa248a46146100cf575b600080fd5b610097620f424081565b60405190815260200160405180910390f35b6100976100b73660046120a1565b6108f2565b6100976100ca3660046120a1565b610956565b6108a4701c35fedd14ffffffffffffffffffffffff602055701b0ce43b323fffffffffffffffffffffff6021557019f0028ec1ffffffffffffffffffffffff6022557018ded91f0e7fffffffffffffffffffffff6023557017d8ec7f0417ffffffffffffffffffffff6024557016ddc6556cdbffffffffffffffffffffff6025557015ecf52776a1ffffffffffffffffffffff6026557015060c256cb2ffffffffffffffffffffff602755701428a2f98d72ffffffffffffffffffffff6028557013545598e5c23fffffffffffffffffffff602955701288c4161ce1dfffffffffffffffffffff602a557011c592761c666fffffffffffffffffffff602b5570110a688680a757ffffffffffffffffffff602c55701056f1b5bedf77ffffffffffffffffffff602d55700faadceceeff8bffffffffffffffffffff602e55700f05dc6b27edadffffffffffffffffffff602f55700e67a5a25da4107fffffffffffffffffff603055700dcff115b14eedffffffffffffffffffff603155700d3e7a392431239fffffffffffffffffff603255700cb2ff529eb71e4fffffffffffffffffff603355700c2d415c3db974afffffffffffffffffff603455700bad03e7d883f69bffffffffffffffffff603555700b320d03b2c343d5ffffffffffffffffff603655700abc25204e02828dffffffffffffffffff603755700a4b16f74ee4bb207fffffffffffffffff6038557009deaf736ac1f569ffffffffffffffffff603955700976bd9952c7aa957fffffffffffffffff603a557009131271922eaa606fffffffffffffffff603b557008b380f3558668c46fffffffffffffffff603c55700857ddf0117efa215bffffffffffffffff603d557007ffffffffffffffffffffffffffffffff603e557007abbf6f6abb9d087fffffffffffffffff603f5570075af62cbac95f7dfa7fffffffffffffff60405570070d7fb7452e187ac13fffffffffffffff6041557006c3390ecc8af379295fffffffffffffff60425570067c00a3b07ffc01fd6fffffffffffffff604355700637b647c39cbb9d3d27ffffffffffffff6044557005f63b1fc104dbd39587ffffffffffffff6045557005b771955b36e12f7235ffffffffffffff60465570057b3d49dda84556d6f6ffffffffffffff60475570054183095b2c8ececf30ffffffffffffff60485570050a28be635ca2b888f77fffffffffffff6049557004d5156639708c9db33c3fffffffffffff604a557004a23105873875bd52dfdfffffffffffff604b55700471649d87199aa990756fffffffffffff604c557004429a21a029d4c1457cfbffffffffffff604d55700415bc6d6fb7dd71af2cb3ffffffffffff604e557003eab73b3bbfe282243ce1ffffffffffff604f557003c1771ac9fb6b4c18e229ffffffffffff605055700399e96897690418f785257fffffffffff605155700373fc456c53bb779bf0ea9fffffffffff60525570034f9e8e490c48e67e6ab8bfffffffffff60535570032cbfd4a7adc790560b3337ffffffffff60545570030b50570f6e5d2acca94613ffffffffff6055557002eb40f9f620fda6b56c2861ffffffffff6056557002cc8340ecb0d0f520a6af58ffffffffff6057557002af09481380a0a35cf1ba02ffffffffff605855700292c5bdd3b92ec810287b1b3fffffffff605955700277abdcdab07d5a77ac6d6b9fffffffff605a5570025daf6654b1eaa55fd64df5efffffffff605b55700244c49c648baa98192dce88b7ffffffff605c5570022ce03cd5619a311b2471268bffffffff605d55700215f77c045fbe885654a44a0fffffffff605e557001ffffffffffffffffffffffffffffffff605f557001eaefdbdaaee7421fc4d3ede5ffffffff6060557001d6bd8b2eb257df7e8ca57b09bfffffff6061557001c35fedd14b861eb0443f7f133fffffff6062557001b0ce43b322bcde4a56e8ada5afffffff60635570019f0028ec1fff007f5a195a39dfffffff60645570018ded91f0e72ee74f49b15ba527ffffff60655570017d8ec7f04136f4e5615fd41a63ffffff60665570016ddc6556cdb84bdc8d12d22e6fffffff60675570015ecf52776a1155b5bd8395814f7fffff60685570015060c256cb23b3b3cc3754cf40ffffff6069557001428a2f98d728ae223ddab715be3fffff606a5570013545598e5c23276ccf0ede68034fffff606b557001288c4161ce1d6f54b7f61081194fffff606c5570011c592761c666aa641d5a01a40f17ffff606d55700110a688680a7530515f3e6e6cfdcdffff606e557001056f1b5bedf75c6bcb2ce8aed428ffff606f556ffaadceceeff8a0890f3875f008277fff6070556ff05dc6b27edad306388a600f6ba0bfff6071556fe67a5a25da41063de1495d5b18cdbfff6072556fdcff115b14eedde6fc3aa5353f2e4fff6073556fd3e7a3924312399f9aae2e0f868f8fff6074556fcb2ff529eb71e41582cccd5a1ee26fff6075556fc2d415c3db974ab32a51840c0b67edff6076556fbad03e7d883f69ad5b0a186184e06bff6077556fb320d03b2c343d4829abd6075f0cc5ff6078556fabc25204e02828d73c6e80bcdb1a95bf6079556fa4b16f74ee4bb2040a1ec6c15fbbf2df607a556f9deaf736ac1f569deb1b5ae3f36c130f607b556f976bd9952c7aa957f5937d790ef65037607c556f9131271922eaa6064b73a22d0bd4f2bf607d556f8b380f3558668c46c91c49a2f8e967b9607e556f857ddf0117efa215952912839f6473e6607f55565b005b6100976108b43660046120d3565b6109a1565b6100976108c73660046120a1565b610a04565b6100976108da3660046120a1565b610a43565b6100976108ed3660046120d3565b610a86565b60008482141561090357508261094e565b60008061091e876109148682612115565b620f424088610aca565b90925090508160ff821687901b610935828961212c565b61093f9190612115565b6109499190612161565b925050505b949350505050565b600080806109726109678786612175565b8787620f4240610aca565b9092509050600060ff8216610987848a61212c565b901c90506109958882612115565b98975050505050505050565b6000620f42408314156109bf576109b88285612161565b90506109fd565b6000806109d3866103e8620f424088610aca565b909250905060ff811682901c620f42406109ed878361212c565b6109f79190612161565b93505050505b9392505050565b60008080610a20610a158886612175565b88620f424088610aca565b9092509050600060ff8216610a35848961212c565b901c90506109958782612115565b600083821415610a5457508361094e565b600080610a6f86610a658682612115565b87620f4240610aca565b90925090508160ff821688901b610935828a61212c565b6000620f4240831415610a9d576109b8828561212c565b600080610abc610aad858861212c565b86620f424088620f4240610ba9565b60ff161c9695505050505050565b600080600160811b8610610add57600080fd5b60008086610aef6001607f1b8a61212c565b610af99190612161565b905070015bf0a8b1457695355fb8ac404e7a79e3811015610b2457610b1d81610c88565b9150610b30565b610b2d81611201565b91505b600085610b3d888561212c565b610b479190612161565b9050600160831b811015610b6c57610b5e816112ef565b607f94509450505050610ba0565b6000610b778261191a565b9050610b93610b8782607f6121a3565b60ff1683901c826119cd565b95509350610ba092505050565b94509492505050565b600080600160811b8710610bbc57600080fd5b600080876001607f1b610bcf898c61212c565b610bd9919061212c565b610be39190612161565b905070015bf0a8b1457695355fb8ac404e7a79e3811015610c0e57610c0781610c88565b9150610c1a565b610c1781611201565b91505b600085610c27888561212c565b610c319190612161565b9050600160831b811015610c5657610c48816112ef565b607f94509450505050610c7e565b6000610c618261191a565b9050610c71610b8782607f6121a3565b95509350610c7e92505050565b9550959350505050565b6000808080806fd3094c70f034de4b96ff7d5b6f99fcd88610610ce157610cb36001607e1b85612175565b93506fd3094c70f034de4b96ff7d5b6f99fcd8610cd46001607f1b8861212c565b610cde9190612161565b95505b6fa45af1e1f40c333b3de1db4dd55f29a78610610d3457610d066001607d1b85612175565b93506fa45af1e1f40c333b3de1db4dd55f29a7610d276001607f1b8861212c565b610d319190612161565b95505b6f910b022db7ae67ce76b441c27035c6a18610610d8757610d596001607c1b85612175565b93506f910b022db7ae67ce76b441c27035c6a1610d7a6001607f1b8861212c565b610d849190612161565b95505b6f88415abbe9a76bead8d00cf112e4d4a88610610dda57610dac6001607b1b85612175565b93506f88415abbe9a76bead8d00cf112e4d4a8610dcd6001607f1b8861212c565b610dd79190612161565b95505b6f84102b00893f64c705e841d5d4064bd38610610e2d57610dff6001607a1b85612175565b93506f84102b00893f64c705e841d5d4064bd3610e206001607f1b8861212c565b610e2a9190612161565b95505b6f8204055aaef1c8bd5c3259f4822735a28610610e8057610e52600160791b85612175565b93506f8204055aaef1c8bd5c3259f4822735a2610e736001607f1b8861212c565b610e7d9190612161565b95505b6f810100ab00222d861931c15e39b44e998610610ed357610ea5600160781b85612175565b93506f810100ab00222d861931c15e39b44e99610ec66001607f1b8861212c565b610ed09190612161565b95505b6f808040155aabbbe9451521693554f7338610610f2657610ef8600160771b85612175565b93506f808040155aabbbe9451521693554f733610f196001607f1b8861212c565b610f239190612161565b95505b610f346001607f1b87612115565b92508291506001607f1b610f48838061212c565b610f529190612161565b9050600160801b610f638482612115565b610f6d908461212c565b610f779190612161565b610f819085612175565b93506001607f1b610f92828461212c565b610f9c9190612161565b9150600160811b610fbd846faaaaaaaaaaaaaaaaaaaaaaaaaaaaaaaa612115565b610fc7908461212c565b610fd19190612161565b610fdb9085612175565b93506001607f1b610fec828461212c565b610ff69190612161565b9150600360801b611017846f99999999999999999999999999999999612115565b611021908461212c565b61102b9190612161565b6110359085612175565b93506001607f1b611046828461212c565b6110509190612161565b9150600160821b611071846f92492492492492492492492492492492612115565b61107b908461212c565b6110859190612161565b61108f9085612175565b93506001607f1b6110a0828461212c565b6110aa9190612161565b9150600560801b6110cb846f8e38e38e38e38e38e38e38e38e38e38e612115565b6110d5908461212c565b6110df9190612161565b6110e99085612175565b93506001607f1b6110fa828461212c565b6111049190612161565b9150600360811b611125846f8ba2e8ba2e8ba2e8ba2e8ba2e8ba2e8b612115565b61112f908461212c565b6111399190612161565b6111439085612175565b93506001607f1b611154828461212c565b61115e9190612161565b9150600760801b61117f846f89d89d89d89d89d89d89d89d89d89d89612115565b611189908461212c565b6111939190612161565b61119d9085612175565b93506001607f1b6111ae828461212c565b6111b89190612161565b9150600160831b6111d9846f88888888888888888888888888888888612115565b6111e3908461212c565b6111ed9190612161565b6111f79085612175565b9695505050505050565b600080600160801b83106112455760006112276112226001607f1b86612161565b612034565b60ff811694851c94909150611241906001607f1b9061212c565b9150505b6001607f1b8311156112ba57607f5b60ff8116156112b8576001607f1b61126c858061212c565b6112769190612161565b9350600160801b84106112a857600193841c9361129390826121a3565b60ff166001901b826112a59190612175565b91505b6112b1816121c6565b9050611254565b505b6f05b9de1d10bf4103d647b0955897ba806112e56f03f80fe03f80fe03f80fe03f80fe03f88361212c565b6109fd9190612161565b60008080806113026001607c1b866121e3565b91508190506001607f1b611316828061212c565b6113209190612161565b9050611334816710e1b3be415a000061212c565b61133e9084612175565b92506001607f1b61134f838361212c565b6113599190612161565b905061136d816705a0913f6b1e000061212c565b6113779084612175565b92506001607f1b611388838361212c565b6113929190612161565b90506113a681670168244fdac7800061212c565b6113b09084612175565b92506001607f1b6113c1838361212c565b6113cb9190612161565b90506113de81664807432bc1800061212c565b6113e89084612175565b92506001607f1b6113f9838361212c565b6114039190612161565b905061141681660c0135dca0400061212c565b6114209084612175565b92506001607f1b611431838361212c565b61143b9190612161565b905061144e816601b707b1cdc00061212c565b6114589084612175565b92506001607f1b611469838361212c565b6114739190612161565b9050611485816536e0f639b80061212c565b61148f9084612175565b92506001607f1b6114a0838361212c565b6114aa9190612161565b90506114bc81650618fee9f80061212c565b6114c69084612175565b92506001607f1b6114d7838361212c565b6114e19190612161565b90506114f281649c197dcc0061212c565b6114fc9084612175565b92506001607f1b61150d838361212c565b6115179190612161565b905061152881640e30dce40061212c565b6115329084612175565b92506001607f1b611543838361212c565b61154d9190612161565b905061155e8164012ebd130061212c565b6115689084612175565b92506001607f1b611579838361212c565b6115839190612161565b9050611593816317499f0061212c565b61159d9084612175565b92506001607f1b6115ae838361212c565b6115b89190612161565b90506115c8816301a9d48061212c565b6115d29084612175565b92506001607f1b6115e3838361212c565b6115ed9190612161565b90506115fc81621c638061212c565b6116069084612175565b92506001607f1b611617838361212c565b6116219190612161565b9050611630816201c63861212c565b61163a9084612175565b92506001607f1b61164b838361212c565b6116559190612161565b905061166381611ab861212c565b61166d9084612175565b92506001607f1b61167e838361212c565b6116889190612161565b90506116968161017c61212c565b6116a09084612175565b92506001607f1b6116b1838361212c565b6116bb9190612161565b90506116c881601461212c565b6116d29084612175565b92506001607f1b6116e3838361212c565b6116ed9190612161565b90506116fa81600161212c565b6117049084612175565b92506001607f1b8261171e6721c3677c82b4000086612161565b6117289190612175565b6117329190612175565b92506001607c1b85161561177a5770018ebef9eac820ae8682b9793ac6d1e77661176d847001c3d6a24ed82218787d624d3e5eba95f961212c565b6117779190612161565b92505b6001607d1b8516156117c0577001368b2fc6f9609fe7aceb46aa619baed46117b38470018ebef9eac820ae8682b9793ac6d1e77861212c565b6117bd9190612161565b92505b6001607e1b851615611805576fbc5ab1b16779be3575bd8f0520a9f21f6117f8847001368b2fc6f9609fe7aceb46aa619baed561212c565b6118029190612161565b92505b6001607f1b851615611849576f454aaa8efe072e7f6ddbab84b40a55c961183c846fbc5ab1b16779be3575bd8f0520a9f21e61212c565b6118469190612161565b92505b600160801b85161561188d576f0960aadc109e7a3bf4578099615711ea611880846f454aaa8efe072e7f6ddbab84b40a55c561212c565b61188a9190612161565b92505b600160811b8516156118d0576e2bf84208204f5977f9a8cf01fdce3d6118c3846f0960aadc109e7a3bf4578099615711d761212c565b6118cd9190612161565b92505b600160821b851615611911576d03c6ab775dd0b95b4cbee7e65d11611904846e2bf84208204f5977f9a8cf01fdc30761212c565b61190e9190612161565b92505b50909392505050565b60006020607f5b60ff81166119308360016121f7565b60ff161015611983576000600261194783856121f7565b611951919061221c565b90508460008260ff166080811061196a5761196a61218d565b0154106119795780925061197d565b8091505b50611921565b8360008260ff166080811061199a5761199a61218d565b0154106119a8579392505050565b8360008360ff16608081106119bf576119bf61218d565b015410610088575092915050565b6000828160ff84166119df838061212c565b901c91506119fd826f03442c4e6074a82f1797f72ac000000061212c565b611a079082612175565b905060ff8416611a17868461212c565b901c9150611a35826f0116b96f757c380fb287fd0e4000000061212c565b611a3f9082612175565b905060ff8416611a4f868461212c565b901c9150611a6c826e45ae5bdd5f0e03eca1ff439000000061212c565b611a769082612175565b905060ff8416611a86868461212c565b901c9150611aa3826e0defabf91302cd95b9ffda5000000061212c565b611aad9082612175565b905060ff8416611abd868461212c565b901c9150611ada826e02529ca9832b22439efff9b800000061212c565b611ae49082612175565b905060ff8416611af4868461212c565b901c9150611b10826d54f1cf12bd04e516b6da8800000061212c565b611b1a9082612175565b905060ff8416611b2a868461212c565b901c9150611b46826d0a9e39e257a09ca2d6db5100000061212c565b611b509082612175565b905060ff8416611b60868461212c565b901c9150611b7c826d012e066e7b839fa050c30900000061212c565b611b869082612175565b905060ff8416611b96868461212c565b901c9150611bb1826c1e33d7d926c329a1ad1a80000061212c565b611bbb9082612175565b905060ff8416611bcb868461212c565b901c9150611be6826c02bee513bdb4a6b19b5f80000061212c565b611bf09082612175565b905060ff8416611c00868461212c565b901c9150611c1a826b3a9316fa79b88eccf2a0000061212c565b611c249082612175565b905060ff8416611c34868461212c565b901c9150611c4e826b048177ebe1fa81237520000061212c565b611c589082612175565b905060ff8416611c68868461212c565b901c9150611c81826a5263fe90242dcbacf0000061212c565b611c8b9082612175565b905060ff8416611c9b868461212c565b901c9150611cb4826a057e22099c030d9410000061212c565b611cbe9082612175565b905060ff8416611cce868461212c565b901c9150611ce6826957e22099c030d941000061212c565b611cf09082612175565b905060ff8416611d00868461212c565b901c9150611d188269052b6b5456997631000061212c565b611d229082612175565b905060ff8416611d32868461212c565b901c9150611d4982684985f67696bf74800061212c565b611d539082612175565b905060ff8416611d63868461212c565b901c9150611d7a826803dea12ea99e49800061212c565b611d849082612175565b905060ff8416611d94868461212c565b901c9150611daa826731880f2214b6e00061212c565b611db49082612175565b905060ff8416611dc4868461212c565b901c9150611dda8267025bcff56eb3600061212c565b611de49082612175565b905060ff8416611df4868461212c565b901c9150611e0982661b722e10ab100061212c565b611e139082612175565b905060ff8416611e23868461212c565b901c9150611e38826601317c7007700061212c565b611e429082612175565b905060ff8416611e52868461212c565b901c9150611e6682650cba84aafa0061212c565b611e709082612175565b905060ff8416611e80868461212c565b901c9150611e93826482573a0a0061212c565b611e9d9082612175565b905060ff8416611ead868461212c565b901c9150611ec0826405035ad90061212c565b611eca9082612175565b905060ff8416611eda868461212c565b901c9150611eec82632f881b0061212c565b611ef69082612175565b905060ff8416611f06868461212c565b901c9150611f18826301b2934061212c565b611f229082612175565b905060ff8416611f32868461212c565b901c9150611f4382620efc4061212c565b611f4d9082612175565b905060ff8416611f5d868461212c565b901c9150611f6d82617fe061212c565b611f779082612175565b905060ff8416611f87868461212c565b901c9150611f978261042061212c565b611fa19082612175565b905060ff8416611fb1868461212c565b901c9150611fc082602161212c565b611fca9082612175565b905060ff8416611fda868461212c565b901c9150611fe982600161212c565b611ff39082612175565b9050600160ff85161b856120176f0688589cc0e9505e2f2fee558000000084612161565b6120219190612175565b61202b9190612175565b95945050505050565b600080610100831015612067575b600183111561206257600192831c9261205b90826121f7565b9050612042565b61209b565b60805b60ff81161561209957600160ff82161b841061208e5760ff81169390931c92908117905b60011c607f1661206a565b505b92915050565b600080600080608085870312156120b757600080fd5b5050823594602084013594506040840135936060013592509050565b6000806000606084860312156120e857600080fd5b505081359360208301359350604090920135919050565b634e487b7160e01b600052601160045260246000fd5b600082821015612127576121276120ff565b500390565b6000816000190483118215151615612146576121466120ff565b500290565b634e487b7160e01b600052601260045260246000fd5b6000826121705761217061214b565b500490565b60008219821115612188576121886120ff565b500190565b634e487b7160e01b600052603260045260246000fd5b600060ff821660ff8416808210156121bd576121bd6120ff565b90039392505050565b600060ff8216806121d9576121d96120ff565b6000190192915050565b6000826121f2576121f261214b565b500690565b600060ff821660ff84168060ff03821115612214576122146120ff565b019392505050565b600060ff83168061222f5761222f61214b565b8060ff8416049150509291505056fea2646970667358221220046e4a1b5d1ab7dde5fed1a59e2da7d6fd5f4042e943ee89d13e8a4f6801fc4064736f6c634300080b0033",
    "linkReferences": {}
  }
}