{
  "abi": [
    {
      "inputs": [
        {
          "internalType": "address",
          "name": "_factory",
          "type": "address"
        }
      ],
      "stateMutability": "nonpayable",
      "type": "constructor"
    },
    {
      "anonymous": false,
      "inputs": [
        {
          "indexed": true,
          "internalType": "address",
          "name": "owner",
          "type": "address"
        },
        {
          "indexed": true,
          "internalType": "address",
          "name": "spender",
          "type": "address"
        },
        {
          "indexed": true,
          "internalType": "uint256",
          "name": "id",
          "type": "uint256"
        }
      ],
      "name": "Approval",
      "type": "event"
    },
    {
      "anonymous": false,
      "inputs": [
        {
          "indexed": true,
          "internalType": "address",
          "name": "owner",
          "type": "address"
        },
        {
          "indexed": true,
          "internalType": "address",
          "name": "operator",
          "type": "address"
        },
        {
          "indexed": false,
          "internalType": "bool",
          "name": "approved",
          "type": "bool"
        }
      ],
      "name": "ApprovalForAll",
      "type": "event"
    },
    {
      "anonymous": false,
      "inputs": [
        {
          "indexed": true,
          "internalType": "address",
          "name": "from",
          "type": "address"
        },
        {
          "indexed": true,
          "internalType": "address",
          "name": "to",
          "type": "address"
        },
        {
          "indexed": true,
          "internalType": "uint256",
          "name": "id",
          "type": "uint256"
        }
      ],
      "name": "Transfer",
      "type": "event"
    },
    {
      "inputs": [
        {
          "internalType": "address",
          "name": "spender",
          "type": "address"
        },
        {
          "internalType": "uint256",
          "name": "id",
          "type": "uint256"
        }
      ],
      "name": "approve",
      "outputs": [],
      "stateMutability": "nonpayable",
      "type": "function"
    },
    {
      "inputs": [
        {
          "internalType": "address",
          "name": "",
          "type": "address"
        }
      ],
      "name": "balanceOf",
      "outputs": [
        {
          "internalType": "uint256",
          "name": "",
          "type": "uint256"
        }
      ],
      "stateMutability": "view",
      "type": "function"
    },
    {
      "inputs": [],
      "name": "baseURI",
      "outputs": [
        {
          "internalType": "string",
          "name": "",
          "type": "string"
        }
      ],
      "stateMutability": "view",
      "type": "function"
    },
    {
      "inputs": [],
      "name": "exchange",
      "outputs": [
        {
          "internalType": "address",
          "name": "",
          "type": "address"
        }
      ],
      "stateMutability": "view",
      "type": "function"
    },
    {
      "inputs": [],
      "name": "factory",
      "outputs": [
        {
          "internalType": "address",
          "name": "",
          "type": "address"
        }
      ],
      "stateMutability": "view",
      "type": "function"
    },
    {
      "inputs": [
        {
          "internalType": "uint256",
          "name": "",
          "type": "uint256"
        }
      ],
      "name": "getApproved",
      "outputs": [
        {
          "internalType": "address",
          "name": "",
          "type": "address"
        }
      ],
      "stateMutability": "view",
      "type": "function"
    },
    {
      "inputs": [
        {
          "internalType": "string",
          "name": "_name",
          "type": "string"
        },
        {
          "internalType": "string",
          "name": "_symbol",
          "type": "string"
        },
        {
          "internalType": "string",
          "name": "_baseURI",
          "type": "string"
        },
        {
          "internalType": "address",
          "name": "_exchange",
          "type": "address"
        }
      ],
      "name": "initialize",
      "outputs": [],
      "stateMutability": "nonpayable",
      "type": "function"
    },
    {
      "inputs": [
        {
          "internalType": "address",
          "name": "",
          "type": "address"
        },
        {
          "internalType": "address",
          "name": "",
          "type": "address"
        }
      ],
      "name": "isApprovedForAll",
      "outputs": [
        {
          "internalType": "bool",
          "name": "",
          "type": "bool"
        }
      ],
      "stateMutability": "view",
      "type": "function"
    },
    {
      "inputs": [
        {
          "internalType": "address",
          "name": "_recipient",
          "type": "address"
        }
      ],
      "name": "mint",
      "outputs": [],
      "stateMutability": "nonpayable",
      "type": "function"
    },
    {
      "inputs": [],
      "name": "name",
      "outputs": [
        {
          "internalType": "string",
          "name": "",
          "type": "string"
        }
      ],
      "stateMutability": "view",
      "type": "function"
    },
    {
      "inputs": [
        {
          "internalType": "uint256",
          "name": "",
          "type": "uint256"
        }
      ],
      "name": "ownerOf",
      "outputs": [
        {
          "internalType": "address",
          "name": "",
          "type": "address"
        }
      ],
      "stateMutability": "view",
      "type": "function"
    },
    {
      "inputs": [
        {
          "internalType": "address",
          "name": "from",
          "type": "address"
        },
        {
          "internalType": "address",
          "name": "to",
          "type": "address"
        },
        {
          "internalType": "uint256",
          "name": "id",
          "type": "uint256"
        }
      ],
      "name": "safeTransferFrom",
      "outputs": [],
      "stateMutability": "nonpayable",
      "type": "function"
    },
    {
      "inputs": [
        {
          "internalType": "address",
          "name": "from",
          "type": "address"
        },
        {
          "internalType": "address",
          "name": "to",
          "type": "address"
        },
        {
          "internalType": "uint256",
          "name": "id",
          "type": "uint256"
        },
        {
          "internalType": "bytes",
          "name": "data",
          "type": "bytes"
        }
      ],
      "name": "safeTransferFrom",
      "outputs": [],
      "stateMutability": "nonpayable",
      "type": "function"
    },
    {
      "inputs": [
        {
          "internalType": "address",
          "name": "operator",
          "type": "address"
        },
        {
          "internalType": "bool",
          "name": "approved",
          "type": "bool"
        }
      ],
      "name": "setApprovalForAll",
      "outputs": [],
      "stateMutability": "nonpayable",
      "type": "function"
    },
    {
      "inputs": [
        {
          "internalType": "bytes4",
          "name": "interfaceId",
          "type": "bytes4"
        }
      ],
      "name": "supportsInterface",
      "outputs": [
        {
          "internalType": "bool",
          "name": "",
          "type": "bool"
        }
      ],
      "stateMutability": "pure",
      "type": "function"
    },
    {
      "inputs": [],
      "name": "symbol",
      "outputs": [
        {
          "internalType": "string",
          "name": "",
          "type": "string"
        }
      ],
      "stateMutability": "view",
      "type": "function"
    },
    {
      "inputs": [
        {
          "internalType": "uint256",
          "name": "tokenId",
          "type": "uint256"
        }
      ],
      "name": "tokenURI",
      "outputs": [
        {
          "internalType": "string",
          "name": "",
          "type": "string"
        }
      ],
      "stateMutability": "view",
      "type": "function"
    },
    {
      "inputs": [
        {
          "internalType": "address",
          "name": "from",
          "type": "address"
        },
        {
          "internalType": "address",
          "name": "to",
          "type": "address"
        },
        {
          "internalType": "uint256",
          "name": "id",
          "type": "uint256"
        }
      ],
      "name": "transferFrom",
      "outputs": [],
      "stateMutability": "nonpayable",
      "type": "function"
    }
  ],
  "bytecode": {
    "object": "0x60a06040523480156200001157600080fd5b506040516200133338038062001333833981016040819052620000349162000159565b60405180604001604052806005815260200164566572736560d81b81525060405180604001604052806005815260200164564552534560d81b815250816000908051906020019062000088929190620000b3565b5080516200009e906001906020840190620000b3565b5050506001600160a01b0316608052620001c8565b828054620000c1906200018b565b90600052602060002090601f016020900481019282620000e5576000855562000130565b82601f106200010057805160ff191683800117855562000130565b8280016001018555821562000130579182015b828111156200013057825182559160200191906001019062000113565b506200013e92915062000142565b5090565b5b808211156200013e576000815560010162000143565b6000602082840312156200016c57600080fd5b81516001600160a01b03811681146200018457600080fd5b9392505050565b600181811c90821680620001a057607f821691505b60208210811415620001c257634e487b7160e01b600052602260045260246000fd5b50919050565b608051611148620001eb6000396000818161028c015261079301526111486000f3fe608060405234801561001057600080fd5b50600436106101165760003560e01c80636c0360eb116100a2578063b88d4fde11610071578063b88d4fde14610274578063c45a015514610287578063c87b56dd146102ae578063d2f7265a146102c1578063e985e9c5146102d457600080fd5b80636c0360eb1461022357806370a082311461022b57806395d89b4114610259578063a22cb4651461026157600080fd5b806323b872dd116100e957806323b872dd146101ae57806342842e0e146101c15780635c6d8da1146101d45780636352211e146101e75780636a6278421461021057600080fd5b806301ffc9a71461011b57806306fdde0314610143578063081812fc14610158578063095ea7b314610199575b600080fd5b61012e610129366004610cee565b610302565b60405190151581526020015b60405180910390f35b61014b610354565b60405161013a9190610d5f565b610181610166366004610d72565b6004602052600090815260409020546001600160a01b031681565b6040516001600160a01b03909116815260200161013a565b6101ac6101a7366004610da7565b6103e2565b005b6101ac6101bc366004610dd1565b6104c9565b6101ac6101cf366004610dd1565b610690565b6101ac6101e2366004610e56565b610788565b6101816101f5366004610d72565b6003602052600090815260409020546001600160a01b031681565b6101ac61021e366004610f01565b610843565b61014b6108af565b61024b610239366004610f01565b60026020526000908152604090205481565b60405190815260200161013a565b61014b6108bc565b6101ac61026f366004610f1c565b6108c9565b6101ac610282366004610f6e565b610935565b6101817f000000000000000000000000000000000000000000000000000000000000000081565b61014b6102bc366004610d72565b610a1a565b600654610181906001600160a01b031681565b61012e6102e236600461104a565b600560209081526000928352604080842090915290825290205460ff1681565b60006301ffc9a760e01b6001600160e01b03198316148061033357506380ac58cd60e01b6001600160e01b03198316145b8061034e5750635b5e139f60e01b6001600160e01b03198316145b92915050565b600080546103619061107d565b80601f016020809104026020016040519081016040528092919081815260200182805461038d9061107d565b80156103da5780601f106103af576101008083540402835291602001916103da565b820191906000526020600020905b8154815290600101906020018083116103bd57829003601f168201915b505050505081565b6000818152600360205260409020546001600160a01b03163381148061042b57506001600160a01b038116600090815260056020908152604080832033845290915290205460ff165b61046d5760405162461bcd60e51b815260206004820152600e60248201526d1393d517d055551213d49256915160921b60448201526064015b60405180910390fd5b60008281526004602052604080822080546001600160a01b0319166001600160a01b0387811691821790925591518593918516917f8c5be1e5ebec7d5bd14f71427d1e84f3dd0314c0f7b2291e5b200ac8c7c3b92591a4505050565b6000818152600360205260409020546001600160a01b0384811691161461051f5760405162461bcd60e51b815260206004820152600a60248201526957524f4e475f46524f4d60b01b6044820152606401610464565b6001600160a01b0382166105695760405162461bcd60e51b81526020600482015260116024820152701253959053125117d49150d25412515395607a1b6044820152606401610464565b336001600160a01b038416148061059657506000818152600460205260409020546001600160a01b031633145b806105c457506001600160a01b038316600090815260056020908152604080832033845290915290205460ff165b6106015760405162461bcd60e51b815260206004820152600e60248201526d1393d517d055551213d49256915160921b6044820152606401610464565b6001600160a01b0380841660008181526002602090815260408083208054600019019055938616808352848320805460010190558583526003825284832080546001600160a01b03199081168317909155600490925284832080549092169091559251849392917fddf252ad1be2c89b69c2b068fc378daa952ba7f163c4a11628f55a4df523b3ef91a4505050565b61069b8383836104c9565b6001600160a01b0382163b15806107445750604051630a85bd0160e11b8082523360048301526001600160a01b03858116602484015260448301849052608060648401526000608484015290919084169063150b7a029060a4016020604051808303816000875af1158015610714573d6000803e3d6000fd5b505050506040513d601f19601f8201168201806040525081019061073891906110b8565b6001600160e01b031916145b6107835760405162461bcd60e51b815260206004820152601060248201526f155394d0519157d49150d2541251539560821b6044820152606401610464565b505050565b336001600160a01b037f000000000000000000000000000000000000000000000000000000000000000016146107ef5760405162461bcd60e51b815260206004820152600c60248201526b15539055551213d49256915160a21b6044820152606401610464565b6107fb60008888610c3f565b5061080860018686610c3f565b5061081560078484610c3f565b50600680546001600160a01b0319166001600160a01b03831617905560088054600101905550505050505050565b6006546001600160a01b0316331461088c5760405162461bcd60e51b815260206004820152600c60248201526b15539055551213d49256915160a21b6044820152606401610464565b61089e8161089960085490565b610b34565b6108ac600880546001019055565b50565b600780546103619061107d565b600180546103619061107d565b3360008181526005602090815260408083206001600160a01b03871680855290835292819020805460ff191686151590811790915590519081529192917f17307eab39ab6107e8899845ad3d59bd9653f200f220920489ca2b5937696c31910160405180910390a35050565b6109408484846104c9565b6001600160a01b0383163b15806109d55750604051630a85bd0160e11b808252906001600160a01b0385169063150b7a02906109869033908990889088906004016110d5565b6020604051808303816000875af11580156109a5573d6000803e3d6000fd5b505050506040513d601f19601f820116820180604052508101906109c991906110b8565b6001600160e01b031916145b610a145760405162461bcd60e51b815260206004820152601060248201526f155394d0519157d49150d2541251539560821b6044820152606401610464565b50505050565b6000818152600360205260409020546060906001600160a01b0316610a785760405162461bcd60e51b81526020600482015260146024820152731513d2d15397d113d154d7d393d517d1561254d560621b6044820152606401610464565b600060078054610a879061107d565b905011610aa3576040518060200160405280600081525061034e565b60078054610ab09061107d565b80601f0160208091040260200160405190810160405280929190818152602001828054610adc9061107d565b8015610b295780601f10610afe57610100808354040283529160200191610b29565b820191906000526020600020905b815481529060010190602001808311610b0c57829003601f168201915b505050505092915050565b6001600160a01b038216610b7e5760405162461bcd60e51b81526020600482015260116024820152701253959053125117d49150d25412515395607a1b6044820152606401610464565b6000818152600360205260409020546001600160a01b031615610bd45760405162461bcd60e51b815260206004820152600e60248201526d1053149150511657d3525395115160921b6044820152606401610464565b6001600160a01b038216600081815260026020908152604080832080546001019055848352600390915280822080546001600160a01b0319168417905551839291907fddf252ad1be2c89b69c2b068fc378daa952ba7f163c4a11628f55a4df523b3ef908290a45050565b828054610c4b9061107d565b90600052602060002090601f016020900481019282610c6d5760008555610cb3565b82601f10610c865782800160ff19823516178555610cb3565b82800160010185558215610cb3579182015b82811115610cb3578235825591602001919060010190610c98565b50610cbf929150610cc3565b5090565b5b80821115610cbf5760008155600101610cc4565b6001600160e01b0319811681146108ac57600080fd5b600060208284031215610d0057600080fd5b8135610d0b81610cd8565b9392505050565b6000815180845260005b81811015610d3857602081850181015186830182015201610d1c565b81811115610d4a576000602083870101525b50601f01601f19169290920160200192915050565b602081526000610d0b6020830184610d12565b600060208284031215610d8457600080fd5b5035919050565b80356001600160a01b0381168114610da257600080fd5b919050565b60008060408385031215610dba57600080fd5b610dc383610d8b565b946020939093013593505050565b600080600060608486031215610de657600080fd5b610def84610d8b565b9250610dfd60208501610d8b565b9150604084013590509250925092565b60008083601f840112610e1f57600080fd5b50813567ffffffffffffffff811115610e3757600080fd5b602083019150836020828501011115610e4f57600080fd5b9250929050565b60008060008060008060006080888a031215610e7157600080fd5b873567ffffffffffffffff80821115610e8957600080fd5b610e958b838c01610e0d565b909950975060208a0135915080821115610eae57600080fd5b610eba8b838c01610e0d565b909750955060408a0135915080821115610ed357600080fd5b50610ee08a828b01610e0d565b9094509250610ef3905060608901610d8b565b905092959891949750929550565b600060208284031215610f1357600080fd5b610d0b82610d8b565b60008060408385031215610f2f57600080fd5b610f3883610d8b565b915060208301358015158114610f4d57600080fd5b809150509250929050565b634e487b7160e01b600052604160045260246000fd5b60008060008060808587031215610f8457600080fd5b610f8d85610d8b565b9350610f9b60208601610d8b565b925060408501359150606085013567ffffffffffffffff80821115610fbf57600080fd5b818701915087601f830112610fd357600080fd5b813581811115610fe557610fe5610f58565b604051601f8201601f19908116603f0116810190838211818310171561100d5761100d610f58565b816040528281528a602084870101111561102657600080fd5b82602086016020830137600060208483010152809550505050505092959194509250565b6000806040838503121561105d57600080fd5b61106683610d8b565b915061107460208401610d8b565b90509250929050565b600181811c9082168061109157607f821691505b602082108114156110b257634e487b7160e01b600052602260045260246000fd5b50919050565b6000602082840312156110ca57600080fd5b8151610d0b81610cd8565b6001600160a01b038581168252841660208201526040810183905260806060820181905260009061110890830184610d12565b969550505050505056fea264697066735822122060af5c0009680627a96f9b3acbe02038bb25324385ccd348f8b0c82e8d42ecd964736f6c634300080b0033",
    "linkReferences": {}
  }
}